{
	"contracts/MiPrimerDEX.sol": {
		"YoppenDEX": {
			"abi": [
				{
					"inputs": [
						{
							"internalType": "address",
							"name": "_yoppenTokenAddress",
							"type": "address"
						},
						{
							"internalType": "uint256",
							"name": "_tokenPrice",
							"type": "uint256"
						}
					],
					"stateMutability": "nonpayable",
					"type": "constructor"
				},
				{
					"anonymous": false,
					"inputs": [
						{
							"indexed": true,
							"internalType": "address",
							"name": "buyer",
							"type": "address"
						},
						{
							"indexed": false,
							"internalType": "uint256",
							"name": "amount",
							"type": "uint256"
						}
					],
					"name": "Bought",
					"type": "event"
				},
				{
					"anonymous": false,
					"inputs": [
						{
							"indexed": true,
							"internalType": "address",
							"name": "seller",
							"type": "address"
						},
						{
							"indexed": false,
							"internalType": "uint256",
							"name": "amount",
							"type": "uint256"
						}
					],
					"name": "Sold",
					"type": "event"
				},
				{
					"inputs": [],
					"name": "buyTokens",
					"outputs": [],
					"stateMutability": "payable",
					"type": "function"
				},
				{
					"inputs": [],
					"name": "owner",
					"outputs": [
						{
							"internalType": "address",
							"name": "",
							"type": "address"
						}
					],
					"stateMutability": "view",
					"type": "function"
				},
				{
					"inputs": [
						{
							"internalType": "uint256",
							"name": "amountToSell",
							"type": "uint256"
						}
					],
					"name": "sellTokens",
					"outputs": [],
					"stateMutability": "nonpayable",
					"type": "function"
				},
				{
					"inputs": [
						{
							"internalType": "uint256",
							"name": "_newPrice",
							"type": "uint256"
						}
					],
					"name": "setTokenPrice",
					"outputs": [],
					"stateMutability": "nonpayable",
					"type": "function"
				},
				{
					"inputs": [],
					"name": "tokenPrice",
					"outputs": [
						{
							"internalType": "uint256",
							"name": "",
							"type": "uint256"
						}
					],
					"stateMutability": "view",
					"type": "function"
				},
				{
					"inputs": [
						{
							"internalType": "address",
							"name": "_newOwner",
							"type": "address"
						}
					],
					"name": "transferOwnership",
					"outputs": [],
					"stateMutability": "nonpayable",
					"type": "function"
				},
				{
					"inputs": [],
					"name": "yoppenToken",
					"outputs": [
						{
							"internalType": "contract IERC20",
							"name": "",
							"type": "address"
						}
					],
					"stateMutability": "view",
					"type": "function"
				}
			],
			"devdoc": {
				"kind": "dev",
				"methods": {},
				"version": 1
			},
			"evm": {
				"assembly": "    /* \"contracts/MiPrimerDEX.sol\":121:2198  contract YoppenDEX {... */\n  mstore(0x40, 0x80)\n    /* \"contracts/MiPrimerDEX.sol\":357:644  constructor(address _yoppenTokenAddress, uint256 _tokenPrice) {... */\n  callvalue\n  dup1\n  iszero\n  tag_1\n  jumpi\n  0x00\n  dup1\n  revert\ntag_1:\n  pop\n  mload(0x40)\n  sub(codesize, bytecodeSize)\n  dup1\n  bytecodeSize\n  dup4\n  codecopy\n  dup2\n  dup2\n  add\n  0x40\n  mstore\n  dup2\n  add\n  swap1\n  tag_2\n  swap2\n  swap1\n  tag_3\n  jump\t// in\ntag_2:\n    /* \"contracts/MiPrimerDEX.sol\":469:470  0 */\n  0x00\n    /* \"contracts/MiPrimerDEX.sol\":438:471  _yoppenTokenAddress != address(0) */\n  0xffffffffffffffffffffffffffffffffffffffff\n  and\n    /* \"contracts/MiPrimerDEX.sol\":438:457  _yoppenTokenAddress */\n  dup3\n    /* \"contracts/MiPrimerDEX.sol\":438:471  _yoppenTokenAddress != address(0) */\n  0xffffffffffffffffffffffffffffffffffffffff\n  and\n  sub\n    /* \"contracts/MiPrimerDEX.sol\":430:520  require(_yoppenTokenAddress != address(0), \"YoppenDEX: token address is the zero address\") */\n  tag_6\n  jumpi\n  mload(0x40)\n  0x08c379a000000000000000000000000000000000000000000000000000000000\n  dup2\n  mstore\n  0x04\n  add\n  tag_7\n  swap1\n  tag_8\n  jump\t// in\ntag_7:\n  mload(0x40)\n  dup1\n  swap2\n  sub\n  swap1\n  revert\ntag_6:\n    /* \"contracts/MiPrimerDEX.sol\":552:571  _yoppenTokenAddress */\n  dup2\n    /* \"contracts/MiPrimerDEX.sol\":531:542  yoppenToken */\n  0x00\n  dup1\n    /* \"contracts/MiPrimerDEX.sol\":531:572  yoppenToken = IERC20(_yoppenTokenAddress) */\n  0x0100\n  exp\n  dup2\n  sload\n  dup2\n  0xffffffffffffffffffffffffffffffffffffffff\n  mul\n  not\n  and\n  swap1\n  dup4\n  0xffffffffffffffffffffffffffffffffffffffff\n  and\n  mul\n  or\n  swap1\n  sstore\n  pop\n    /* \"contracts/MiPrimerDEX.sol\":596:607  _tokenPrice */\n  dup1\n    /* \"contracts/MiPrimerDEX.sol\":583:593  tokenPrice */\n  0x02\n    /* \"contracts/MiPrimerDEX.sol\":583:607  tokenPrice = _tokenPrice */\n  dup2\n  swap1\n  sstore\n  pop\n    /* \"contracts/MiPrimerDEX.sol\":626:636  msg.sender */\n  caller\n    /* \"contracts/MiPrimerDEX.sol\":618:623  owner */\n  0x01\n  0x00\n    /* \"contracts/MiPrimerDEX.sol\":618:636  owner = msg.sender */\n  0x0100\n  exp\n  dup2\n  sload\n  dup2\n  0xffffffffffffffffffffffffffffffffffffffff\n  mul\n  not\n  and\n  swap1\n  dup4\n  0xffffffffffffffffffffffffffffffffffffffff\n  and\n  mul\n  or\n  swap1\n  sstore\n  pop\n    /* \"contracts/MiPrimerDEX.sol\":357:644  constructor(address _yoppenTokenAddress, uint256 _tokenPrice) {... */\n  pop\n  pop\n    /* \"contracts/MiPrimerDEX.sol\":121:2198  contract YoppenDEX {... */\n  jump(tag_9)\n    /* \"#utility.yul\":88:205   */\ntag_11:\n    /* \"#utility.yul\":197:198   */\n  0x00\n    /* \"#utility.yul\":194:195   */\n  dup1\n    /* \"#utility.yul\":187:199   */\n  revert\n    /* \"#utility.yul\":334:460   */\ntag_13:\n    /* \"#utility.yul\":371:378   */\n  0x00\n    /* \"#utility.yul\":411:453   */\n  0xffffffffffffffffffffffffffffffffffffffff\n    /* \"#utility.yul\":404:409   */\n  dup3\n    /* \"#utility.yul\":400:454   */\n  and\n    /* \"#utility.yul\":389:454   */\n  swap1\n  pop\n    /* \"#utility.yul\":334:460   */\n  swap2\n  swap1\n  pop\n  jump\t// out\n    /* \"#utility.yul\":466:562   */\ntag_14:\n    /* \"#utility.yul\":503:510   */\n  0x00\n    /* \"#utility.yul\":532:556   */\n  tag_29\n    /* \"#utility.yul\":550:555   */\n  dup3\n    /* \"#utility.yul\":532:556   */\n  tag_13\n  jump\t// in\ntag_29:\n    /* \"#utility.yul\":521:556   */\n  swap1\n  pop\n    /* \"#utility.yul\":466:562   */\n  swap2\n  swap1\n  pop\n  jump\t// out\n    /* \"#utility.yul\":568:690   */\ntag_15:\n    /* \"#utility.yul\":641:665   */\n  tag_31\n    /* \"#utility.yul\":659:664   */\n  dup2\n    /* \"#utility.yul\":641:665   */\n  tag_14\n  jump\t// in\ntag_31:\n    /* \"#utility.yul\":634:639   */\n  dup2\n    /* \"#utility.yul\":631:666   */\n  eq\n    /* \"#utility.yul\":621:684   */\n  tag_32\n  jumpi\n    /* \"#utility.yul\":680:681   */\n  0x00\n    /* \"#utility.yul\":677:678   */\n  dup1\n    /* \"#utility.yul\":670:682   */\n  revert\n    /* \"#utility.yul\":621:684   */\ntag_32:\n    /* \"#utility.yul\":568:690   */\n  pop\n  jump\t// out\n    /* \"#utility.yul\":696:839   */\ntag_16:\n    /* \"#utility.yul\":753:758   */\n  0x00\n    /* \"#utility.yul\":784:790   */\n  dup2\n    /* \"#utility.yul\":778:791   */\n  mload\n    /* \"#utility.yul\":769:791   */\n  swap1\n  pop\n    /* \"#utility.yul\":800:833   */\n  tag_34\n    /* \"#utility.yul\":827:832   */\n  dup2\n    /* \"#utility.yul\":800:833   */\n  tag_15\n  jump\t// in\ntag_34:\n    /* \"#utility.yul\":696:839   */\n  swap3\n  swap2\n  pop\n  pop\n  jump\t// out\n    /* \"#utility.yul\":845:922   */\ntag_17:\n    /* \"#utility.yul\":882:889   */\n  0x00\n    /* \"#utility.yul\":911:916   */\n  dup2\n    /* \"#utility.yul\":900:916   */\n  swap1\n  pop\n    /* \"#utility.yul\":845:922   */\n  swap2\n  swap1\n  pop\n  jump\t// out\n    /* \"#utility.yul\":928:1050   */\ntag_18:\n    /* \"#utility.yul\":1001:1025   */\n  tag_37\n    /* \"#utility.yul\":1019:1024   */\n  dup2\n    /* \"#utility.yul\":1001:1025   */\n  tag_17\n  jump\t// in\ntag_37:\n    /* \"#utility.yul\":994:999   */\n  dup2\n    /* \"#utility.yul\":991:1026   */\n  eq\n    /* \"#utility.yul\":981:1044   */\n  tag_38\n  jumpi\n    /* \"#utility.yul\":1040:1041   */\n  0x00\n    /* \"#utility.yul\":1037:1038   */\n  dup1\n    /* \"#utility.yul\":1030:1042   */\n  revert\n    /* \"#utility.yul\":981:1044   */\ntag_38:\n    /* \"#utility.yul\":928:1050   */\n  pop\n  jump\t// out\n    /* \"#utility.yul\":1056:1199   */\ntag_19:\n    /* \"#utility.yul\":1113:1118   */\n  0x00\n    /* \"#utility.yul\":1144:1150   */\n  dup2\n    /* \"#utility.yul\":1138:1151   */\n  mload\n    /* \"#utility.yul\":1129:1151   */\n  swap1\n  pop\n    /* \"#utility.yul\":1160:1193   */\n  tag_40\n    /* \"#utility.yul\":1187:1192   */\n  dup2\n    /* \"#utility.yul\":1160:1193   */\n  tag_18\n  jump\t// in\ntag_40:\n    /* \"#utility.yul\":1056:1199   */\n  swap3\n  swap2\n  pop\n  pop\n  jump\t// out\n    /* \"#utility.yul\":1205:1712   */\ntag_3:\n    /* \"#utility.yul\":1284:1290   */\n  0x00\n    /* \"#utility.yul\":1292:1298   */\n  dup1\n    /* \"#utility.yul\":1341:1343   */\n  0x40\n    /* \"#utility.yul\":1329:1338   */\n  dup4\n    /* \"#utility.yul\":1320:1327   */\n  dup6\n    /* \"#utility.yul\":1316:1339   */\n  sub\n    /* \"#utility.yul\":1312:1344   */\n  slt\n    /* \"#utility.yul\":1309:1428   */\n  iszero\n  tag_42\n  jumpi\n    /* \"#utility.yul\":1347:1426   */\n  tag_43\n  tag_11\n  jump\t// in\ntag_43:\n    /* \"#utility.yul\":1309:1428   */\ntag_42:\n    /* \"#utility.yul\":1467:1468   */\n  0x00\n    /* \"#utility.yul\":1492:1556   */\n  tag_44\n    /* \"#utility.yul\":1548:1555   */\n  dup6\n    /* \"#utility.yul\":1539:1545   */\n  dup3\n    /* \"#utility.yul\":1528:1537   */\n  dup7\n    /* \"#utility.yul\":1524:1546   */\n  add\n    /* \"#utility.yul\":1492:1556   */\n  tag_16\n  jump\t// in\ntag_44:\n    /* \"#utility.yul\":1482:1556   */\n  swap3\n  pop\n    /* \"#utility.yul\":1438:1566   */\n  pop\n    /* \"#utility.yul\":1605:1607   */\n  0x20\n    /* \"#utility.yul\":1631:1695   */\n  tag_45\n    /* \"#utility.yul\":1687:1694   */\n  dup6\n    /* \"#utility.yul\":1678:1684   */\n  dup3\n    /* \"#utility.yul\":1667:1676   */\n  dup7\n    /* \"#utility.yul\":1663:1685   */\n  add\n    /* \"#utility.yul\":1631:1695   */\n  tag_19\n  jump\t// in\ntag_45:\n    /* \"#utility.yul\":1621:1695   */\n  swap2\n  pop\n    /* \"#utility.yul\":1576:1705   */\n  pop\n    /* \"#utility.yul\":1205:1712   */\n  swap3\n  pop\n  swap3\n  swap1\n  pop\n  jump\t// out\n    /* \"#utility.yul\":1718:1887   */\ntag_20:\n    /* \"#utility.yul\":1802:1813   */\n  0x00\n    /* \"#utility.yul\":1836:1842   */\n  dup3\n    /* \"#utility.yul\":1831:1834   */\n  dup3\n    /* \"#utility.yul\":1824:1843   */\n  mstore\n    /* \"#utility.yul\":1876:1880   */\n  0x20\n    /* \"#utility.yul\":1871:1874   */\n  dup3\n    /* \"#utility.yul\":1867:1881   */\n  add\n    /* \"#utility.yul\":1852:1881   */\n  swap1\n  pop\n    /* \"#utility.yul\":1718:1887   */\n  swap3\n  swap2\n  pop\n  pop\n  jump\t// out\n    /* \"#utility.yul\":1893:2124   */\ntag_21:\n    /* \"#utility.yul\":2033:2067   */\n  0x596f7070656e4445583a20746f6b656e20616464726573732069732074686520\n    /* \"#utility.yul\":2029:2030   */\n  0x00\n    /* \"#utility.yul\":2021:2027   */\n  dup3\n    /* \"#utility.yul\":2017:2031   */\n  add\n    /* \"#utility.yul\":2010:2068   */\n  mstore\n    /* \"#utility.yul\":2102:2116   */\n  0x7a65726f20616464726573730000000000000000000000000000000000000000\n    /* \"#utility.yul\":2097:2099   */\n  0x20\n    /* \"#utility.yul\":2089:2095   */\n  dup3\n    /* \"#utility.yul\":2085:2100   */\n  add\n    /* \"#utility.yul\":2078:2117   */\n  mstore\n    /* \"#utility.yul\":1893:2124   */\n  pop\n  jump\t// out\n    /* \"#utility.yul\":2130:2496   */\ntag_22:\n    /* \"#utility.yul\":2272:2275   */\n  0x00\n    /* \"#utility.yul\":2293:2360   */\n  tag_49\n    /* \"#utility.yul\":2357:2359   */\n  0x2c\n    /* \"#utility.yul\":2352:2355   */\n  dup4\n    /* \"#utility.yul\":2293:2360   */\n  tag_20\n  jump\t// in\ntag_49:\n    /* \"#utility.yul\":2286:2360   */\n  swap2\n  pop\n    /* \"#utility.yul\":2369:2462   */\n  tag_50\n    /* \"#utility.yul\":2458:2461   */\n  dup3\n    /* \"#utility.yul\":2369:2462   */\n  tag_21\n  jump\t// in\ntag_50:\n    /* \"#utility.yul\":2487:2489   */\n  0x40\n    /* \"#utility.yul\":2482:2485   */\n  dup3\n    /* \"#utility.yul\":2478:2490   */\n  add\n    /* \"#utility.yul\":2471:2490   */\n  swap1\n  pop\n    /* \"#utility.yul\":2130:2496   */\n  swap2\n  swap1\n  pop\n  jump\t// out\n    /* \"#utility.yul\":2502:2921   */\ntag_8:\n    /* \"#utility.yul\":2668:2672   */\n  0x00\n    /* \"#utility.yul\":2706:2708   */\n  0x20\n    /* \"#utility.yul\":2695:2704   */\n  dup3\n    /* \"#utility.yul\":2691:2709   */\n  add\n    /* \"#utility.yul\":2683:2709   */\n  swap1\n  pop\n    /* \"#utility.yul\":2755:2764   */\n  dup2\n    /* \"#utility.yul\":2749:2753   */\n  dup2\n    /* \"#utility.yul\":2745:2765   */\n  sub\n    /* \"#utility.yul\":2741:2742   */\n  0x00\n    /* \"#utility.yul\":2730:2739   */\n  dup4\n    /* \"#utility.yul\":2726:2743   */\n  add\n    /* \"#utility.yul\":2719:2766   */\n  mstore\n    /* \"#utility.yul\":2783:2914   */\n  tag_52\n    /* \"#utility.yul\":2909:2913   */\n  dup2\n    /* \"#utility.yul\":2783:2914   */\n  tag_22\n  jump\t// in\ntag_52:\n    /* \"#utility.yul\":2775:2914   */\n  swap1\n  pop\n    /* \"#utility.yul\":2502:2921   */\n  swap2\n  swap1\n  pop\n  jump\t// out\n    /* \"contracts/MiPrimerDEX.sol\":121:2198  contract YoppenDEX {... */\ntag_9:\n  dataSize(sub_0)\n  dup1\n  dataOffset(sub_0)\n  0x00\n  codecopy\n  0x00\n  return\nstop\n\nsub_0: assembly {\n        /* \"contracts/MiPrimerDEX.sol\":121:2198  contract YoppenDEX {... */\n      mstore(0x40, 0x80)\n      jumpi(tag_1, lt(calldatasize, 0x04))\n      shr(0xe0, calldataload(0x00))\n      dup1\n      0x7ff9b596\n      gt\n      tag_9\n      jumpi\n      dup1\n      0x7ff9b596\n      eq\n      tag_5\n      jumpi\n      dup1\n      0x8da5cb5b\n      eq\n      tag_6\n      jumpi\n      dup1\n      0xd0febe4c\n      eq\n      tag_7\n      jumpi\n      dup1\n      0xf2fde38b\n      eq\n      tag_8\n      jumpi\n      jump(tag_1)\n    tag_9:\n      dup1\n      0x3fa36d9f\n      eq\n      tag_2\n      jumpi\n      dup1\n      0x6a61e5fc\n      eq\n      tag_3\n      jumpi\n      dup1\n      0x6c11bcd3\n      eq\n      tag_4\n      jumpi\n    tag_1:\n      0x00\n      dup1\n      revert\n        /* \"contracts/MiPrimerDEX.sol\":147:172  IERC20 public yoppenToken */\n    tag_2:\n      callvalue\n      dup1\n      iszero\n      tag_10\n      jumpi\n      0x00\n      dup1\n      revert\n    tag_10:\n      pop\n      tag_11\n      tag_12\n      jump\t// in\n    tag_11:\n      mload(0x40)\n      tag_13\n      swap2\n      swap1\n      tag_14\n      jump\t// in\n    tag_13:\n      mload(0x40)\n      dup1\n      swap2\n      sub\n      swap1\n      return\n        /* \"contracts/MiPrimerDEX.sol\":1862:1962  function setTokenPrice(uint256 _newPrice) public onlyOwner {... */\n    tag_3:\n      callvalue\n      dup1\n      iszero\n      tag_15\n      jumpi\n      0x00\n      dup1\n      revert\n    tag_15:\n      pop\n      tag_16\n      0x04\n      dup1\n      calldatasize\n      sub\n      dup2\n      add\n      swap1\n      tag_17\n      swap2\n      swap1\n      tag_18\n      jump\t// in\n    tag_17:\n      tag_19\n      jump\t// in\n    tag_16:\n      stop\n        /* \"contracts/MiPrimerDEX.sol\":1313:1812  function sellTokens(uint256 amountToSell) public {... */\n    tag_4:\n      callvalue\n      dup1\n      iszero\n      tag_20\n      jumpi\n      0x00\n      dup1\n      revert\n    tag_20:\n      pop\n      tag_21\n      0x04\n      dup1\n      calldatasize\n      sub\n      dup2\n      add\n      swap1\n      tag_22\n      swap2\n      swap1\n      tag_18\n      jump\t// in\n    tag_22:\n      tag_23\n      jump\t// in\n    tag_21:\n      stop\n        /* \"contracts/MiPrimerDEX.sol\":206:231  uint256 public tokenPrice */\n    tag_5:\n      callvalue\n      dup1\n      iszero\n      tag_24\n      jumpi\n      0x00\n      dup1\n      revert\n    tag_24:\n      pop\n      tag_25\n      tag_26\n      jump\t// in\n    tag_25:\n      mload(0x40)\n      tag_27\n      swap2\n      swap1\n      tag_28\n      jump\t// in\n    tag_27:\n      mload(0x40)\n      dup1\n      swap2\n      sub\n      swap1\n      return\n        /* \"contracts/MiPrimerDEX.sol\":179:199  address public owner */\n    tag_6:\n      callvalue\n      dup1\n      iszero\n      tag_29\n      jumpi\n      0x00\n      dup1\n      revert\n    tag_29:\n      pop\n      tag_30\n      tag_31\n      jump\t// in\n    tag_30:\n      mload(0x40)\n      tag_32\n      swap2\n      swap1\n      tag_33\n      jump\t// in\n    tag_32:\n      mload(0x40)\n      dup1\n      swap2\n      sub\n      swap1\n      return\n        /* \"contracts/MiPrimerDEX.sol\":808:1267  function buyTokens() public payable {... */\n    tag_7:\n      tag_34\n      tag_35\n      jump\t// in\n    tag_34:\n      stop\n        /* \"contracts/MiPrimerDEX.sol\":2009:2195  function transferOwnership(address _newOwner) public onlyOwner {... */\n    tag_8:\n      callvalue\n      dup1\n      iszero\n      tag_36\n      jumpi\n      0x00\n      dup1\n      revert\n    tag_36:\n      pop\n      tag_37\n      0x04\n      dup1\n      calldatasize\n      sub\n      dup2\n      add\n      swap1\n      tag_38\n      swap2\n      swap1\n      tag_39\n      jump\t// in\n    tag_38:\n      tag_40\n      jump\t// in\n    tag_37:\n      stop\n        /* \"contracts/MiPrimerDEX.sol\":147:172  IERC20 public yoppenToken */\n    tag_12:\n      0x00\n      dup1\n      sload\n      swap1\n      0x0100\n      exp\n      swap1\n      div\n      0xffffffffffffffffffffffffffffffffffffffff\n      and\n      dup2\n      jump\t// out\n        /* \"contracts/MiPrimerDEX.sol\":1862:1962  function setTokenPrice(uint256 _newPrice) public onlyOwner {... */\n    tag_19:\n        /* \"contracts/MiPrimerDEX.sol\":706:711  owner */\n      0x01\n      0x00\n      swap1\n      sload\n      swap1\n      0x0100\n      exp\n      swap1\n      div\n      0xffffffffffffffffffffffffffffffffffffffff\n      and\n        /* \"contracts/MiPrimerDEX.sol\":692:711  msg.sender == owner */\n      0xffffffffffffffffffffffffffffffffffffffff\n      and\n        /* \"contracts/MiPrimerDEX.sol\":692:702  msg.sender */\n      caller\n        /* \"contracts/MiPrimerDEX.sol\":692:711  msg.sender == owner */\n      0xffffffffffffffffffffffffffffffffffffffff\n      and\n      eq\n        /* \"contracts/MiPrimerDEX.sol\":684:750  require(msg.sender == owner, \"YoppenDEX: caller is not the owner\") */\n      tag_42\n      jumpi\n      mload(0x40)\n      0x08c379a000000000000000000000000000000000000000000000000000000000\n      dup2\n      mstore\n      0x04\n      add\n      tag_43\n      swap1\n      tag_44\n      jump\t// in\n    tag_43:\n      mload(0x40)\n      dup1\n      swap2\n      sub\n      swap1\n      revert\n    tag_42:\n        /* \"contracts/MiPrimerDEX.sol\":1945:1954  _newPrice */\n      dup1\n        /* \"contracts/MiPrimerDEX.sol\":1932:1942  tokenPrice */\n      0x02\n        /* \"contracts/MiPrimerDEX.sol\":1932:1954  tokenPrice = _newPrice */\n      dup2\n      swap1\n      sstore\n      pop\n        /* \"contracts/MiPrimerDEX.sol\":1862:1962  function setTokenPrice(uint256 _newPrice) public onlyOwner {... */\n      pop\n      jump\t// out\n        /* \"contracts/MiPrimerDEX.sol\":1313:1812  function sellTokens(uint256 amountToSell) public {... */\n    tag_23:\n        /* \"contracts/MiPrimerDEX.sol\":1396:1397  0 */\n      0x00\n        /* \"contracts/MiPrimerDEX.sol\":1381:1393  amountToSell */\n      dup2\n        /* \"contracts/MiPrimerDEX.sol\":1381:1397  amountToSell > 0 */\n      gt\n        /* \"contracts/MiPrimerDEX.sol\":1373:1450  require(amountToSell > 0, \"YoppenDEX: You need to sell at least some tokens\") */\n      tag_47\n      jumpi\n      mload(0x40)\n      0x08c379a000000000000000000000000000000000000000000000000000000000\n      dup2\n      mstore\n      0x04\n      add\n      tag_48\n      swap1\n      tag_49\n      jump\t// in\n    tag_48:\n      mload(0x40)\n      dup1\n      swap2\n      sub\n      swap1\n      revert\n    tag_47:\n        /* \"contracts/MiPrimerDEX.sol\":1461:1478  uint256 allowance */\n      0x00\n        /* \"contracts/MiPrimerDEX.sol\":1481:1492  yoppenToken */\n      dup1\n      0x00\n      swap1\n      sload\n      swap1\n      0x0100\n      exp\n      swap1\n      div\n      0xffffffffffffffffffffffffffffffffffffffff\n      and\n        /* \"contracts/MiPrimerDEX.sol\":1481:1502  yoppenToken.allowance */\n      0xffffffffffffffffffffffffffffffffffffffff\n      and\n      0xdd62ed3e\n        /* \"contracts/MiPrimerDEX.sol\":1503:1513  msg.sender */\n      caller\n        /* \"contracts/MiPrimerDEX.sol\":1523:1527  this */\n      address\n        /* \"contracts/MiPrimerDEX.sol\":1481:1529  yoppenToken.allowance(msg.sender, address(this)) */\n      mload(0x40)\n      dup4\n      0xffffffff\n      and\n      0xe0\n      shl\n      dup2\n      mstore\n      0x04\n      add\n      tag_50\n      swap3\n      swap2\n      swap1\n      tag_51\n      jump\t// in\n    tag_50:\n      0x20\n      mload(0x40)\n      dup1\n      dup4\n      sub\n      dup2\n      dup7\n      gas\n      staticcall\n      iszero\n      dup1\n      iszero\n      tag_53\n      jumpi\n      returndatasize\n      0x00\n      dup1\n      returndatacopy\n      revert(0x00, returndatasize)\n    tag_53:\n      pop\n      pop\n      pop\n      pop\n      mload(0x40)\n      returndatasize\n      not(0x1f)\n      0x1f\n      dup3\n      add\n      and\n      dup3\n      add\n      dup1\n      0x40\n      mstore\n      pop\n      dup2\n      add\n      swap1\n      tag_54\n      swap2\n      swap1\n      tag_55\n      jump\t// in\n    tag_54:\n        /* \"contracts/MiPrimerDEX.sol\":1461:1529  uint256 allowance = yoppenToken.allowance(msg.sender, address(this)) */\n      swap1\n      pop\n        /* \"contracts/MiPrimerDEX.sol\":1561:1573  amountToSell */\n      dup2\n        /* \"contracts/MiPrimerDEX.sol\":1548:1557  allowance */\n      dup2\n        /* \"contracts/MiPrimerDEX.sol\":1548:1573  allowance >= amountToSell */\n      lt\n      iszero\n        /* \"contracts/MiPrimerDEX.sol\":1540:1614  require(allowance >= amountToSell, \"YoppenDEX: Check the token allowance\") */\n      tag_56\n      jumpi\n      mload(0x40)\n      0x08c379a000000000000000000000000000000000000000000000000000000000\n      dup2\n      mstore\n      0x04\n      add\n      tag_57\n      swap1\n      tag_58\n      jump\t// in\n    tag_57:\n      mload(0x40)\n      dup1\n      swap2\n      sub\n      swap1\n      revert\n    tag_56:\n        /* \"contracts/MiPrimerDEX.sol\":1627:1638  yoppenToken */\n      0x00\n      dup1\n      sload\n      swap1\n      0x0100\n      exp\n      swap1\n      div\n      0xffffffffffffffffffffffffffffffffffffffff\n      and\n        /* \"contracts/MiPrimerDEX.sol\":1627:1651  yoppenToken.transferFrom */\n      0xffffffffffffffffffffffffffffffffffffffff\n      and\n      0x23b872dd\n        /* \"contracts/MiPrimerDEX.sol\":1652:1662  msg.sender */\n      caller\n        /* \"contracts/MiPrimerDEX.sol\":1672:1676  this */\n      address\n        /* \"contracts/MiPrimerDEX.sol\":1679:1691  amountToSell */\n      dup6\n        /* \"contracts/MiPrimerDEX.sol\":1627:1692  yoppenToken.transferFrom(msg.sender, address(this), amountToSell) */\n      mload(0x40)\n      dup5\n      0xffffffff\n      and\n      0xe0\n      shl\n      dup2\n      mstore\n      0x04\n      add\n      tag_59\n      swap4\n      swap3\n      swap2\n      swap1\n      tag_60\n      jump\t// in\n    tag_59:\n      0x20\n      mload(0x40)\n      dup1\n      dup4\n      sub\n      dup2\n      0x00\n      dup8\n      gas\n      call\n      iszero\n      dup1\n      iszero\n      tag_62\n      jumpi\n      returndatasize\n      0x00\n      dup1\n      returndatacopy\n      revert(0x00, returndatasize)\n    tag_62:\n      pop\n      pop\n      pop\n      pop\n      mload(0x40)\n      returndatasize\n      not(0x1f)\n      0x1f\n      dup3\n      add\n      and\n      dup3\n      add\n      dup1\n      0x40\n      mstore\n      pop\n      dup2\n      add\n      swap1\n      tag_63\n      swap2\n      swap1\n      tag_64\n      jump\t// in\n    tag_63:\n      pop\n        /* \"contracts/MiPrimerDEX.sol\":1711:1721  msg.sender */\n      caller\n        /* \"contracts/MiPrimerDEX.sol\":1703:1731  payable(msg.sender).transfer */\n      0xffffffffffffffffffffffffffffffffffffffff\n      and\n        /* \"contracts/MiPrimerDEX.sol\":1703:1758  payable(msg.sender).transfer(amountToSell * tokenPrice) */\n      0x08fc\n        /* \"contracts/MiPrimerDEX.sol\":1747:1757  tokenPrice */\n      sload(0x02)\n        /* \"contracts/MiPrimerDEX.sol\":1732:1744  amountToSell */\n      dup5\n        /* \"contracts/MiPrimerDEX.sol\":1732:1757  amountToSell * tokenPrice */\n      tag_65\n      swap2\n      swap1\n      tag_66\n      jump\t// in\n    tag_65:\n        /* \"contracts/MiPrimerDEX.sol\":1703:1758  payable(msg.sender).transfer(amountToSell * tokenPrice) */\n      swap1\n      dup2\n      iszero\n      mul\n      swap1\n      mload(0x40)\n      0x00\n      mload(0x40)\n      dup1\n      dup4\n      sub\n      dup2\n      dup6\n      dup9\n      dup9\n      call\n      swap4\n      pop\n      pop\n      pop\n      pop\n      iszero\n      dup1\n      iszero\n      tag_68\n      jumpi\n      returndatasize\n      0x00\n      dup1\n      returndatacopy\n      revert(0x00, returndatasize)\n    tag_68:\n      pop\n        /* \"contracts/MiPrimerDEX.sol\":1779:1789  msg.sender */\n      caller\n        /* \"contracts/MiPrimerDEX.sol\":1774:1804  Sold(msg.sender, amountToSell) */\n      0xffffffffffffffffffffffffffffffffffffffff\n      and\n      0xae92ab4b6f8f401ead768d3273e6bb937a13e39827d19c6376e8fd4512a05d9a\n        /* \"contracts/MiPrimerDEX.sol\":1791:1803  amountToSell */\n      dup4\n        /* \"contracts/MiPrimerDEX.sol\":1774:1804  Sold(msg.sender, amountToSell) */\n      mload(0x40)\n      tag_69\n      swap2\n      swap1\n      tag_28\n      jump\t// in\n    tag_69:\n      mload(0x40)\n      dup1\n      swap2\n      sub\n      swap1\n      log2\n        /* \"contracts/MiPrimerDEX.sol\":1362:1812  {... */\n      pop\n        /* \"contracts/MiPrimerDEX.sol\":1313:1812  function sellTokens(uint256 amountToSell) public {... */\n      pop\n      jump\t// out\n        /* \"contracts/MiPrimerDEX.sol\":206:231  uint256 public tokenPrice */\n    tag_26:\n      sload(0x02)\n      dup2\n      jump\t// out\n        /* \"contracts/MiPrimerDEX.sol\":179:199  address public owner */\n    tag_31:\n      0x01\n      0x00\n      swap1\n      sload\n      swap1\n      0x0100\n      exp\n      swap1\n      div\n      0xffffffffffffffffffffffffffffffffffffffff\n      and\n      dup2\n      jump\t// out\n        /* \"contracts/MiPrimerDEX.sol\":808:1267  function buyTokens() public payable {... */\n    tag_35:\n        /* \"contracts/MiPrimerDEX.sol\":855:874  uint256 amountToBuy */\n      0x00\n        /* \"contracts/MiPrimerDEX.sol\":889:899  tokenPrice */\n      sload(0x02)\n        /* \"contracts/MiPrimerDEX.sol\":877:886  msg.value */\n      callvalue\n        /* \"contracts/MiPrimerDEX.sol\":877:899  msg.value / tokenPrice */\n      tag_71\n      swap2\n      swap1\n      tag_72\n      jump\t// in\n    tag_71:\n        /* \"contracts/MiPrimerDEX.sol\":855:899  uint256 amountToBuy = msg.value / tokenPrice */\n      swap1\n      pop\n        /* \"contracts/MiPrimerDEX.sol\":910:928  uint256 dexBalance */\n      0x00\n        /* \"contracts/MiPrimerDEX.sol\":931:942  yoppenToken */\n      dup1\n      0x00\n      swap1\n      sload\n      swap1\n      0x0100\n      exp\n      swap1\n      div\n      0xffffffffffffffffffffffffffffffffffffffff\n      and\n        /* \"contracts/MiPrimerDEX.sol\":931:952  yoppenToken.balanceOf */\n      0xffffffffffffffffffffffffffffffffffffffff\n      and\n      0x70a08231\n        /* \"contracts/MiPrimerDEX.sol\":961:965  this */\n      address\n        /* \"contracts/MiPrimerDEX.sol\":931:967  yoppenToken.balanceOf(address(this)) */\n      mload(0x40)\n      dup3\n      0xffffffff\n      and\n      0xe0\n      shl\n      dup2\n      mstore\n      0x04\n      add\n      tag_73\n      swap2\n      swap1\n      tag_33\n      jump\t// in\n    tag_73:\n      0x20\n      mload(0x40)\n      dup1\n      dup4\n      sub\n      dup2\n      dup7\n      gas\n      staticcall\n      iszero\n      dup1\n      iszero\n      tag_75\n      jumpi\n      returndatasize\n      0x00\n      dup1\n      returndatacopy\n      revert(0x00, returndatasize)\n    tag_75:\n      pop\n      pop\n      pop\n      pop\n      mload(0x40)\n      returndatasize\n      not(0x1f)\n      0x1f\n      dup3\n      add\n      and\n      dup3\n      add\n      dup1\n      0x40\n      mstore\n      pop\n      dup2\n      add\n      swap1\n      tag_76\n      swap2\n      swap1\n      tag_55\n      jump\t// in\n    tag_76:\n        /* \"contracts/MiPrimerDEX.sol\":910:967  uint256 dexBalance = yoppenToken.balanceOf(address(this)) */\n      swap1\n      pop\n        /* \"contracts/MiPrimerDEX.sol\":1010:1011  0 */\n      0x00\n        /* \"contracts/MiPrimerDEX.sol\":996:1007  amountToBuy */\n      dup3\n        /* \"contracts/MiPrimerDEX.sol\":996:1011  amountToBuy > 0 */\n      gt\n        /* \"contracts/MiPrimerDEX.sol\":988:1054  require(amountToBuy > 0, \"YoppenDEX: You need to send some Ether\") */\n      tag_77\n      jumpi\n      mload(0x40)\n      0x08c379a000000000000000000000000000000000000000000000000000000000\n      dup2\n      mstore\n      0x04\n      add\n      tag_78\n      swap1\n      tag_79\n      jump\t// in\n    tag_78:\n      mload(0x40)\n      dup1\n      swap2\n      sub\n      swap1\n      revert\n    tag_77:\n        /* \"contracts/MiPrimerDEX.sol\":1088:1098  dexBalance */\n      dup1\n        /* \"contracts/MiPrimerDEX.sol\":1073:1084  amountToBuy */\n      dup3\n        /* \"contracts/MiPrimerDEX.sol\":1073:1098  amountToBuy <= dexBalance */\n      gt\n      iszero\n        /* \"contracts/MiPrimerDEX.sol\":1065:1146  require(amountToBuy <= dexBalance, \"YoppenDEX: Not enough tokens in the reserve\") */\n      tag_80\n      jumpi\n      mload(0x40)\n      0x08c379a000000000000000000000000000000000000000000000000000000000\n      dup2\n      mstore\n      0x04\n      add\n      tag_81\n      swap1\n      tag_82\n      jump\t// in\n    tag_81:\n      mload(0x40)\n      dup1\n      swap2\n      sub\n      swap1\n      revert\n    tag_80:\n        /* \"contracts/MiPrimerDEX.sol\":1167:1178  yoppenToken */\n      0x00\n      dup1\n      sload\n      swap1\n      0x0100\n      exp\n      swap1\n      div\n      0xffffffffffffffffffffffffffffffffffffffff\n      and\n        /* \"contracts/MiPrimerDEX.sol\":1167:1187  yoppenToken.transfer */\n      0xffffffffffffffffffffffffffffffffffffffff\n      and\n      0xa9059cbb\n        /* \"contracts/MiPrimerDEX.sol\":1188:1198  msg.sender */\n      caller\n        /* \"contracts/MiPrimerDEX.sol\":1200:1211  amountToBuy */\n      dup5\n        /* \"contracts/MiPrimerDEX.sol\":1167:1212  yoppenToken.transfer(msg.sender, amountToBuy) */\n      mload(0x40)\n      dup4\n      0xffffffff\n      and\n      0xe0\n      shl\n      dup2\n      mstore\n      0x04\n      add\n      tag_83\n      swap3\n      swap2\n      swap1\n      tag_84\n      jump\t// in\n    tag_83:\n      0x20\n      mload(0x40)\n      dup1\n      dup4\n      sub\n      dup2\n      0x00\n      dup8\n      gas\n      call\n      iszero\n      dup1\n      iszero\n      tag_86\n      jumpi\n      returndatasize\n      0x00\n      dup1\n      returndatacopy\n      revert(0x00, returndatasize)\n    tag_86:\n      pop\n      pop\n      pop\n      pop\n      mload(0x40)\n      returndatasize\n      not(0x1f)\n      0x1f\n      dup3\n      add\n      and\n      dup3\n      add\n      dup1\n      0x40\n      mstore\n      pop\n      dup2\n      add\n      swap1\n      tag_87\n      swap2\n      swap1\n      tag_64\n      jump\t// in\n    tag_87:\n      pop\n        /* \"contracts/MiPrimerDEX.sol\":1235:1245  msg.sender */\n      caller\n        /* \"contracts/MiPrimerDEX.sol\":1228:1259  Bought(msg.sender, amountToBuy) */\n      0xffffffffffffffffffffffffffffffffffffffff\n      and\n      0xc55650ccda1011e1cdc769b1fbf546ebb8c97800b6072b49e06cd560305b1d67\n        /* \"contracts/MiPrimerDEX.sol\":1247:1258  amountToBuy */\n      dup4\n        /* \"contracts/MiPrimerDEX.sol\":1228:1259  Bought(msg.sender, amountToBuy) */\n      mload(0x40)\n      tag_88\n      swap2\n      swap1\n      tag_28\n      jump\t// in\n    tag_88:\n      mload(0x40)\n      dup1\n      swap2\n      sub\n      swap1\n      log2\n        /* \"contracts/MiPrimerDEX.sol\":844:1267  {... */\n      pop\n      pop\n        /* \"contracts/MiPrimerDEX.sol\":808:1267  function buyTokens() public payable {... */\n      jump\t// out\n        /* \"contracts/MiPrimerDEX.sol\":2009:2195  function transferOwnership(address _newOwner) public onlyOwner {... */\n    tag_40:\n        /* \"contracts/MiPrimerDEX.sol\":706:711  owner */\n      0x01\n      0x00\n      swap1\n      sload\n      swap1\n      0x0100\n      exp\n      swap1\n      div\n      0xffffffffffffffffffffffffffffffffffffffff\n      and\n        /* \"contracts/MiPrimerDEX.sol\":692:711  msg.sender == owner */\n      0xffffffffffffffffffffffffffffffffffffffff\n      and\n        /* \"contracts/MiPrimerDEX.sol\":692:702  msg.sender */\n      caller\n        /* \"contracts/MiPrimerDEX.sol\":692:711  msg.sender == owner */\n      0xffffffffffffffffffffffffffffffffffffffff\n      and\n      eq\n        /* \"contracts/MiPrimerDEX.sol\":684:750  require(msg.sender == owner, \"YoppenDEX: caller is not the owner\") */\n      tag_90\n      jumpi\n      mload(0x40)\n      0x08c379a000000000000000000000000000000000000000000000000000000000\n      dup2\n      mstore\n      0x04\n      add\n      tag_91\n      swap1\n      tag_44\n      jump\t// in\n    tag_91:\n      mload(0x40)\n      dup1\n      swap2\n      sub\n      swap1\n      revert\n    tag_90:\n        /* \"contracts/MiPrimerDEX.sol\":2112:2113  0 */\n      0x00\n        /* \"contracts/MiPrimerDEX.sol\":2091:2114  _newOwner != address(0) */\n      0xffffffffffffffffffffffffffffffffffffffff\n      and\n        /* \"contracts/MiPrimerDEX.sol\":2091:2100  _newOwner */\n      dup2\n        /* \"contracts/MiPrimerDEX.sol\":2091:2114  _newOwner != address(0) */\n      0xffffffffffffffffffffffffffffffffffffffff\n      and\n      sub\n        /* \"contracts/MiPrimerDEX.sol\":2083:2159  require(_newOwner != address(0), \"YoppenDEX: new owner is the zero address\") */\n      tag_93\n      jumpi\n      mload(0x40)\n      0x08c379a000000000000000000000000000000000000000000000000000000000\n      dup2\n      mstore\n      0x04\n      add\n      tag_94\n      swap1\n      tag_95\n      jump\t// in\n    tag_94:\n      mload(0x40)\n      dup1\n      swap2\n      sub\n      swap1\n      revert\n    tag_93:\n        /* \"contracts/MiPrimerDEX.sol\":2178:2187  _newOwner */\n      dup1\n        /* \"contracts/MiPrimerDEX.sol\":2170:2175  owner */\n      0x01\n      0x00\n        /* \"contracts/MiPrimerDEX.sol\":2170:2187  owner = _newOwner */\n      0x0100\n      exp\n      dup2\n      sload\n      dup2\n      0xffffffffffffffffffffffffffffffffffffffff\n      mul\n      not\n      and\n      swap1\n      dup4\n      0xffffffffffffffffffffffffffffffffffffffff\n      and\n      mul\n      or\n      swap1\n      sstore\n      pop\n        /* \"contracts/MiPrimerDEX.sol\":2009:2195  function transferOwnership(address _newOwner) public onlyOwner {... */\n      pop\n      jump\t// out\n        /* \"#utility.yul\":7:133   */\n    tag_96:\n        /* \"#utility.yul\":44:51   */\n      0x00\n        /* \"#utility.yul\":84:126   */\n      0xffffffffffffffffffffffffffffffffffffffff\n        /* \"#utility.yul\":77:82   */\n      dup3\n        /* \"#utility.yul\":73:127   */\n      and\n        /* \"#utility.yul\":62:127   */\n      swap1\n      pop\n        /* \"#utility.yul\":7:133   */\n      swap2\n      swap1\n      pop\n      jump\t// out\n        /* \"#utility.yul\":139:199   */\n    tag_97:\n        /* \"#utility.yul\":167:170   */\n      0x00\n        /* \"#utility.yul\":188:193   */\n      dup2\n        /* \"#utility.yul\":181:193   */\n      swap1\n      pop\n        /* \"#utility.yul\":139:199   */\n      swap2\n      swap1\n      pop\n      jump\t// out\n        /* \"#utility.yul\":205:347   */\n    tag_98:\n        /* \"#utility.yul\":255:264   */\n      0x00\n        /* \"#utility.yul\":288:341   */\n      tag_136\n        /* \"#utility.yul\":306:340   */\n      tag_137\n        /* \"#utility.yul\":315:339   */\n      tag_138\n        /* \"#utility.yul\":333:338   */\n      dup5\n        /* \"#utility.yul\":315:339   */\n      tag_96\n      jump\t// in\n    tag_138:\n        /* \"#utility.yul\":306:340   */\n      tag_97\n      jump\t// in\n    tag_137:\n        /* \"#utility.yul\":288:341   */\n      tag_96\n      jump\t// in\n    tag_136:\n        /* \"#utility.yul\":275:341   */\n      swap1\n      pop\n        /* \"#utility.yul\":205:347   */\n      swap2\n      swap1\n      pop\n      jump\t// out\n        /* \"#utility.yul\":353:479   */\n    tag_99:\n        /* \"#utility.yul\":403:412   */\n      0x00\n        /* \"#utility.yul\":436:473   */\n      tag_140\n        /* \"#utility.yul\":467:472   */\n      dup3\n        /* \"#utility.yul\":436:473   */\n      tag_98\n      jump\t// in\n    tag_140:\n        /* \"#utility.yul\":423:473   */\n      swap1\n      pop\n        /* \"#utility.yul\":353:479   */\n      swap2\n      swap1\n      pop\n      jump\t// out\n        /* \"#utility.yul\":485:624   */\n    tag_100:\n        /* \"#utility.yul\":548:557   */\n      0x00\n        /* \"#utility.yul\":581:618   */\n      tag_142\n        /* \"#utility.yul\":612:617   */\n      dup3\n        /* \"#utility.yul\":581:618   */\n      tag_99\n      jump\t// in\n    tag_142:\n        /* \"#utility.yul\":568:618   */\n      swap1\n      pop\n        /* \"#utility.yul\":485:624   */\n      swap2\n      swap1\n      pop\n      jump\t// out\n        /* \"#utility.yul\":630:787   */\n    tag_101:\n        /* \"#utility.yul\":730:780   */\n      tag_144\n        /* \"#utility.yul\":774:779   */\n      dup2\n        /* \"#utility.yul\":730:780   */\n      tag_100\n      jump\t// in\n    tag_144:\n        /* \"#utility.yul\":725:728   */\n      dup3\n        /* \"#utility.yul\":718:781   */\n      mstore\n        /* \"#utility.yul\":630:787   */\n      pop\n      pop\n      jump\t// out\n        /* \"#utility.yul\":793:1041   */\n    tag_14:\n        /* \"#utility.yul\":899:903   */\n      0x00\n        /* \"#utility.yul\":937:939   */\n      0x20\n        /* \"#utility.yul\":926:935   */\n      dup3\n        /* \"#utility.yul\":922:940   */\n      add\n        /* \"#utility.yul\":914:940   */\n      swap1\n      pop\n        /* \"#utility.yul\":950:1034   */\n      tag_146\n        /* \"#utility.yul\":1031:1032   */\n      0x00\n        /* \"#utility.yul\":1020:1029   */\n      dup4\n        /* \"#utility.yul\":1016:1033   */\n      add\n        /* \"#utility.yul\":1007:1013   */\n      dup5\n        /* \"#utility.yul\":950:1034   */\n      tag_101\n      jump\t// in\n    tag_146:\n        /* \"#utility.yul\":793:1041   */\n      swap3\n      swap2\n      pop\n      pop\n      jump\t// out\n        /* \"#utility.yul\":1128:1245   */\n    tag_103:\n        /* \"#utility.yul\":1237:1238   */\n      0x00\n        /* \"#utility.yul\":1234:1235   */\n      dup1\n        /* \"#utility.yul\":1227:1239   */\n      revert\n        /* \"#utility.yul\":1374:1451   */\n    tag_105:\n        /* \"#utility.yul\":1411:1418   */\n      0x00\n        /* \"#utility.yul\":1440:1445   */\n      dup2\n        /* \"#utility.yul\":1429:1445   */\n      swap1\n      pop\n        /* \"#utility.yul\":1374:1451   */\n      swap2\n      swap1\n      pop\n      jump\t// out\n        /* \"#utility.yul\":1457:1579   */\n    tag_106:\n        /* \"#utility.yul\":1530:1554   */\n      tag_152\n        /* \"#utility.yul\":1548:1553   */\n      dup2\n        /* \"#utility.yul\":1530:1554   */\n      tag_105\n      jump\t// in\n    tag_152:\n        /* \"#utility.yul\":1523:1528   */\n      dup2\n        /* \"#utility.yul\":1520:1555   */\n      eq\n        /* \"#utility.yul\":1510:1573   */\n      tag_153\n      jumpi\n        /* \"#utility.yul\":1569:1570   */\n      0x00\n        /* \"#utility.yul\":1566:1567   */\n      dup1\n        /* \"#utility.yul\":1559:1571   */\n      revert\n        /* \"#utility.yul\":1510:1573   */\n    tag_153:\n        /* \"#utility.yul\":1457:1579   */\n      pop\n      jump\t// out\n        /* \"#utility.yul\":1585:1724   */\n    tag_107:\n        /* \"#utility.yul\":1631:1636   */\n      0x00\n        /* \"#utility.yul\":1669:1675   */\n      dup2\n        /* \"#utility.yul\":1656:1676   */\n      calldataload\n        /* \"#utility.yul\":1647:1676   */\n      swap1\n      pop\n        /* \"#utility.yul\":1685:1718   */\n      tag_155\n        /* \"#utility.yul\":1712:1717   */\n      dup2\n        /* \"#utility.yul\":1685:1718   */\n      tag_106\n      jump\t// in\n    tag_155:\n        /* \"#utility.yul\":1585:1724   */\n      swap3\n      swap2\n      pop\n      pop\n      jump\t// out\n        /* \"#utility.yul\":1730:2059   */\n    tag_18:\n        /* \"#utility.yul\":1789:1795   */\n      0x00\n        /* \"#utility.yul\":1838:1840   */\n      0x20\n        /* \"#utility.yul\":1826:1835   */\n      dup3\n        /* \"#utility.yul\":1817:1824   */\n      dup5\n        /* \"#utility.yul\":1813:1836   */\n      sub\n        /* \"#utility.yul\":1809:1841   */\n      slt\n        /* \"#utility.yul\":1806:1925   */\n      iszero\n      tag_157\n      jumpi\n        /* \"#utility.yul\":1844:1923   */\n      tag_158\n      tag_103\n      jump\t// in\n    tag_158:\n        /* \"#utility.yul\":1806:1925   */\n    tag_157:\n        /* \"#utility.yul\":1964:1965   */\n      0x00\n        /* \"#utility.yul\":1989:2042   */\n      tag_159\n        /* \"#utility.yul\":2034:2041   */\n      dup5\n        /* \"#utility.yul\":2025:2031   */\n      dup3\n        /* \"#utility.yul\":2014:2023   */\n      dup6\n        /* \"#utility.yul\":2010:2032   */\n      add\n        /* \"#utility.yul\":1989:2042   */\n      tag_107\n      jump\t// in\n    tag_159:\n        /* \"#utility.yul\":1979:2042   */\n      swap2\n      pop\n        /* \"#utility.yul\":1935:2052   */\n      pop\n        /* \"#utility.yul\":1730:2059   */\n      swap3\n      swap2\n      pop\n      pop\n      jump\t// out\n        /* \"#utility.yul\":2065:2183   */\n    tag_108:\n        /* \"#utility.yul\":2152:2176   */\n      tag_161\n        /* \"#utility.yul\":2170:2175   */\n      dup2\n        /* \"#utility.yul\":2152:2176   */\n      tag_105\n      jump\t// in\n    tag_161:\n        /* \"#utility.yul\":2147:2150   */\n      dup3\n        /* \"#utility.yul\":2140:2177   */\n      mstore\n        /* \"#utility.yul\":2065:2183   */\n      pop\n      pop\n      jump\t// out\n        /* \"#utility.yul\":2189:2411   */\n    tag_28:\n        /* \"#utility.yul\":2282:2286   */\n      0x00\n        /* \"#utility.yul\":2320:2322   */\n      0x20\n        /* \"#utility.yul\":2309:2318   */\n      dup3\n        /* \"#utility.yul\":2305:2323   */\n      add\n        /* \"#utility.yul\":2297:2323   */\n      swap1\n      pop\n        /* \"#utility.yul\":2333:2404   */\n      tag_163\n        /* \"#utility.yul\":2401:2402   */\n      0x00\n        /* \"#utility.yul\":2390:2399   */\n      dup4\n        /* \"#utility.yul\":2386:2403   */\n      add\n        /* \"#utility.yul\":2377:2383   */\n      dup5\n        /* \"#utility.yul\":2333:2404   */\n      tag_108\n      jump\t// in\n    tag_163:\n        /* \"#utility.yul\":2189:2411   */\n      swap3\n      swap2\n      pop\n      pop\n      jump\t// out\n        /* \"#utility.yul\":2417:2513   */\n    tag_109:\n        /* \"#utility.yul\":2454:2461   */\n      0x00\n        /* \"#utility.yul\":2483:2507   */\n      tag_165\n        /* \"#utility.yul\":2501:2506   */\n      dup3\n        /* \"#utility.yul\":2483:2507   */\n      tag_96\n      jump\t// in\n    tag_165:\n        /* \"#utility.yul\":2472:2507   */\n      swap1\n      pop\n        /* \"#utility.yul\":2417:2513   */\n      swap2\n      swap1\n      pop\n      jump\t// out\n        /* \"#utility.yul\":2519:2637   */\n    tag_110:\n        /* \"#utility.yul\":2606:2630   */\n      tag_167\n        /* \"#utility.yul\":2624:2629   */\n      dup2\n        /* \"#utility.yul\":2606:2630   */\n      tag_109\n      jump\t// in\n    tag_167:\n        /* \"#utility.yul\":2601:2604   */\n      dup3\n        /* \"#utility.yul\":2594:2631   */\n      mstore\n        /* \"#utility.yul\":2519:2637   */\n      pop\n      pop\n      jump\t// out\n        /* \"#utility.yul\":2643:2865   */\n    tag_33:\n        /* \"#utility.yul\":2736:2740   */\n      0x00\n        /* \"#utility.yul\":2774:2776   */\n      0x20\n        /* \"#utility.yul\":2763:2772   */\n      dup3\n        /* \"#utility.yul\":2759:2777   */\n      add\n        /* \"#utility.yul\":2751:2777   */\n      swap1\n      pop\n        /* \"#utility.yul\":2787:2858   */\n      tag_169\n        /* \"#utility.yul\":2855:2856   */\n      0x00\n        /* \"#utility.yul\":2844:2853   */\n      dup4\n        /* \"#utility.yul\":2840:2857   */\n      add\n        /* \"#utility.yul\":2831:2837   */\n      dup5\n        /* \"#utility.yul\":2787:2858   */\n      tag_110\n      jump\t// in\n    tag_169:\n        /* \"#utility.yul\":2643:2865   */\n      swap3\n      swap2\n      pop\n      pop\n      jump\t// out\n        /* \"#utility.yul\":2871:2993   */\n    tag_111:\n        /* \"#utility.yul\":2944:2968   */\n      tag_171\n        /* \"#utility.yul\":2962:2967   */\n      dup2\n        /* \"#utility.yul\":2944:2968   */\n      tag_109\n      jump\t// in\n    tag_171:\n        /* \"#utility.yul\":2937:2942   */\n      dup2\n        /* \"#utility.yul\":2934:2969   */\n      eq\n        /* \"#utility.yul\":2924:2987   */\n      tag_172\n      jumpi\n        /* \"#utility.yul\":2983:2984   */\n      0x00\n        /* \"#utility.yul\":2980:2981   */\n      dup1\n        /* \"#utility.yul\":2973:2985   */\n      revert\n        /* \"#utility.yul\":2924:2987   */\n    tag_172:\n        /* \"#utility.yul\":2871:2993   */\n      pop\n      jump\t// out\n        /* \"#utility.yul\":2999:3138   */\n    tag_112:\n        /* \"#utility.yul\":3045:3050   */\n      0x00\n        /* \"#utility.yul\":3083:3089   */\n      dup2\n        /* \"#utility.yul\":3070:3090   */\n      calldataload\n        /* \"#utility.yul\":3061:3090   */\n      swap1\n      pop\n        /* \"#utility.yul\":3099:3132   */\n      tag_174\n        /* \"#utility.yul\":3126:3131   */\n      dup2\n        /* \"#utility.yul\":3099:3132   */\n      tag_111\n      jump\t// in\n    tag_174:\n        /* \"#utility.yul\":2999:3138   */\n      swap3\n      swap2\n      pop\n      pop\n      jump\t// out\n        /* \"#utility.yul\":3144:3473   */\n    tag_39:\n        /* \"#utility.yul\":3203:3209   */\n      0x00\n        /* \"#utility.yul\":3252:3254   */\n      0x20\n        /* \"#utility.yul\":3240:3249   */\n      dup3\n        /* \"#utility.yul\":3231:3238   */\n      dup5\n        /* \"#utility.yul\":3227:3250   */\n      sub\n        /* \"#utility.yul\":3223:3255   */\n      slt\n        /* \"#utility.yul\":3220:3339   */\n      iszero\n      tag_176\n      jumpi\n        /* \"#utility.yul\":3258:3337   */\n      tag_177\n      tag_103\n      jump\t// in\n    tag_177:\n        /* \"#utility.yul\":3220:3339   */\n    tag_176:\n        /* \"#utility.yul\":3378:3379   */\n      0x00\n        /* \"#utility.yul\":3403:3456   */\n      tag_178\n        /* \"#utility.yul\":3448:3455   */\n      dup5\n        /* \"#utility.yul\":3439:3445   */\n      dup3\n        /* \"#utility.yul\":3428:3437   */\n      dup6\n        /* \"#utility.yul\":3424:3446   */\n      add\n        /* \"#utility.yul\":3403:3456   */\n      tag_112\n      jump\t// in\n    tag_178:\n        /* \"#utility.yul\":3393:3456   */\n      swap2\n      pop\n        /* \"#utility.yul\":3349:3466   */\n      pop\n        /* \"#utility.yul\":3144:3473   */\n      swap3\n      swap2\n      pop\n      pop\n      jump\t// out\n        /* \"#utility.yul\":3479:3648   */\n    tag_113:\n        /* \"#utility.yul\":3563:3574   */\n      0x00\n        /* \"#utility.yul\":3597:3603   */\n      dup3\n        /* \"#utility.yul\":3592:3595   */\n      dup3\n        /* \"#utility.yul\":3585:3604   */\n      mstore\n        /* \"#utility.yul\":3637:3641   */\n      0x20\n        /* \"#utility.yul\":3632:3635   */\n      dup3\n        /* \"#utility.yul\":3628:3642   */\n      add\n        /* \"#utility.yul\":3613:3642   */\n      swap1\n      pop\n        /* \"#utility.yul\":3479:3648   */\n      swap3\n      swap2\n      pop\n      pop\n      jump\t// out\n        /* \"#utility.yul\":3654:3875   */\n    tag_114:\n        /* \"#utility.yul\":3794:3828   */\n      0x596f7070656e4445583a2063616c6c6572206973206e6f7420746865206f776e\n        /* \"#utility.yul\":3790:3791   */\n      0x00\n        /* \"#utility.yul\":3782:3788   */\n      dup3\n        /* \"#utility.yul\":3778:3792   */\n      add\n        /* \"#utility.yul\":3771:3829   */\n      mstore\n        /* \"#utility.yul\":3863:3867   */\n      0x6572000000000000000000000000000000000000000000000000000000000000\n        /* \"#utility.yul\":3858:3860   */\n      0x20\n        /* \"#utility.yul\":3850:3856   */\n      dup3\n        /* \"#utility.yul\":3846:3861   */\n      add\n        /* \"#utility.yul\":3839:3868   */\n      mstore\n        /* \"#utility.yul\":3654:3875   */\n      pop\n      jump\t// out\n        /* \"#utility.yul\":3881:4247   */\n    tag_115:\n        /* \"#utility.yul\":4023:4026   */\n      0x00\n        /* \"#utility.yul\":4044:4111   */\n      tag_182\n        /* \"#utility.yul\":4108:4110   */\n      0x22\n        /* \"#utility.yul\":4103:4106   */\n      dup4\n        /* \"#utility.yul\":4044:4111   */\n      tag_113\n      jump\t// in\n    tag_182:\n        /* \"#utility.yul\":4037:4111   */\n      swap2\n      pop\n        /* \"#utility.yul\":4120:4213   */\n      tag_183\n        /* \"#utility.yul\":4209:4212   */\n      dup3\n        /* \"#utility.yul\":4120:4213   */\n      tag_114\n      jump\t// in\n    tag_183:\n        /* \"#utility.yul\":4238:4240   */\n      0x40\n        /* \"#utility.yul\":4233:4236   */\n      dup3\n        /* \"#utility.yul\":4229:4241   */\n      add\n        /* \"#utility.yul\":4222:4241   */\n      swap1\n      pop\n        /* \"#utility.yul\":3881:4247   */\n      swap2\n      swap1\n      pop\n      jump\t// out\n        /* \"#utility.yul\":4253:4672   */\n    tag_44:\n        /* \"#utility.yul\":4419:4423   */\n      0x00\n        /* \"#utility.yul\":4457:4459   */\n      0x20\n        /* \"#utility.yul\":4446:4455   */\n      dup3\n        /* \"#utility.yul\":4442:4460   */\n      add\n        /* \"#utility.yul\":4434:4460   */\n      swap1\n      pop\n        /* \"#utility.yul\":4506:4515   */\n      dup2\n        /* \"#utility.yul\":4500:4504   */\n      dup2\n        /* \"#utility.yul\":4496:4516   */\n      sub\n        /* \"#utility.yul\":4492:4493   */\n      0x00\n        /* \"#utility.yul\":4481:4490   */\n      dup4\n        /* \"#utility.yul\":4477:4494   */\n      add\n        /* \"#utility.yul\":4470:4517   */\n      mstore\n        /* \"#utility.yul\":4534:4665   */\n      tag_185\n        /* \"#utility.yul\":4660:4664   */\n      dup2\n        /* \"#utility.yul\":4534:4665   */\n      tag_115\n      jump\t// in\n    tag_185:\n        /* \"#utility.yul\":4526:4665   */\n      swap1\n      pop\n        /* \"#utility.yul\":4253:4672   */\n      swap2\n      swap1\n      pop\n      jump\t// out\n        /* \"#utility.yul\":4678:4913   */\n    tag_116:\n        /* \"#utility.yul\":4818:4852   */\n      0x596f7070656e4445583a20596f75206e65656420746f2073656c6c206174206c\n        /* \"#utility.yul\":4814:4815   */\n      0x00\n        /* \"#utility.yul\":4806:4812   */\n      dup3\n        /* \"#utility.yul\":4802:4816   */\n      add\n        /* \"#utility.yul\":4795:4853   */\n      mstore\n        /* \"#utility.yul\":4887:4905   */\n      0x6561737420736f6d6520746f6b656e7300000000000000000000000000000000\n        /* \"#utility.yul\":4882:4884   */\n      0x20\n        /* \"#utility.yul\":4874:4880   */\n      dup3\n        /* \"#utility.yul\":4870:4885   */\n      add\n        /* \"#utility.yul\":4863:4906   */\n      mstore\n        /* \"#utility.yul\":4678:4913   */\n      pop\n      jump\t// out\n        /* \"#utility.yul\":4919:5285   */\n    tag_117:\n        /* \"#utility.yul\":5061:5064   */\n      0x00\n        /* \"#utility.yul\":5082:5149   */\n      tag_188\n        /* \"#utility.yul\":5146:5148   */\n      0x30\n        /* \"#utility.yul\":5141:5144   */\n      dup4\n        /* \"#utility.yul\":5082:5149   */\n      tag_113\n      jump\t// in\n    tag_188:\n        /* \"#utility.yul\":5075:5149   */\n      swap2\n      pop\n        /* \"#utility.yul\":5158:5251   */\n      tag_189\n        /* \"#utility.yul\":5247:5250   */\n      dup3\n        /* \"#utility.yul\":5158:5251   */\n      tag_116\n      jump\t// in\n    tag_189:\n        /* \"#utility.yul\":5276:5278   */\n      0x40\n        /* \"#utility.yul\":5271:5274   */\n      dup3\n        /* \"#utility.yul\":5267:5279   */\n      add\n        /* \"#utility.yul\":5260:5279   */\n      swap1\n      pop\n        /* \"#utility.yul\":4919:5285   */\n      swap2\n      swap1\n      pop\n      jump\t// out\n        /* \"#utility.yul\":5291:5710   */\n    tag_49:\n        /* \"#utility.yul\":5457:5461   */\n      0x00\n        /* \"#utility.yul\":5495:5497   */\n      0x20\n        /* \"#utility.yul\":5484:5493   */\n      dup3\n        /* \"#utility.yul\":5480:5498   */\n      add\n        /* \"#utility.yul\":5472:5498   */\n      swap1\n      pop\n        /* \"#utility.yul\":5544:5553   */\n      dup2\n        /* \"#utility.yul\":5538:5542   */\n      dup2\n        /* \"#utility.yul\":5534:5554   */\n      sub\n        /* \"#utility.yul\":5530:5531   */\n      0x00\n        /* \"#utility.yul\":5519:5528   */\n      dup4\n        /* \"#utility.yul\":5515:5532   */\n      add\n        /* \"#utility.yul\":5508:5555   */\n      mstore\n        /* \"#utility.yul\":5572:5703   */\n      tag_191\n        /* \"#utility.yul\":5698:5702   */\n      dup2\n        /* \"#utility.yul\":5572:5703   */\n      tag_117\n      jump\t// in\n    tag_191:\n        /* \"#utility.yul\":5564:5703   */\n      swap1\n      pop\n        /* \"#utility.yul\":5291:5710   */\n      swap2\n      swap1\n      pop\n      jump\t// out\n        /* \"#utility.yul\":5716:6048   */\n    tag_51:\n        /* \"#utility.yul\":5837:5841   */\n      0x00\n        /* \"#utility.yul\":5875:5877   */\n      0x40\n        /* \"#utility.yul\":5864:5873   */\n      dup3\n        /* \"#utility.yul\":5860:5878   */\n      add\n        /* \"#utility.yul\":5852:5878   */\n      swap1\n      pop\n        /* \"#utility.yul\":5888:5959   */\n      tag_193\n        /* \"#utility.yul\":5956:5957   */\n      0x00\n        /* \"#utility.yul\":5945:5954   */\n      dup4\n        /* \"#utility.yul\":5941:5958   */\n      add\n        /* \"#utility.yul\":5932:5938   */\n      dup6\n        /* \"#utility.yul\":5888:5959   */\n      tag_110\n      jump\t// in\n    tag_193:\n        /* \"#utility.yul\":5969:6041   */\n      tag_194\n        /* \"#utility.yul\":6037:6039   */\n      0x20\n        /* \"#utility.yul\":6026:6035   */\n      dup4\n        /* \"#utility.yul\":6022:6040   */\n      add\n        /* \"#utility.yul\":6013:6019   */\n      dup5\n        /* \"#utility.yul\":5969:6041   */\n      tag_110\n      jump\t// in\n    tag_194:\n        /* \"#utility.yul\":5716:6048   */\n      swap4\n      swap3\n      pop\n      pop\n      pop\n      jump\t// out\n        /* \"#utility.yul\":6054:6197   */\n    tag_118:\n        /* \"#utility.yul\":6111:6116   */\n      0x00\n        /* \"#utility.yul\":6142:6148   */\n      dup2\n        /* \"#utility.yul\":6136:6149   */\n      mload\n        /* \"#utility.yul\":6127:6149   */\n      swap1\n      pop\n        /* \"#utility.yul\":6158:6191   */\n      tag_196\n        /* \"#utility.yul\":6185:6190   */\n      dup2\n        /* \"#utility.yul\":6158:6191   */\n      tag_106\n      jump\t// in\n    tag_196:\n        /* \"#utility.yul\":6054:6197   */\n      swap3\n      swap2\n      pop\n      pop\n      jump\t// out\n        /* \"#utility.yul\":6203:6554   */\n    tag_55:\n        /* \"#utility.yul\":6273:6279   */\n      0x00\n        /* \"#utility.yul\":6322:6324   */\n      0x20\n        /* \"#utility.yul\":6310:6319   */\n      dup3\n        /* \"#utility.yul\":6301:6308   */\n      dup5\n        /* \"#utility.yul\":6297:6320   */\n      sub\n        /* \"#utility.yul\":6293:6325   */\n      slt\n        /* \"#utility.yul\":6290:6409   */\n      iszero\n      tag_198\n      jumpi\n        /* \"#utility.yul\":6328:6407   */\n      tag_199\n      tag_103\n      jump\t// in\n    tag_199:\n        /* \"#utility.yul\":6290:6409   */\n    tag_198:\n        /* \"#utility.yul\":6448:6449   */\n      0x00\n        /* \"#utility.yul\":6473:6537   */\n      tag_200\n        /* \"#utility.yul\":6529:6536   */\n      dup5\n        /* \"#utility.yul\":6520:6526   */\n      dup3\n        /* \"#utility.yul\":6509:6518   */\n      dup6\n        /* \"#utility.yul\":6505:6527   */\n      add\n        /* \"#utility.yul\":6473:6537   */\n      tag_118\n      jump\t// in\n    tag_200:\n        /* \"#utility.yul\":6463:6537   */\n      swap2\n      pop\n        /* \"#utility.yul\":6419:6547   */\n      pop\n        /* \"#utility.yul\":6203:6554   */\n      swap3\n      swap2\n      pop\n      pop\n      jump\t// out\n        /* \"#utility.yul\":6560:6783   */\n    tag_119:\n        /* \"#utility.yul\":6700:6734   */\n      0x596f7070656e4445583a20436865636b2074686520746f6b656e20616c6c6f77\n        /* \"#utility.yul\":6696:6697   */\n      0x00\n        /* \"#utility.yul\":6688:6694   */\n      dup3\n        /* \"#utility.yul\":6684:6698   */\n      add\n        /* \"#utility.yul\":6677:6735   */\n      mstore\n        /* \"#utility.yul\":6769:6775   */\n      0x616e636500000000000000000000000000000000000000000000000000000000\n        /* \"#utility.yul\":6764:6766   */\n      0x20\n        /* \"#utility.yul\":6756:6762   */\n      dup3\n        /* \"#utility.yul\":6752:6767   */\n      add\n        /* \"#utility.yul\":6745:6776   */\n      mstore\n        /* \"#utility.yul\":6560:6783   */\n      pop\n      jump\t// out\n        /* \"#utility.yul\":6789:7155   */\n    tag_120:\n        /* \"#utility.yul\":6931:6934   */\n      0x00\n        /* \"#utility.yul\":6952:7019   */\n      tag_203\n        /* \"#utility.yul\":7016:7018   */\n      0x24\n        /* \"#utility.yul\":7011:7014   */\n      dup4\n        /* \"#utility.yul\":6952:7019   */\n      tag_113\n      jump\t// in\n    tag_203:\n        /* \"#utility.yul\":6945:7019   */\n      swap2\n      pop\n        /* \"#utility.yul\":7028:7121   */\n      tag_204\n        /* \"#utility.yul\":7117:7120   */\n      dup3\n        /* \"#utility.yul\":7028:7121   */\n      tag_119\n      jump\t// in\n    tag_204:\n        /* \"#utility.yul\":7146:7148   */\n      0x40\n        /* \"#utility.yul\":7141:7144   */\n      dup3\n        /* \"#utility.yul\":7137:7149   */\n      add\n        /* \"#utility.yul\":7130:7149   */\n      swap1\n      pop\n        /* \"#utility.yul\":6789:7155   */\n      swap2\n      swap1\n      pop\n      jump\t// out\n        /* \"#utility.yul\":7161:7580   */\n    tag_58:\n        /* \"#utility.yul\":7327:7331   */\n      0x00\n        /* \"#utility.yul\":7365:7367   */\n      0x20\n        /* \"#utility.yul\":7354:7363   */\n      dup3\n        /* \"#utility.yul\":7350:7368   */\n      add\n        /* \"#utility.yul\":7342:7368   */\n      swap1\n      pop\n        /* \"#utility.yul\":7414:7423   */\n      dup2\n        /* \"#utility.yul\":7408:7412   */\n      dup2\n        /* \"#utility.yul\":7404:7424   */\n      sub\n        /* \"#utility.yul\":7400:7401   */\n      0x00\n        /* \"#utility.yul\":7389:7398   */\n      dup4\n        /* \"#utility.yul\":7385:7402   */\n      add\n        /* \"#utility.yul\":7378:7425   */\n      mstore\n        /* \"#utility.yul\":7442:7573   */\n      tag_206\n        /* \"#utility.yul\":7568:7572   */\n      dup2\n        /* \"#utility.yul\":7442:7573   */\n      tag_120\n      jump\t// in\n    tag_206:\n        /* \"#utility.yul\":7434:7573   */\n      swap1\n      pop\n        /* \"#utility.yul\":7161:7580   */\n      swap2\n      swap1\n      pop\n      jump\t// out\n        /* \"#utility.yul\":7586:8028   */\n    tag_60:\n        /* \"#utility.yul\":7735:7739   */\n      0x00\n        /* \"#utility.yul\":7773:7775   */\n      0x60\n        /* \"#utility.yul\":7762:7771   */\n      dup3\n        /* \"#utility.yul\":7758:7776   */\n      add\n        /* \"#utility.yul\":7750:7776   */\n      swap1\n      pop\n        /* \"#utility.yul\":7786:7857   */\n      tag_208\n        /* \"#utility.yul\":7854:7855   */\n      0x00\n        /* \"#utility.yul\":7843:7852   */\n      dup4\n        /* \"#utility.yul\":7839:7856   */\n      add\n        /* \"#utility.yul\":7830:7836   */\n      dup7\n        /* \"#utility.yul\":7786:7857   */\n      tag_110\n      jump\t// in\n    tag_208:\n        /* \"#utility.yul\":7867:7939   */\n      tag_209\n        /* \"#utility.yul\":7935:7937   */\n      0x20\n        /* \"#utility.yul\":7924:7933   */\n      dup4\n        /* \"#utility.yul\":7920:7938   */\n      add\n        /* \"#utility.yul\":7911:7917   */\n      dup6\n        /* \"#utility.yul\":7867:7939   */\n      tag_110\n      jump\t// in\n    tag_209:\n        /* \"#utility.yul\":7949:8021   */\n      tag_210\n        /* \"#utility.yul\":8017:8019   */\n      0x40\n        /* \"#utility.yul\":8006:8015   */\n      dup4\n        /* \"#utility.yul\":8002:8020   */\n      add\n        /* \"#utility.yul\":7993:7999   */\n      dup5\n        /* \"#utility.yul\":7949:8021   */\n      tag_108\n      jump\t// in\n    tag_210:\n        /* \"#utility.yul\":7586:8028   */\n      swap5\n      swap4\n      pop\n      pop\n      pop\n      pop\n      jump\t// out\n        /* \"#utility.yul\":8034:8124   */\n    tag_121:\n        /* \"#utility.yul\":8068:8075   */\n      0x00\n        /* \"#utility.yul\":8111:8116   */\n      dup2\n        /* \"#utility.yul\":8104:8117   */\n      iszero\n        /* \"#utility.yul\":8097:8118   */\n      iszero\n        /* \"#utility.yul\":8086:8118   */\n      swap1\n      pop\n        /* \"#utility.yul\":8034:8124   */\n      swap2\n      swap1\n      pop\n      jump\t// out\n        /* \"#utility.yul\":8130:8246   */\n    tag_122:\n        /* \"#utility.yul\":8200:8221   */\n      tag_213\n        /* \"#utility.yul\":8215:8220   */\n      dup2\n        /* \"#utility.yul\":8200:8221   */\n      tag_121\n      jump\t// in\n    tag_213:\n        /* \"#utility.yul\":8193:8198   */\n      dup2\n        /* \"#utility.yul\":8190:8222   */\n      eq\n        /* \"#utility.yul\":8180:8240   */\n      tag_214\n      jumpi\n        /* \"#utility.yul\":8236:8237   */\n      0x00\n        /* \"#utility.yul\":8233:8234   */\n      dup1\n        /* \"#utility.yul\":8226:8238   */\n      revert\n        /* \"#utility.yul\":8180:8240   */\n    tag_214:\n        /* \"#utility.yul\":8130:8246   */\n      pop\n      jump\t// out\n        /* \"#utility.yul\":8252:8389   */\n    tag_123:\n        /* \"#utility.yul\":8306:8311   */\n      0x00\n        /* \"#utility.yul\":8337:8343   */\n      dup2\n        /* \"#utility.yul\":8331:8344   */\n      mload\n        /* \"#utility.yul\":8322:8344   */\n      swap1\n      pop\n        /* \"#utility.yul\":8353:8383   */\n      tag_216\n        /* \"#utility.yul\":8377:8382   */\n      dup2\n        /* \"#utility.yul\":8353:8383   */\n      tag_122\n      jump\t// in\n    tag_216:\n        /* \"#utility.yul\":8252:8389   */\n      swap3\n      swap2\n      pop\n      pop\n      jump\t// out\n        /* \"#utility.yul\":8395:8740   */\n    tag_64:\n        /* \"#utility.yul\":8462:8468   */\n      0x00\n        /* \"#utility.yul\":8511:8513   */\n      0x20\n        /* \"#utility.yul\":8499:8508   */\n      dup3\n        /* \"#utility.yul\":8490:8497   */\n      dup5\n        /* \"#utility.yul\":8486:8509   */\n      sub\n        /* \"#utility.yul\":8482:8514   */\n      slt\n        /* \"#utility.yul\":8479:8598   */\n      iszero\n      tag_218\n      jumpi\n        /* \"#utility.yul\":8517:8596   */\n      tag_219\n      tag_103\n      jump\t// in\n    tag_219:\n        /* \"#utility.yul\":8479:8598   */\n    tag_218:\n        /* \"#utility.yul\":8637:8638   */\n      0x00\n        /* \"#utility.yul\":8662:8723   */\n      tag_220\n        /* \"#utility.yul\":8715:8722   */\n      dup5\n        /* \"#utility.yul\":8706:8712   */\n      dup3\n        /* \"#utility.yul\":8695:8704   */\n      dup6\n        /* \"#utility.yul\":8691:8713   */\n      add\n        /* \"#utility.yul\":8662:8723   */\n      tag_123\n      jump\t// in\n    tag_220:\n        /* \"#utility.yul\":8652:8723   */\n      swap2\n      pop\n        /* \"#utility.yul\":8608:8733   */\n      pop\n        /* \"#utility.yul\":8395:8740   */\n      swap3\n      swap2\n      pop\n      pop\n      jump\t// out\n        /* \"#utility.yul\":8746:8926   */\n    tag_124:\n        /* \"#utility.yul\":8794:8871   */\n      0x4e487b7100000000000000000000000000000000000000000000000000000000\n        /* \"#utility.yul\":8791:8792   */\n      0x00\n        /* \"#utility.yul\":8784:8872   */\n      mstore\n        /* \"#utility.yul\":8891:8895   */\n      0x11\n        /* \"#utility.yul\":8888:8889   */\n      0x04\n        /* \"#utility.yul\":8881:8896   */\n      mstore\n        /* \"#utility.yul\":8915:8919   */\n      0x24\n        /* \"#utility.yul\":8912:8913   */\n      0x00\n        /* \"#utility.yul\":8905:8920   */\n      revert\n        /* \"#utility.yul\":8932:9342   */\n    tag_66:\n        /* \"#utility.yul\":8972:8979   */\n      0x00\n        /* \"#utility.yul\":8995:9015   */\n      tag_223\n        /* \"#utility.yul\":9013:9014   */\n      dup3\n        /* \"#utility.yul\":8995:9015   */\n      tag_105\n      jump\t// in\n    tag_223:\n        /* \"#utility.yul\":8990:9015   */\n      swap2\n      pop\n        /* \"#utility.yul\":9029:9049   */\n      tag_224\n        /* \"#utility.yul\":9047:9048   */\n      dup4\n        /* \"#utility.yul\":9029:9049   */\n      tag_105\n      jump\t// in\n    tag_224:\n        /* \"#utility.yul\":9024:9049   */\n      swap3\n      pop\n        /* \"#utility.yul\":9084:9085   */\n      dup3\n        /* \"#utility.yul\":9081:9082   */\n      dup3\n        /* \"#utility.yul\":9077:9086   */\n      mul\n        /* \"#utility.yul\":9106:9136   */\n      tag_225\n        /* \"#utility.yul\":9124:9135   */\n      dup2\n        /* \"#utility.yul\":9106:9136   */\n      tag_105\n      jump\t// in\n    tag_225:\n        /* \"#utility.yul\":9095:9136   */\n      swap2\n      pop\n        /* \"#utility.yul\":9285:9286   */\n      dup3\n        /* \"#utility.yul\":9276:9283   */\n      dup3\n        /* \"#utility.yul\":9272:9287   */\n      div\n        /* \"#utility.yul\":9269:9270   */\n      dup5\n        /* \"#utility.yul\":9266:9288   */\n      eq\n        /* \"#utility.yul\":9246:9247   */\n      dup4\n        /* \"#utility.yul\":9239:9248   */\n      iszero\n        /* \"#utility.yul\":9219:9302   */\n      or\n        /* \"#utility.yul\":9196:9335   */\n      tag_226\n      jumpi\n        /* \"#utility.yul\":9315:9333   */\n      tag_227\n      tag_124\n      jump\t// in\n    tag_227:\n        /* \"#utility.yul\":9196:9335   */\n    tag_226:\n        /* \"#utility.yul\":8980:9342   */\n      pop\n        /* \"#utility.yul\":8932:9342   */\n      swap3\n      swap2\n      pop\n      pop\n      jump\t// out\n        /* \"#utility.yul\":9348:9528   */\n    tag_125:\n        /* \"#utility.yul\":9396:9473   */\n      0x4e487b7100000000000000000000000000000000000000000000000000000000\n        /* \"#utility.yul\":9393:9394   */\n      0x00\n        /* \"#utility.yul\":9386:9474   */\n      mstore\n        /* \"#utility.yul\":9493:9497   */\n      0x12\n        /* \"#utility.yul\":9490:9491   */\n      0x04\n        /* \"#utility.yul\":9483:9498   */\n      mstore\n        /* \"#utility.yul\":9517:9521   */\n      0x24\n        /* \"#utility.yul\":9514:9515   */\n      0x00\n        /* \"#utility.yul\":9507:9522   */\n      revert\n        /* \"#utility.yul\":9534:9719   */\n    tag_72:\n        /* \"#utility.yul\":9574:9575   */\n      0x00\n        /* \"#utility.yul\":9591:9611   */\n      tag_230\n        /* \"#utility.yul\":9609:9610   */\n      dup3\n        /* \"#utility.yul\":9591:9611   */\n      tag_105\n      jump\t// in\n    tag_230:\n        /* \"#utility.yul\":9586:9611   */\n      swap2\n      pop\n        /* \"#utility.yul\":9625:9645   */\n      tag_231\n        /* \"#utility.yul\":9643:9644   */\n      dup4\n        /* \"#utility.yul\":9625:9645   */\n      tag_105\n      jump\t// in\n    tag_231:\n        /* \"#utility.yul\":9620:9645   */\n      swap3\n      pop\n        /* \"#utility.yul\":9664:9665   */\n      dup3\n        /* \"#utility.yul\":9654:9689   */\n      tag_232\n      jumpi\n        /* \"#utility.yul\":9669:9687   */\n      tag_233\n      tag_125\n      jump\t// in\n    tag_233:\n        /* \"#utility.yul\":9654:9689   */\n    tag_232:\n        /* \"#utility.yul\":9711:9712   */\n      dup3\n        /* \"#utility.yul\":9708:9709   */\n      dup3\n        /* \"#utility.yul\":9704:9713   */\n      div\n        /* \"#utility.yul\":9699:9713   */\n      swap1\n      pop\n        /* \"#utility.yul\":9534:9719   */\n      swap3\n      swap2\n      pop\n      pop\n      jump\t// out\n        /* \"#utility.yul\":9725:9950   */\n    tag_126:\n        /* \"#utility.yul\":9865:9899   */\n      0x596f7070656e4445583a20596f75206e65656420746f2073656e6420736f6d65\n        /* \"#utility.yul\":9861:9862   */\n      0x00\n        /* \"#utility.yul\":9853:9859   */\n      dup3\n        /* \"#utility.yul\":9849:9863   */\n      add\n        /* \"#utility.yul\":9842:9900   */\n      mstore\n        /* \"#utility.yul\":9934:9942   */\n      0x2045746865720000000000000000000000000000000000000000000000000000\n        /* \"#utility.yul\":9929:9931   */\n      0x20\n        /* \"#utility.yul\":9921:9927   */\n      dup3\n        /* \"#utility.yul\":9917:9932   */\n      add\n        /* \"#utility.yul\":9910:9943   */\n      mstore\n        /* \"#utility.yul\":9725:9950   */\n      pop\n      jump\t// out\n        /* \"#utility.yul\":9956:10322   */\n    tag_127:\n        /* \"#utility.yul\":10098:10101   */\n      0x00\n        /* \"#utility.yul\":10119:10186   */\n      tag_236\n        /* \"#utility.yul\":10183:10185   */\n      0x26\n        /* \"#utility.yul\":10178:10181   */\n      dup4\n        /* \"#utility.yul\":10119:10186   */\n      tag_113\n      jump\t// in\n    tag_236:\n        /* \"#utility.yul\":10112:10186   */\n      swap2\n      pop\n        /* \"#utility.yul\":10195:10288   */\n      tag_237\n        /* \"#utility.yul\":10284:10287   */\n      dup3\n        /* \"#utility.yul\":10195:10288   */\n      tag_126\n      jump\t// in\n    tag_237:\n        /* \"#utility.yul\":10313:10315   */\n      0x40\n        /* \"#utility.yul\":10308:10311   */\n      dup3\n        /* \"#utility.yul\":10304:10316   */\n      add\n        /* \"#utility.yul\":10297:10316   */\n      swap1\n      pop\n        /* \"#utility.yul\":9956:10322   */\n      swap2\n      swap1\n      pop\n      jump\t// out\n        /* \"#utility.yul\":10328:10747   */\n    tag_79:\n        /* \"#utility.yul\":10494:10498   */\n      0x00\n        /* \"#utility.yul\":10532:10534   */\n      0x20\n        /* \"#utility.yul\":10521:10530   */\n      dup3\n        /* \"#utility.yul\":10517:10535   */\n      add\n        /* \"#utility.yul\":10509:10535   */\n      swap1\n      pop\n        /* \"#utility.yul\":10581:10590   */\n      dup2\n        /* \"#utility.yul\":10575:10579   */\n      dup2\n        /* \"#utility.yul\":10571:10591   */\n      sub\n        /* \"#utility.yul\":10567:10568   */\n      0x00\n        /* \"#utility.yul\":10556:10565   */\n      dup4\n        /* \"#utility.yul\":10552:10569   */\n      add\n        /* \"#utility.yul\":10545:10592   */\n      mstore\n        /* \"#utility.yul\":10609:10740   */\n      tag_239\n        /* \"#utility.yul\":10735:10739   */\n      dup2\n        /* \"#utility.yul\":10609:10740   */\n      tag_127\n      jump\t// in\n    tag_239:\n        /* \"#utility.yul\":10601:10740   */\n      swap1\n      pop\n        /* \"#utility.yul\":10328:10747   */\n      swap2\n      swap1\n      pop\n      jump\t// out\n        /* \"#utility.yul\":10753:10983   */\n    tag_128:\n        /* \"#utility.yul\":10893:10927   */\n      0x596f7070656e4445583a204e6f7420656e6f75676820746f6b656e7320696e20\n        /* \"#utility.yul\":10889:10890   */\n      0x00\n        /* \"#utility.yul\":10881:10887   */\n      dup3\n        /* \"#utility.yul\":10877:10891   */\n      add\n        /* \"#utility.yul\":10870:10928   */\n      mstore\n        /* \"#utility.yul\":10962:10975   */\n      0x7468652072657365727665000000000000000000000000000000000000000000\n        /* \"#utility.yul\":10957:10959   */\n      0x20\n        /* \"#utility.yul\":10949:10955   */\n      dup3\n        /* \"#utility.yul\":10945:10960   */\n      add\n        /* \"#utility.yul\":10938:10976   */\n      mstore\n        /* \"#utility.yul\":10753:10983   */\n      pop\n      jump\t// out\n        /* \"#utility.yul\":10989:11355   */\n    tag_129:\n        /* \"#utility.yul\":11131:11134   */\n      0x00\n        /* \"#utility.yul\":11152:11219   */\n      tag_242\n        /* \"#utility.yul\":11216:11218   */\n      0x2b\n        /* \"#utility.yul\":11211:11214   */\n      dup4\n        /* \"#utility.yul\":11152:11219   */\n      tag_113\n      jump\t// in\n    tag_242:\n        /* \"#utility.yul\":11145:11219   */\n      swap2\n      pop\n        /* \"#utility.yul\":11228:11321   */\n      tag_243\n        /* \"#utility.yul\":11317:11320   */\n      dup3\n        /* \"#utility.yul\":11228:11321   */\n      tag_128\n      jump\t// in\n    tag_243:\n        /* \"#utility.yul\":11346:11348   */\n      0x40\n        /* \"#utility.yul\":11341:11344   */\n      dup3\n        /* \"#utility.yul\":11337:11349   */\n      add\n        /* \"#utility.yul\":11330:11349   */\n      swap1\n      pop\n        /* \"#utility.yul\":10989:11355   */\n      swap2\n      swap1\n      pop\n      jump\t// out\n        /* \"#utility.yul\":11361:11780   */\n    tag_82:\n        /* \"#utility.yul\":11527:11531   */\n      0x00\n        /* \"#utility.yul\":11565:11567   */\n      0x20\n        /* \"#utility.yul\":11554:11563   */\n      dup3\n        /* \"#utility.yul\":11550:11568   */\n      add\n        /* \"#utility.yul\":11542:11568   */\n      swap1\n      pop\n        /* \"#utility.yul\":11614:11623   */\n      dup2\n        /* \"#utility.yul\":11608:11612   */\n      dup2\n        /* \"#utility.yul\":11604:11624   */\n      sub\n        /* \"#utility.yul\":11600:11601   */\n      0x00\n        /* \"#utility.yul\":11589:11598   */\n      dup4\n        /* \"#utility.yul\":11585:11602   */\n      add\n        /* \"#utility.yul\":11578:11625   */\n      mstore\n        /* \"#utility.yul\":11642:11773   */\n      tag_245\n        /* \"#utility.yul\":11768:11772   */\n      dup2\n        /* \"#utility.yul\":11642:11773   */\n      tag_129\n      jump\t// in\n    tag_245:\n        /* \"#utility.yul\":11634:11773   */\n      swap1\n      pop\n        /* \"#utility.yul\":11361:11780   */\n      swap2\n      swap1\n      pop\n      jump\t// out\n        /* \"#utility.yul\":11786:12118   */\n    tag_84:\n        /* \"#utility.yul\":11907:11911   */\n      0x00\n        /* \"#utility.yul\":11945:11947   */\n      0x40\n        /* \"#utility.yul\":11934:11943   */\n      dup3\n        /* \"#utility.yul\":11930:11948   */\n      add\n        /* \"#utility.yul\":11922:11948   */\n      swap1\n      pop\n        /* \"#utility.yul\":11958:12029   */\n      tag_247\n        /* \"#utility.yul\":12026:12027   */\n      0x00\n        /* \"#utility.yul\":12015:12024   */\n      dup4\n        /* \"#utility.yul\":12011:12028   */\n      add\n        /* \"#utility.yul\":12002:12008   */\n      dup6\n        /* \"#utility.yul\":11958:12029   */\n      tag_110\n      jump\t// in\n    tag_247:\n        /* \"#utility.yul\":12039:12111   */\n      tag_248\n        /* \"#utility.yul\":12107:12109   */\n      0x20\n        /* \"#utility.yul\":12096:12105   */\n      dup4\n        /* \"#utility.yul\":12092:12110   */\n      add\n        /* \"#utility.yul\":12083:12089   */\n      dup5\n        /* \"#utility.yul\":12039:12111   */\n      tag_108\n      jump\t// in\n    tag_248:\n        /* \"#utility.yul\":11786:12118   */\n      swap4\n      swap3\n      pop\n      pop\n      pop\n      jump\t// out\n        /* \"#utility.yul\":12124:12351   */\n    tag_130:\n        /* \"#utility.yul\":12264:12298   */\n      0x596f7070656e4445583a206e6577206f776e657220697320746865207a65726f\n        /* \"#utility.yul\":12260:12261   */\n      0x00\n        /* \"#utility.yul\":12252:12258   */\n      dup3\n        /* \"#utility.yul\":12248:12262   */\n      add\n        /* \"#utility.yul\":12241:12299   */\n      mstore\n        /* \"#utility.yul\":12333:12343   */\n      0x2061646472657373000000000000000000000000000000000000000000000000\n        /* \"#utility.yul\":12328:12330   */\n      0x20\n        /* \"#utility.yul\":12320:12326   */\n      dup3\n        /* \"#utility.yul\":12316:12331   */\n      add\n        /* \"#utility.yul\":12309:12344   */\n      mstore\n        /* \"#utility.yul\":12124:12351   */\n      pop\n      jump\t// out\n        /* \"#utility.yul\":12357:12723   */\n    tag_131:\n        /* \"#utility.yul\":12499:12502   */\n      0x00\n        /* \"#utility.yul\":12520:12587   */\n      tag_251\n        /* \"#utility.yul\":12584:12586   */\n      0x28\n        /* \"#utility.yul\":12579:12582   */\n      dup4\n        /* \"#utility.yul\":12520:12587   */\n      tag_113\n      jump\t// in\n    tag_251:\n        /* \"#utility.yul\":12513:12587   */\n      swap2\n      pop\n        /* \"#utility.yul\":12596:12689   */\n      tag_252\n        /* \"#utility.yul\":12685:12688   */\n      dup3\n        /* \"#utility.yul\":12596:12689   */\n      tag_130\n      jump\t// in\n    tag_252:\n        /* \"#utility.yul\":12714:12716   */\n      0x40\n        /* \"#utility.yul\":12709:12712   */\n      dup3\n        /* \"#utility.yul\":12705:12717   */\n      add\n        /* \"#utility.yul\":12698:12717   */\n      swap1\n      pop\n        /* \"#utility.yul\":12357:12723   */\n      swap2\n      swap1\n      pop\n      jump\t// out\n        /* \"#utility.yul\":12729:13148   */\n    tag_95:\n        /* \"#utility.yul\":12895:12899   */\n      0x00\n        /* \"#utility.yul\":12933:12935   */\n      0x20\n        /* \"#utility.yul\":12922:12931   */\n      dup3\n        /* \"#utility.yul\":12918:12936   */\n      add\n        /* \"#utility.yul\":12910:12936   */\n      swap1\n      pop\n        /* \"#utility.yul\":12982:12991   */\n      dup2\n        /* \"#utility.yul\":12976:12980   */\n      dup2\n        /* \"#utility.yul\":12972:12992   */\n      sub\n        /* \"#utility.yul\":12968:12969   */\n      0x00\n        /* \"#utility.yul\":12957:12966   */\n      dup4\n        /* \"#utility.yul\":12953:12970   */\n      add\n        /* \"#utility.yul\":12946:12993   */\n      mstore\n        /* \"#utility.yul\":13010:13141   */\n      tag_254\n        /* \"#utility.yul\":13136:13140   */\n      dup2\n        /* \"#utility.yul\":13010:13141   */\n      tag_131\n      jump\t// in\n    tag_254:\n        /* \"#utility.yul\":13002:13141   */\n      swap1\n      pop\n        /* \"#utility.yul\":12729:13148   */\n      swap2\n      swap1\n      pop\n      jump\t// out\n\n    auxdata: 0xa2646970667358221220e79e401ae6ca4186b94e1eb7c3330acbe736426096907140149de998364c55c564736f6c63430008180033\n}\n",
				"bytecode": {
					"linkReferences": {},
					"object": "608060405234801562000010575f80fd5b5060405162001215380380620012158339818101604052810190620000369190620001d2565b5f73ffffffffffffffffffffffffffffffffffffffff168273ffffffffffffffffffffffffffffffffffffffff1603620000a7576040517f08c379a00000000000000000000000000000000000000000000000000000000081526004016200009e906200029b565b60405180910390fd5b815f806101000a81548173ffffffffffffffffffffffffffffffffffffffff021916908373ffffffffffffffffffffffffffffffffffffffff160217905550806002819055503360015f6101000a81548173ffffffffffffffffffffffffffffffffffffffff021916908373ffffffffffffffffffffffffffffffffffffffff1602179055505050620002bb565b5f80fd5b5f73ffffffffffffffffffffffffffffffffffffffff82169050919050565b5f620001648262000139565b9050919050565b620001768162000158565b811462000181575f80fd5b50565b5f8151905062000194816200016b565b92915050565b5f819050919050565b620001ae816200019a565b8114620001b9575f80fd5b50565b5f81519050620001cc81620001a3565b92915050565b5f8060408385031215620001eb57620001ea62000135565b5b5f620001fa8582860162000184565b92505060206200020d85828601620001bc565b9150509250929050565b5f82825260208201905092915050565b7f596f7070656e4445583a20746f6b656e206164647265737320697320746865205f8201527f7a65726f20616464726573730000000000000000000000000000000000000000602082015250565b5f62000283602c8362000217565b9150620002908262000227565b604082019050919050565b5f6020820190508181035f830152620002b48162000275565b9050919050565b610f4c80620002c95f395ff3fe60806040526004361061006f575f3560e01c80637ff9b5961161004d5780637ff9b596146100ed5780638da5cb5b14610117578063d0febe4c14610141578063f2fde38b1461014b5761006f565b80633fa36d9f146100735780636a61e5fc1461009d5780636c11bcd3146100c5575b5f80fd5b34801561007e575f80fd5b50610087610173565b6040516100949190610894565b60405180910390f35b3480156100a8575f80fd5b506100c360048036038101906100be91906108e4565b610196565b005b3480156100d0575f80fd5b506100eb60048036038101906100e691906108e4565b61022f565b005b3480156100f8575f80fd5b50610101610491565b60405161010e919061091e565b60405180910390f35b348015610122575f80fd5b5061012b610497565b6040516101389190610957565b60405180910390f35b6101496104bc565b005b348015610156575f80fd5b50610171600480360381019061016c919061099a565b6106da565b005b5f8054906101000a900473ffffffffffffffffffffffffffffffffffffffff1681565b60015f9054906101000a900473ffffffffffffffffffffffffffffffffffffffff1673ffffffffffffffffffffffffffffffffffffffff163373ffffffffffffffffffffffffffffffffffffffff1614610225576040517f08c379a000000000000000000000000000000000000000000000000000000000815260040161021c90610a45565b60405180910390fd5b8060028190555050565b5f8111610271576040517f08c379a000000000000000000000000000000000000000000000000000000000815260040161026890610ad3565b60405180910390fd5b5f805f9054906101000a900473ffffffffffffffffffffffffffffffffffffffff1673ffffffffffffffffffffffffffffffffffffffff1663dd62ed3e33306040518363ffffffff1660e01b81526004016102cd929190610af1565b602060405180830381865afa1580156102e8573d5f803e3d5ffd5b505050506040513d601f19601f8201168201806040525081019061030c9190610b2c565b905081811015610351576040517f08c379a000000000000000000000000000000000000000000000000000000000815260040161034890610bc7565b60405180910390fd5b5f8054906101000a900473ffffffffffffffffffffffffffffffffffffffff1673ffffffffffffffffffffffffffffffffffffffff166323b872dd3330856040518463ffffffff1660e01b81526004016103ad93929190610be5565b6020604051808303815f875af11580156103c9573d5f803e3d5ffd5b505050506040513d601f19601f820116820180604052508101906103ed9190610c4f565b503373ffffffffffffffffffffffffffffffffffffffff166108fc600254846104169190610ca7565b90811502906040515f60405180830381858888f1935050505015801561043e573d5f803e3d5ffd5b503373ffffffffffffffffffffffffffffffffffffffff167fae92ab4b6f8f401ead768d3273e6bb937a13e39827d19c6376e8fd4512a05d9a83604051610485919061091e565b60405180910390a25050565b60025481565b60015f9054906101000a900473ffffffffffffffffffffffffffffffffffffffff1681565b5f600254346104cb9190610d15565b90505f805f9054906101000a900473ffffffffffffffffffffffffffffffffffffffff1673ffffffffffffffffffffffffffffffffffffffff166370a08231306040518263ffffffff1660e01b81526004016105279190610957565b602060405180830381865afa158015610542573d5f803e3d5ffd5b505050506040513d601f19601f820116820180604052508101906105669190610b2c565b90505f82116105aa576040517f08c379a00000000000000000000000000000000000000000000000000000000081526004016105a190610db5565b60405180910390fd5b808211156105ed576040517f08c379a00000000000000000000000000000000000000000000000000000000081526004016105e490610e43565b60405180910390fd5b5f8054906101000a900473ffffffffffffffffffffffffffffffffffffffff1673ffffffffffffffffffffffffffffffffffffffff1663a9059cbb33846040518363ffffffff1660e01b8152600401610647929190610e61565b6020604051808303815f875af1158015610663573d5f803e3d5ffd5b505050506040513d601f19601f820116820180604052508101906106879190610c4f565b503373ffffffffffffffffffffffffffffffffffffffff167fc55650ccda1011e1cdc769b1fbf546ebb8c97800b6072b49e06cd560305b1d67836040516106ce919061091e565b60405180910390a25050565b60015f9054906101000a900473ffffffffffffffffffffffffffffffffffffffff1673ffffffffffffffffffffffffffffffffffffffff163373ffffffffffffffffffffffffffffffffffffffff1614610769576040517f08c379a000000000000000000000000000000000000000000000000000000000815260040161076090610a45565b60405180910390fd5b5f73ffffffffffffffffffffffffffffffffffffffff168173ffffffffffffffffffffffffffffffffffffffff16036107d7576040517f08c379a00000000000000000000000000000000000000000000000000000000081526004016107ce90610ef8565b60405180910390fd5b8060015f6101000a81548173ffffffffffffffffffffffffffffffffffffffff021916908373ffffffffffffffffffffffffffffffffffffffff16021790555050565b5f73ffffffffffffffffffffffffffffffffffffffff82169050919050565b5f819050919050565b5f61085c6108576108528461081a565b610839565b61081a565b9050919050565b5f61086d82610842565b9050919050565b5f61087e82610863565b9050919050565b61088e81610874565b82525050565b5f6020820190506108a75f830184610885565b92915050565b5f80fd5b5f819050919050565b6108c3816108b1565b81146108cd575f80fd5b50565b5f813590506108de816108ba565b92915050565b5f602082840312156108f9576108f86108ad565b5b5f610906848285016108d0565b91505092915050565b610918816108b1565b82525050565b5f6020820190506109315f83018461090f565b92915050565b5f6109418261081a565b9050919050565b61095181610937565b82525050565b5f60208201905061096a5f830184610948565b92915050565b61097981610937565b8114610983575f80fd5b50565b5f8135905061099481610970565b92915050565b5f602082840312156109af576109ae6108ad565b5b5f6109bc84828501610986565b91505092915050565b5f82825260208201905092915050565b7f596f7070656e4445583a2063616c6c6572206973206e6f7420746865206f776e5f8201527f6572000000000000000000000000000000000000000000000000000000000000602082015250565b5f610a2f6022836109c5565b9150610a3a826109d5565b604082019050919050565b5f6020820190508181035f830152610a5c81610a23565b9050919050565b7f596f7070656e4445583a20596f75206e65656420746f2073656c6c206174206c5f8201527f6561737420736f6d6520746f6b656e7300000000000000000000000000000000602082015250565b5f610abd6030836109c5565b9150610ac882610a63565b604082019050919050565b5f6020820190508181035f830152610aea81610ab1565b9050919050565b5f604082019050610b045f830185610948565b610b116020830184610948565b9392505050565b5f81519050610b26816108ba565b92915050565b5f60208284031215610b4157610b406108ad565b5b5f610b4e84828501610b18565b91505092915050565b7f596f7070656e4445583a20436865636b2074686520746f6b656e20616c6c6f775f8201527f616e636500000000000000000000000000000000000000000000000000000000602082015250565b5f610bb16024836109c5565b9150610bbc82610b57565b604082019050919050565b5f6020820190508181035f830152610bde81610ba5565b9050919050565b5f606082019050610bf85f830186610948565b610c056020830185610948565b610c12604083018461090f565b949350505050565b5f8115159050919050565b610c2e81610c1a565b8114610c38575f80fd5b50565b5f81519050610c4981610c25565b92915050565b5f60208284031215610c6457610c636108ad565b5b5f610c7184828501610c3b565b91505092915050565b7f4e487b71000000000000000000000000000000000000000000000000000000005f52601160045260245ffd5b5f610cb1826108b1565b9150610cbc836108b1565b9250828202610cca816108b1565b91508282048414831517610ce157610ce0610c7a565b5b5092915050565b7f4e487b71000000000000000000000000000000000000000000000000000000005f52601260045260245ffd5b5f610d1f826108b1565b9150610d2a836108b1565b925082610d3a57610d39610ce8565b5b828204905092915050565b7f596f7070656e4445583a20596f75206e65656420746f2073656e6420736f6d655f8201527f2045746865720000000000000000000000000000000000000000000000000000602082015250565b5f610d9f6026836109c5565b9150610daa82610d45565b604082019050919050565b5f6020820190508181035f830152610dcc81610d93565b9050919050565b7f596f7070656e4445583a204e6f7420656e6f75676820746f6b656e7320696e205f8201527f7468652072657365727665000000000000000000000000000000000000000000602082015250565b5f610e2d602b836109c5565b9150610e3882610dd3565b604082019050919050565b5f6020820190508181035f830152610e5a81610e21565b9050919050565b5f604082019050610e745f830185610948565b610e81602083018461090f565b9392505050565b7f596f7070656e4445583a206e6577206f776e657220697320746865207a65726f5f8201527f2061646472657373000000000000000000000000000000000000000000000000602082015250565b5f610ee26028836109c5565b9150610eed82610e88565b604082019050919050565b5f6020820190508181035f830152610f0f81610ed6565b905091905056fea2646970667358221220e79e401ae6ca4186b94e1eb7c3330acbe736426096907140149de998364c55c564736f6c63430008180033",
					"opcodes": "PUSH1 0x80 PUSH1 0x40 MSTORE CALLVALUE DUP1 ISZERO PUSH3 0x10 JUMPI PUSH0 DUP1 REVERT JUMPDEST POP PUSH1 0x40 MLOAD PUSH3 0x1215 CODESIZE SUB DUP1 PUSH3 0x1215 DUP4 CODECOPY DUP2 DUP2 ADD PUSH1 0x40 MSTORE DUP2 ADD SWAP1 PUSH3 0x36 SWAP2 SWAP1 PUSH3 0x1D2 JUMP JUMPDEST PUSH0 PUSH20 0xFFFFFFFFFFFFFFFFFFFFFFFFFFFFFFFFFFFFFFFF AND DUP3 PUSH20 0xFFFFFFFFFFFFFFFFFFFFFFFFFFFFFFFFFFFFFFFF AND SUB PUSH3 0xA7 JUMPI PUSH1 0x40 MLOAD PUSH32 0x8C379A000000000000000000000000000000000000000000000000000000000 DUP2 MSTORE PUSH1 0x4 ADD PUSH3 0x9E SWAP1 PUSH3 0x29B JUMP JUMPDEST PUSH1 0x40 MLOAD DUP1 SWAP2 SUB SWAP1 REVERT JUMPDEST DUP2 PUSH0 DUP1 PUSH2 0x100 EXP DUP2 SLOAD DUP2 PUSH20 0xFFFFFFFFFFFFFFFFFFFFFFFFFFFFFFFFFFFFFFFF MUL NOT AND SWAP1 DUP4 PUSH20 0xFFFFFFFFFFFFFFFFFFFFFFFFFFFFFFFFFFFFFFFF AND MUL OR SWAP1 SSTORE POP DUP1 PUSH1 0x2 DUP2 SWAP1 SSTORE POP CALLER PUSH1 0x1 PUSH0 PUSH2 0x100 EXP DUP2 SLOAD DUP2 PUSH20 0xFFFFFFFFFFFFFFFFFFFFFFFFFFFFFFFFFFFFFFFF MUL NOT AND SWAP1 DUP4 PUSH20 0xFFFFFFFFFFFFFFFFFFFFFFFFFFFFFFFFFFFFFFFF AND MUL OR SWAP1 SSTORE POP POP POP PUSH3 0x2BB JUMP JUMPDEST PUSH0 DUP1 REVERT JUMPDEST PUSH0 PUSH20 0xFFFFFFFFFFFFFFFFFFFFFFFFFFFFFFFFFFFFFFFF DUP3 AND SWAP1 POP SWAP2 SWAP1 POP JUMP JUMPDEST PUSH0 PUSH3 0x164 DUP3 PUSH3 0x139 JUMP JUMPDEST SWAP1 POP SWAP2 SWAP1 POP JUMP JUMPDEST PUSH3 0x176 DUP2 PUSH3 0x158 JUMP JUMPDEST DUP2 EQ PUSH3 0x181 JUMPI PUSH0 DUP1 REVERT JUMPDEST POP JUMP JUMPDEST PUSH0 DUP2 MLOAD SWAP1 POP PUSH3 0x194 DUP2 PUSH3 0x16B JUMP JUMPDEST SWAP3 SWAP2 POP POP JUMP JUMPDEST PUSH0 DUP2 SWAP1 POP SWAP2 SWAP1 POP JUMP JUMPDEST PUSH3 0x1AE DUP2 PUSH3 0x19A JUMP JUMPDEST DUP2 EQ PUSH3 0x1B9 JUMPI PUSH0 DUP1 REVERT JUMPDEST POP JUMP JUMPDEST PUSH0 DUP2 MLOAD SWAP1 POP PUSH3 0x1CC DUP2 PUSH3 0x1A3 JUMP JUMPDEST SWAP3 SWAP2 POP POP JUMP JUMPDEST PUSH0 DUP1 PUSH1 0x40 DUP4 DUP6 SUB SLT ISZERO PUSH3 0x1EB JUMPI PUSH3 0x1EA PUSH3 0x135 JUMP JUMPDEST JUMPDEST PUSH0 PUSH3 0x1FA DUP6 DUP3 DUP7 ADD PUSH3 0x184 JUMP JUMPDEST SWAP3 POP POP PUSH1 0x20 PUSH3 0x20D DUP6 DUP3 DUP7 ADD PUSH3 0x1BC JUMP JUMPDEST SWAP2 POP POP SWAP3 POP SWAP3 SWAP1 POP JUMP JUMPDEST PUSH0 DUP3 DUP3 MSTORE PUSH1 0x20 DUP3 ADD SWAP1 POP SWAP3 SWAP2 POP POP JUMP JUMPDEST PUSH32 0x596F7070656E4445583A20746F6B656E20616464726573732069732074686520 PUSH0 DUP3 ADD MSTORE PUSH32 0x7A65726F20616464726573730000000000000000000000000000000000000000 PUSH1 0x20 DUP3 ADD MSTORE POP JUMP JUMPDEST PUSH0 PUSH3 0x283 PUSH1 0x2C DUP4 PUSH3 0x217 JUMP JUMPDEST SWAP2 POP PUSH3 0x290 DUP3 PUSH3 0x227 JUMP JUMPDEST PUSH1 0x40 DUP3 ADD SWAP1 POP SWAP2 SWAP1 POP JUMP JUMPDEST PUSH0 PUSH1 0x20 DUP3 ADD SWAP1 POP DUP2 DUP2 SUB PUSH0 DUP4 ADD MSTORE PUSH3 0x2B4 DUP2 PUSH3 0x275 JUMP JUMPDEST SWAP1 POP SWAP2 SWAP1 POP JUMP JUMPDEST PUSH2 0xF4C DUP1 PUSH3 0x2C9 PUSH0 CODECOPY PUSH0 RETURN INVALID PUSH1 0x80 PUSH1 0x40 MSTORE PUSH1 0x4 CALLDATASIZE LT PUSH2 0x6F JUMPI PUSH0 CALLDATALOAD PUSH1 0xE0 SHR DUP1 PUSH4 0x7FF9B596 GT PUSH2 0x4D JUMPI DUP1 PUSH4 0x7FF9B596 EQ PUSH2 0xED JUMPI DUP1 PUSH4 0x8DA5CB5B EQ PUSH2 0x117 JUMPI DUP1 PUSH4 0xD0FEBE4C EQ PUSH2 0x141 JUMPI DUP1 PUSH4 0xF2FDE38B EQ PUSH2 0x14B JUMPI PUSH2 0x6F JUMP JUMPDEST DUP1 PUSH4 0x3FA36D9F EQ PUSH2 0x73 JUMPI DUP1 PUSH4 0x6A61E5FC EQ PUSH2 0x9D JUMPI DUP1 PUSH4 0x6C11BCD3 EQ PUSH2 0xC5 JUMPI JUMPDEST PUSH0 DUP1 REVERT JUMPDEST CALLVALUE DUP1 ISZERO PUSH2 0x7E JUMPI PUSH0 DUP1 REVERT JUMPDEST POP PUSH2 0x87 PUSH2 0x173 JUMP JUMPDEST PUSH1 0x40 MLOAD PUSH2 0x94 SWAP2 SWAP1 PUSH2 0x894 JUMP JUMPDEST PUSH1 0x40 MLOAD DUP1 SWAP2 SUB SWAP1 RETURN JUMPDEST CALLVALUE DUP1 ISZERO PUSH2 0xA8 JUMPI PUSH0 DUP1 REVERT JUMPDEST POP PUSH2 0xC3 PUSH1 0x4 DUP1 CALLDATASIZE SUB DUP2 ADD SWAP1 PUSH2 0xBE SWAP2 SWAP1 PUSH2 0x8E4 JUMP JUMPDEST PUSH2 0x196 JUMP JUMPDEST STOP JUMPDEST CALLVALUE DUP1 ISZERO PUSH2 0xD0 JUMPI PUSH0 DUP1 REVERT JUMPDEST POP PUSH2 0xEB PUSH1 0x4 DUP1 CALLDATASIZE SUB DUP2 ADD SWAP1 PUSH2 0xE6 SWAP2 SWAP1 PUSH2 0x8E4 JUMP JUMPDEST PUSH2 0x22F JUMP JUMPDEST STOP JUMPDEST CALLVALUE DUP1 ISZERO PUSH2 0xF8 JUMPI PUSH0 DUP1 REVERT JUMPDEST POP PUSH2 0x101 PUSH2 0x491 JUMP JUMPDEST PUSH1 0x40 MLOAD PUSH2 0x10E SWAP2 SWAP1 PUSH2 0x91E JUMP JUMPDEST PUSH1 0x40 MLOAD DUP1 SWAP2 SUB SWAP1 RETURN JUMPDEST CALLVALUE DUP1 ISZERO PUSH2 0x122 JUMPI PUSH0 DUP1 REVERT JUMPDEST POP PUSH2 0x12B PUSH2 0x497 JUMP JUMPDEST PUSH1 0x40 MLOAD PUSH2 0x138 SWAP2 SWAP1 PUSH2 0x957 JUMP JUMPDEST PUSH1 0x40 MLOAD DUP1 SWAP2 SUB SWAP1 RETURN JUMPDEST PUSH2 0x149 PUSH2 0x4BC JUMP JUMPDEST STOP JUMPDEST CALLVALUE DUP1 ISZERO PUSH2 0x156 JUMPI PUSH0 DUP1 REVERT JUMPDEST POP PUSH2 0x171 PUSH1 0x4 DUP1 CALLDATASIZE SUB DUP2 ADD SWAP1 PUSH2 0x16C SWAP2 SWAP1 PUSH2 0x99A JUMP JUMPDEST PUSH2 0x6DA JUMP JUMPDEST STOP JUMPDEST PUSH0 DUP1 SLOAD SWAP1 PUSH2 0x100 EXP SWAP1 DIV PUSH20 0xFFFFFFFFFFFFFFFFFFFFFFFFFFFFFFFFFFFFFFFF AND DUP2 JUMP JUMPDEST PUSH1 0x1 PUSH0 SWAP1 SLOAD SWAP1 PUSH2 0x100 EXP SWAP1 DIV PUSH20 0xFFFFFFFFFFFFFFFFFFFFFFFFFFFFFFFFFFFFFFFF AND PUSH20 0xFFFFFFFFFFFFFFFFFFFFFFFFFFFFFFFFFFFFFFFF AND CALLER PUSH20 0xFFFFFFFFFFFFFFFFFFFFFFFFFFFFFFFFFFFFFFFF AND EQ PUSH2 0x225 JUMPI PUSH1 0x40 MLOAD PUSH32 0x8C379A000000000000000000000000000000000000000000000000000000000 DUP2 MSTORE PUSH1 0x4 ADD PUSH2 0x21C SWAP1 PUSH2 0xA45 JUMP JUMPDEST PUSH1 0x40 MLOAD DUP1 SWAP2 SUB SWAP1 REVERT JUMPDEST DUP1 PUSH1 0x2 DUP2 SWAP1 SSTORE POP POP JUMP JUMPDEST PUSH0 DUP2 GT PUSH2 0x271 JUMPI PUSH1 0x40 MLOAD PUSH32 0x8C379A000000000000000000000000000000000000000000000000000000000 DUP2 MSTORE PUSH1 0x4 ADD PUSH2 0x268 SWAP1 PUSH2 0xAD3 JUMP JUMPDEST PUSH1 0x40 MLOAD DUP1 SWAP2 SUB SWAP1 REVERT JUMPDEST PUSH0 DUP1 PUSH0 SWAP1 SLOAD SWAP1 PUSH2 0x100 EXP SWAP1 DIV PUSH20 0xFFFFFFFFFFFFFFFFFFFFFFFFFFFFFFFFFFFFFFFF AND PUSH20 0xFFFFFFFFFFFFFFFFFFFFFFFFFFFFFFFFFFFFFFFF AND PUSH4 0xDD62ED3E CALLER ADDRESS PUSH1 0x40 MLOAD DUP4 PUSH4 0xFFFFFFFF AND PUSH1 0xE0 SHL DUP2 MSTORE PUSH1 0x4 ADD PUSH2 0x2CD SWAP3 SWAP2 SWAP1 PUSH2 0xAF1 JUMP JUMPDEST PUSH1 0x20 PUSH1 0x40 MLOAD DUP1 DUP4 SUB DUP2 DUP7 GAS STATICCALL ISZERO DUP1 ISZERO PUSH2 0x2E8 JUMPI RETURNDATASIZE PUSH0 DUP1 RETURNDATACOPY RETURNDATASIZE PUSH0 REVERT JUMPDEST POP POP POP POP PUSH1 0x40 MLOAD RETURNDATASIZE PUSH1 0x1F NOT PUSH1 0x1F DUP3 ADD AND DUP3 ADD DUP1 PUSH1 0x40 MSTORE POP DUP2 ADD SWAP1 PUSH2 0x30C SWAP2 SWAP1 PUSH2 0xB2C JUMP JUMPDEST SWAP1 POP DUP2 DUP2 LT ISZERO PUSH2 0x351 JUMPI PUSH1 0x40 MLOAD PUSH32 0x8C379A000000000000000000000000000000000000000000000000000000000 DUP2 MSTORE PUSH1 0x4 ADD PUSH2 0x348 SWAP1 PUSH2 0xBC7 JUMP JUMPDEST PUSH1 0x40 MLOAD DUP1 SWAP2 SUB SWAP1 REVERT JUMPDEST PUSH0 DUP1 SLOAD SWAP1 PUSH2 0x100 EXP SWAP1 DIV PUSH20 0xFFFFFFFFFFFFFFFFFFFFFFFFFFFFFFFFFFFFFFFF AND PUSH20 0xFFFFFFFFFFFFFFFFFFFFFFFFFFFFFFFFFFFFFFFF AND PUSH4 0x23B872DD CALLER ADDRESS DUP6 PUSH1 0x40 MLOAD DUP5 PUSH4 0xFFFFFFFF AND PUSH1 0xE0 SHL DUP2 MSTORE PUSH1 0x4 ADD PUSH2 0x3AD SWAP4 SWAP3 SWAP2 SWAP1 PUSH2 0xBE5 JUMP JUMPDEST PUSH1 0x20 PUSH1 0x40 MLOAD DUP1 DUP4 SUB DUP2 PUSH0 DUP8 GAS CALL ISZERO DUP1 ISZERO PUSH2 0x3C9 JUMPI RETURNDATASIZE PUSH0 DUP1 RETURNDATACOPY RETURNDATASIZE PUSH0 REVERT JUMPDEST POP POP POP POP PUSH1 0x40 MLOAD RETURNDATASIZE PUSH1 0x1F NOT PUSH1 0x1F DUP3 ADD AND DUP3 ADD DUP1 PUSH1 0x40 MSTORE POP DUP2 ADD SWAP1 PUSH2 0x3ED SWAP2 SWAP1 PUSH2 0xC4F JUMP JUMPDEST POP CALLER PUSH20 0xFFFFFFFFFFFFFFFFFFFFFFFFFFFFFFFFFFFFFFFF AND PUSH2 0x8FC PUSH1 0x2 SLOAD DUP5 PUSH2 0x416 SWAP2 SWAP1 PUSH2 0xCA7 JUMP JUMPDEST SWAP1 DUP2 ISZERO MUL SWAP1 PUSH1 0x40 MLOAD PUSH0 PUSH1 0x40 MLOAD DUP1 DUP4 SUB DUP2 DUP6 DUP9 DUP9 CALL SWAP4 POP POP POP POP ISZERO DUP1 ISZERO PUSH2 0x43E JUMPI RETURNDATASIZE PUSH0 DUP1 RETURNDATACOPY RETURNDATASIZE PUSH0 REVERT JUMPDEST POP CALLER PUSH20 0xFFFFFFFFFFFFFFFFFFFFFFFFFFFFFFFFFFFFFFFF AND PUSH32 0xAE92AB4B6F8F401EAD768D3273E6BB937A13E39827D19C6376E8FD4512A05D9A DUP4 PUSH1 0x40 MLOAD PUSH2 0x485 SWAP2 SWAP1 PUSH2 0x91E JUMP JUMPDEST PUSH1 0x40 MLOAD DUP1 SWAP2 SUB SWAP1 LOG2 POP POP JUMP JUMPDEST PUSH1 0x2 SLOAD DUP2 JUMP JUMPDEST PUSH1 0x1 PUSH0 SWAP1 SLOAD SWAP1 PUSH2 0x100 EXP SWAP1 DIV PUSH20 0xFFFFFFFFFFFFFFFFFFFFFFFFFFFFFFFFFFFFFFFF AND DUP2 JUMP JUMPDEST PUSH0 PUSH1 0x2 SLOAD CALLVALUE PUSH2 0x4CB SWAP2 SWAP1 PUSH2 0xD15 JUMP JUMPDEST SWAP1 POP PUSH0 DUP1 PUSH0 SWAP1 SLOAD SWAP1 PUSH2 0x100 EXP SWAP1 DIV PUSH20 0xFFFFFFFFFFFFFFFFFFFFFFFFFFFFFFFFFFFFFFFF AND PUSH20 0xFFFFFFFFFFFFFFFFFFFFFFFFFFFFFFFFFFFFFFFF AND PUSH4 0x70A08231 ADDRESS PUSH1 0x40 MLOAD DUP3 PUSH4 0xFFFFFFFF AND PUSH1 0xE0 SHL DUP2 MSTORE PUSH1 0x4 ADD PUSH2 0x527 SWAP2 SWAP1 PUSH2 0x957 JUMP JUMPDEST PUSH1 0x20 PUSH1 0x40 MLOAD DUP1 DUP4 SUB DUP2 DUP7 GAS STATICCALL ISZERO DUP1 ISZERO PUSH2 0x542 JUMPI RETURNDATASIZE PUSH0 DUP1 RETURNDATACOPY RETURNDATASIZE PUSH0 REVERT JUMPDEST POP POP POP POP PUSH1 0x40 MLOAD RETURNDATASIZE PUSH1 0x1F NOT PUSH1 0x1F DUP3 ADD AND DUP3 ADD DUP1 PUSH1 0x40 MSTORE POP DUP2 ADD SWAP1 PUSH2 0x566 SWAP2 SWAP1 PUSH2 0xB2C JUMP JUMPDEST SWAP1 POP PUSH0 DUP3 GT PUSH2 0x5AA JUMPI PUSH1 0x40 MLOAD PUSH32 0x8C379A000000000000000000000000000000000000000000000000000000000 DUP2 MSTORE PUSH1 0x4 ADD PUSH2 0x5A1 SWAP1 PUSH2 0xDB5 JUMP JUMPDEST PUSH1 0x40 MLOAD DUP1 SWAP2 SUB SWAP1 REVERT JUMPDEST DUP1 DUP3 GT ISZERO PUSH2 0x5ED JUMPI PUSH1 0x40 MLOAD PUSH32 0x8C379A000000000000000000000000000000000000000000000000000000000 DUP2 MSTORE PUSH1 0x4 ADD PUSH2 0x5E4 SWAP1 PUSH2 0xE43 JUMP JUMPDEST PUSH1 0x40 MLOAD DUP1 SWAP2 SUB SWAP1 REVERT JUMPDEST PUSH0 DUP1 SLOAD SWAP1 PUSH2 0x100 EXP SWAP1 DIV PUSH20 0xFFFFFFFFFFFFFFFFFFFFFFFFFFFFFFFFFFFFFFFF AND PUSH20 0xFFFFFFFFFFFFFFFFFFFFFFFFFFFFFFFFFFFFFFFF AND PUSH4 0xA9059CBB CALLER DUP5 PUSH1 0x40 MLOAD DUP4 PUSH4 0xFFFFFFFF AND PUSH1 0xE0 SHL DUP2 MSTORE PUSH1 0x4 ADD PUSH2 0x647 SWAP3 SWAP2 SWAP1 PUSH2 0xE61 JUMP JUMPDEST PUSH1 0x20 PUSH1 0x40 MLOAD DUP1 DUP4 SUB DUP2 PUSH0 DUP8 GAS CALL ISZERO DUP1 ISZERO PUSH2 0x663 JUMPI RETURNDATASIZE PUSH0 DUP1 RETURNDATACOPY RETURNDATASIZE PUSH0 REVERT JUMPDEST POP POP POP POP PUSH1 0x40 MLOAD RETURNDATASIZE PUSH1 0x1F NOT PUSH1 0x1F DUP3 ADD AND DUP3 ADD DUP1 PUSH1 0x40 MSTORE POP DUP2 ADD SWAP1 PUSH2 0x687 SWAP2 SWAP1 PUSH2 0xC4F JUMP JUMPDEST POP CALLER PUSH20 0xFFFFFFFFFFFFFFFFFFFFFFFFFFFFFFFFFFFFFFFF AND PUSH32 0xC55650CCDA1011E1CDC769B1FBF546EBB8C97800B6072B49E06CD560305B1D67 DUP4 PUSH1 0x40 MLOAD PUSH2 0x6CE SWAP2 SWAP1 PUSH2 0x91E JUMP JUMPDEST PUSH1 0x40 MLOAD DUP1 SWAP2 SUB SWAP1 LOG2 POP POP JUMP JUMPDEST PUSH1 0x1 PUSH0 SWAP1 SLOAD SWAP1 PUSH2 0x100 EXP SWAP1 DIV PUSH20 0xFFFFFFFFFFFFFFFFFFFFFFFFFFFFFFFFFFFFFFFF AND PUSH20 0xFFFFFFFFFFFFFFFFFFFFFFFFFFFFFFFFFFFFFFFF AND CALLER PUSH20 0xFFFFFFFFFFFFFFFFFFFFFFFFFFFFFFFFFFFFFFFF AND EQ PUSH2 0x769 JUMPI PUSH1 0x40 MLOAD PUSH32 0x8C379A000000000000000000000000000000000000000000000000000000000 DUP2 MSTORE PUSH1 0x4 ADD PUSH2 0x760 SWAP1 PUSH2 0xA45 JUMP JUMPDEST PUSH1 0x40 MLOAD DUP1 SWAP2 SUB SWAP1 REVERT JUMPDEST PUSH0 PUSH20 0xFFFFFFFFFFFFFFFFFFFFFFFFFFFFFFFFFFFFFFFF AND DUP2 PUSH20 0xFFFFFFFFFFFFFFFFFFFFFFFFFFFFFFFFFFFFFFFF AND SUB PUSH2 0x7D7 JUMPI PUSH1 0x40 MLOAD PUSH32 0x8C379A000000000000000000000000000000000000000000000000000000000 DUP2 MSTORE PUSH1 0x4 ADD PUSH2 0x7CE SWAP1 PUSH2 0xEF8 JUMP JUMPDEST PUSH1 0x40 MLOAD DUP1 SWAP2 SUB SWAP1 REVERT JUMPDEST DUP1 PUSH1 0x1 PUSH0 PUSH2 0x100 EXP DUP2 SLOAD DUP2 PUSH20 0xFFFFFFFFFFFFFFFFFFFFFFFFFFFFFFFFFFFFFFFF MUL NOT AND SWAP1 DUP4 PUSH20 0xFFFFFFFFFFFFFFFFFFFFFFFFFFFFFFFFFFFFFFFF AND MUL OR SWAP1 SSTORE POP POP JUMP JUMPDEST PUSH0 PUSH20 0xFFFFFFFFFFFFFFFFFFFFFFFFFFFFFFFFFFFFFFFF DUP3 AND SWAP1 POP SWAP2 SWAP1 POP JUMP JUMPDEST PUSH0 DUP2 SWAP1 POP SWAP2 SWAP1 POP JUMP JUMPDEST PUSH0 PUSH2 0x85C PUSH2 0x857 PUSH2 0x852 DUP5 PUSH2 0x81A JUMP JUMPDEST PUSH2 0x839 JUMP JUMPDEST PUSH2 0x81A JUMP JUMPDEST SWAP1 POP SWAP2 SWAP1 POP JUMP JUMPDEST PUSH0 PUSH2 0x86D DUP3 PUSH2 0x842 JUMP JUMPDEST SWAP1 POP SWAP2 SWAP1 POP JUMP JUMPDEST PUSH0 PUSH2 0x87E DUP3 PUSH2 0x863 JUMP JUMPDEST SWAP1 POP SWAP2 SWAP1 POP JUMP JUMPDEST PUSH2 0x88E DUP2 PUSH2 0x874 JUMP JUMPDEST DUP3 MSTORE POP POP JUMP JUMPDEST PUSH0 PUSH1 0x20 DUP3 ADD SWAP1 POP PUSH2 0x8A7 PUSH0 DUP4 ADD DUP5 PUSH2 0x885 JUMP JUMPDEST SWAP3 SWAP2 POP POP JUMP JUMPDEST PUSH0 DUP1 REVERT JUMPDEST PUSH0 DUP2 SWAP1 POP SWAP2 SWAP1 POP JUMP JUMPDEST PUSH2 0x8C3 DUP2 PUSH2 0x8B1 JUMP JUMPDEST DUP2 EQ PUSH2 0x8CD JUMPI PUSH0 DUP1 REVERT JUMPDEST POP JUMP JUMPDEST PUSH0 DUP2 CALLDATALOAD SWAP1 POP PUSH2 0x8DE DUP2 PUSH2 0x8BA JUMP JUMPDEST SWAP3 SWAP2 POP POP JUMP JUMPDEST PUSH0 PUSH1 0x20 DUP3 DUP5 SUB SLT ISZERO PUSH2 0x8F9 JUMPI PUSH2 0x8F8 PUSH2 0x8AD JUMP JUMPDEST JUMPDEST PUSH0 PUSH2 0x906 DUP5 DUP3 DUP6 ADD PUSH2 0x8D0 JUMP JUMPDEST SWAP2 POP POP SWAP3 SWAP2 POP POP JUMP JUMPDEST PUSH2 0x918 DUP2 PUSH2 0x8B1 JUMP JUMPDEST DUP3 MSTORE POP POP JUMP JUMPDEST PUSH0 PUSH1 0x20 DUP3 ADD SWAP1 POP PUSH2 0x931 PUSH0 DUP4 ADD DUP5 PUSH2 0x90F JUMP JUMPDEST SWAP3 SWAP2 POP POP JUMP JUMPDEST PUSH0 PUSH2 0x941 DUP3 PUSH2 0x81A JUMP JUMPDEST SWAP1 POP SWAP2 SWAP1 POP JUMP JUMPDEST PUSH2 0x951 DUP2 PUSH2 0x937 JUMP JUMPDEST DUP3 MSTORE POP POP JUMP JUMPDEST PUSH0 PUSH1 0x20 DUP3 ADD SWAP1 POP PUSH2 0x96A PUSH0 DUP4 ADD DUP5 PUSH2 0x948 JUMP JUMPDEST SWAP3 SWAP2 POP POP JUMP JUMPDEST PUSH2 0x979 DUP2 PUSH2 0x937 JUMP JUMPDEST DUP2 EQ PUSH2 0x983 JUMPI PUSH0 DUP1 REVERT JUMPDEST POP JUMP JUMPDEST PUSH0 DUP2 CALLDATALOAD SWAP1 POP PUSH2 0x994 DUP2 PUSH2 0x970 JUMP JUMPDEST SWAP3 SWAP2 POP POP JUMP JUMPDEST PUSH0 PUSH1 0x20 DUP3 DUP5 SUB SLT ISZERO PUSH2 0x9AF JUMPI PUSH2 0x9AE PUSH2 0x8AD JUMP JUMPDEST JUMPDEST PUSH0 PUSH2 0x9BC DUP5 DUP3 DUP6 ADD PUSH2 0x986 JUMP JUMPDEST SWAP2 POP POP SWAP3 SWAP2 POP POP JUMP JUMPDEST PUSH0 DUP3 DUP3 MSTORE PUSH1 0x20 DUP3 ADD SWAP1 POP SWAP3 SWAP2 POP POP JUMP JUMPDEST PUSH32 0x596F7070656E4445583A2063616C6C6572206973206E6F7420746865206F776E PUSH0 DUP3 ADD MSTORE PUSH32 0x6572000000000000000000000000000000000000000000000000000000000000 PUSH1 0x20 DUP3 ADD MSTORE POP JUMP JUMPDEST PUSH0 PUSH2 0xA2F PUSH1 0x22 DUP4 PUSH2 0x9C5 JUMP JUMPDEST SWAP2 POP PUSH2 0xA3A DUP3 PUSH2 0x9D5 JUMP JUMPDEST PUSH1 0x40 DUP3 ADD SWAP1 POP SWAP2 SWAP1 POP JUMP JUMPDEST PUSH0 PUSH1 0x20 DUP3 ADD SWAP1 POP DUP2 DUP2 SUB PUSH0 DUP4 ADD MSTORE PUSH2 0xA5C DUP2 PUSH2 0xA23 JUMP JUMPDEST SWAP1 POP SWAP2 SWAP1 POP JUMP JUMPDEST PUSH32 0x596F7070656E4445583A20596F75206E65656420746F2073656C6C206174206C PUSH0 DUP3 ADD MSTORE PUSH32 0x6561737420736F6D6520746F6B656E7300000000000000000000000000000000 PUSH1 0x20 DUP3 ADD MSTORE POP JUMP JUMPDEST PUSH0 PUSH2 0xABD PUSH1 0x30 DUP4 PUSH2 0x9C5 JUMP JUMPDEST SWAP2 POP PUSH2 0xAC8 DUP3 PUSH2 0xA63 JUMP JUMPDEST PUSH1 0x40 DUP3 ADD SWAP1 POP SWAP2 SWAP1 POP JUMP JUMPDEST PUSH0 PUSH1 0x20 DUP3 ADD SWAP1 POP DUP2 DUP2 SUB PUSH0 DUP4 ADD MSTORE PUSH2 0xAEA DUP2 PUSH2 0xAB1 JUMP JUMPDEST SWAP1 POP SWAP2 SWAP1 POP JUMP JUMPDEST PUSH0 PUSH1 0x40 DUP3 ADD SWAP1 POP PUSH2 0xB04 PUSH0 DUP4 ADD DUP6 PUSH2 0x948 JUMP JUMPDEST PUSH2 0xB11 PUSH1 0x20 DUP4 ADD DUP5 PUSH2 0x948 JUMP JUMPDEST SWAP4 SWAP3 POP POP POP JUMP JUMPDEST PUSH0 DUP2 MLOAD SWAP1 POP PUSH2 0xB26 DUP2 PUSH2 0x8BA JUMP JUMPDEST SWAP3 SWAP2 POP POP JUMP JUMPDEST PUSH0 PUSH1 0x20 DUP3 DUP5 SUB SLT ISZERO PUSH2 0xB41 JUMPI PUSH2 0xB40 PUSH2 0x8AD JUMP JUMPDEST JUMPDEST PUSH0 PUSH2 0xB4E DUP5 DUP3 DUP6 ADD PUSH2 0xB18 JUMP JUMPDEST SWAP2 POP POP SWAP3 SWAP2 POP POP JUMP JUMPDEST PUSH32 0x596F7070656E4445583A20436865636B2074686520746F6B656E20616C6C6F77 PUSH0 DUP3 ADD MSTORE PUSH32 0x616E636500000000000000000000000000000000000000000000000000000000 PUSH1 0x20 DUP3 ADD MSTORE POP JUMP JUMPDEST PUSH0 PUSH2 0xBB1 PUSH1 0x24 DUP4 PUSH2 0x9C5 JUMP JUMPDEST SWAP2 POP PUSH2 0xBBC DUP3 PUSH2 0xB57 JUMP JUMPDEST PUSH1 0x40 DUP3 ADD SWAP1 POP SWAP2 SWAP1 POP JUMP JUMPDEST PUSH0 PUSH1 0x20 DUP3 ADD SWAP1 POP DUP2 DUP2 SUB PUSH0 DUP4 ADD MSTORE PUSH2 0xBDE DUP2 PUSH2 0xBA5 JUMP JUMPDEST SWAP1 POP SWAP2 SWAP1 POP JUMP JUMPDEST PUSH0 PUSH1 0x60 DUP3 ADD SWAP1 POP PUSH2 0xBF8 PUSH0 DUP4 ADD DUP7 PUSH2 0x948 JUMP JUMPDEST PUSH2 0xC05 PUSH1 0x20 DUP4 ADD DUP6 PUSH2 0x948 JUMP JUMPDEST PUSH2 0xC12 PUSH1 0x40 DUP4 ADD DUP5 PUSH2 0x90F JUMP JUMPDEST SWAP5 SWAP4 POP POP POP POP JUMP JUMPDEST PUSH0 DUP2 ISZERO ISZERO SWAP1 POP SWAP2 SWAP1 POP JUMP JUMPDEST PUSH2 0xC2E DUP2 PUSH2 0xC1A JUMP JUMPDEST DUP2 EQ PUSH2 0xC38 JUMPI PUSH0 DUP1 REVERT JUMPDEST POP JUMP JUMPDEST PUSH0 DUP2 MLOAD SWAP1 POP PUSH2 0xC49 DUP2 PUSH2 0xC25 JUMP JUMPDEST SWAP3 SWAP2 POP POP JUMP JUMPDEST PUSH0 PUSH1 0x20 DUP3 DUP5 SUB SLT ISZERO PUSH2 0xC64 JUMPI PUSH2 0xC63 PUSH2 0x8AD JUMP JUMPDEST JUMPDEST PUSH0 PUSH2 0xC71 DUP5 DUP3 DUP6 ADD PUSH2 0xC3B JUMP JUMPDEST SWAP2 POP POP SWAP3 SWAP2 POP POP JUMP JUMPDEST PUSH32 0x4E487B7100000000000000000000000000000000000000000000000000000000 PUSH0 MSTORE PUSH1 0x11 PUSH1 0x4 MSTORE PUSH1 0x24 PUSH0 REVERT JUMPDEST PUSH0 PUSH2 0xCB1 DUP3 PUSH2 0x8B1 JUMP JUMPDEST SWAP2 POP PUSH2 0xCBC DUP4 PUSH2 0x8B1 JUMP JUMPDEST SWAP3 POP DUP3 DUP3 MUL PUSH2 0xCCA DUP2 PUSH2 0x8B1 JUMP JUMPDEST SWAP2 POP DUP3 DUP3 DIV DUP5 EQ DUP4 ISZERO OR PUSH2 0xCE1 JUMPI PUSH2 0xCE0 PUSH2 0xC7A JUMP JUMPDEST JUMPDEST POP SWAP3 SWAP2 POP POP JUMP JUMPDEST PUSH32 0x4E487B7100000000000000000000000000000000000000000000000000000000 PUSH0 MSTORE PUSH1 0x12 PUSH1 0x4 MSTORE PUSH1 0x24 PUSH0 REVERT JUMPDEST PUSH0 PUSH2 0xD1F DUP3 PUSH2 0x8B1 JUMP JUMPDEST SWAP2 POP PUSH2 0xD2A DUP4 PUSH2 0x8B1 JUMP JUMPDEST SWAP3 POP DUP3 PUSH2 0xD3A JUMPI PUSH2 0xD39 PUSH2 0xCE8 JUMP JUMPDEST JUMPDEST DUP3 DUP3 DIV SWAP1 POP SWAP3 SWAP2 POP POP JUMP JUMPDEST PUSH32 0x596F7070656E4445583A20596F75206E65656420746F2073656E6420736F6D65 PUSH0 DUP3 ADD MSTORE PUSH32 0x2045746865720000000000000000000000000000000000000000000000000000 PUSH1 0x20 DUP3 ADD MSTORE POP JUMP JUMPDEST PUSH0 PUSH2 0xD9F PUSH1 0x26 DUP4 PUSH2 0x9C5 JUMP JUMPDEST SWAP2 POP PUSH2 0xDAA DUP3 PUSH2 0xD45 JUMP JUMPDEST PUSH1 0x40 DUP3 ADD SWAP1 POP SWAP2 SWAP1 POP JUMP JUMPDEST PUSH0 PUSH1 0x20 DUP3 ADD SWAP1 POP DUP2 DUP2 SUB PUSH0 DUP4 ADD MSTORE PUSH2 0xDCC DUP2 PUSH2 0xD93 JUMP JUMPDEST SWAP1 POP SWAP2 SWAP1 POP JUMP JUMPDEST PUSH32 0x596F7070656E4445583A204E6F7420656E6F75676820746F6B656E7320696E20 PUSH0 DUP3 ADD MSTORE PUSH32 0x7468652072657365727665000000000000000000000000000000000000000000 PUSH1 0x20 DUP3 ADD MSTORE POP JUMP JUMPDEST PUSH0 PUSH2 0xE2D PUSH1 0x2B DUP4 PUSH2 0x9C5 JUMP JUMPDEST SWAP2 POP PUSH2 0xE38 DUP3 PUSH2 0xDD3 JUMP JUMPDEST PUSH1 0x40 DUP3 ADD SWAP1 POP SWAP2 SWAP1 POP JUMP JUMPDEST PUSH0 PUSH1 0x20 DUP3 ADD SWAP1 POP DUP2 DUP2 SUB PUSH0 DUP4 ADD MSTORE PUSH2 0xE5A DUP2 PUSH2 0xE21 JUMP JUMPDEST SWAP1 POP SWAP2 SWAP1 POP JUMP JUMPDEST PUSH0 PUSH1 0x40 DUP3 ADD SWAP1 POP PUSH2 0xE74 PUSH0 DUP4 ADD DUP6 PUSH2 0x948 JUMP JUMPDEST PUSH2 0xE81 PUSH1 0x20 DUP4 ADD DUP5 PUSH2 0x90F JUMP JUMPDEST SWAP4 SWAP3 POP POP POP JUMP JUMPDEST PUSH32 0x596F7070656E4445583A206E6577206F776E657220697320746865207A65726F PUSH0 DUP3 ADD MSTORE PUSH32 0x2061646472657373000000000000000000000000000000000000000000000000 PUSH1 0x20 DUP3 ADD MSTORE POP JUMP JUMPDEST PUSH0 PUSH2 0xEE2 PUSH1 0x28 DUP4 PUSH2 0x9C5 JUMP JUMPDEST SWAP2 POP PUSH2 0xEED DUP3 PUSH2 0xE88 JUMP JUMPDEST PUSH1 0x40 DUP3 ADD SWAP1 POP SWAP2 SWAP1 POP JUMP JUMPDEST PUSH0 PUSH1 0x20 DUP3 ADD SWAP1 POP DUP2 DUP2 SUB PUSH0 DUP4 ADD MSTORE PUSH2 0xF0F DUP2 PUSH2 0xED6 JUMP JUMPDEST SWAP1 POP SWAP2 SWAP1 POP JUMP INVALID LOG2 PUSH5 0x6970667358 0x22 SLT KECCAK256 0xE7 SWAP15 BLOCKHASH BYTE 0xE6 0xCA COINBASE DUP7 0xB9 0x4E 0x1E 0xB7 0xC3 CALLER EXP 0xCB 0xE7 CALLDATASIZE TIMESTAMP PUSH1 0x96 SWAP1 PUSH18 0x40149DE998364C55C564736F6C6343000818 STOP CALLER "
				},
				"gasEstimates": {
					"creation": {
						"codeDepositCost": "783200",
						"executionCost": "infinite",
						"totalCost": "infinite"
					},
					"external": {
						"buyTokens()": "infinite",
						"owner()": "2530",
						"sellTokens(uint256)": "infinite",
						"setTokenPrice(uint256)": "24707",
						"tokenPrice()": "2425",
						"transferOwnership(address)": "26984",
						"yoppenToken()": "infinite"
					}
				},
				"methodIdentifiers": {
					"buyTokens()": "d0febe4c",
					"owner()": "8da5cb5b",
					"sellTokens(uint256)": "6c11bcd3",
					"setTokenPrice(uint256)": "6a61e5fc",
					"tokenPrice()": "7ff9b596",
					"transferOwnership(address)": "f2fde38b",
					"yoppenToken()": "3fa36d9f"
				}
			},
			"storageLayout": {
				"storage": [
					{
						"astId": 83,
						"contract": "contracts/MiPrimerDEX.sol:YoppenDEX",
						"label": "yoppenToken",
						"offset": 0,
						"slot": "0",
						"type": "t_contract(IERC20)77"
					},
					{
						"astId": 85,
						"contract": "contracts/MiPrimerDEX.sol:YoppenDEX",
						"label": "owner",
						"offset": 0,
						"slot": "1",
						"type": "t_address"
					},
					{
						"astId": 87,
						"contract": "contracts/MiPrimerDEX.sol:YoppenDEX",
						"label": "tokenPrice",
						"offset": 0,
						"slot": "2",
						"type": "t_uint256"
					}
				],
				"types": {
					"t_address": {
						"encoding": "inplace",
						"label": "address",
						"numberOfBytes": "20"
					},
					"t_contract(IERC20)77": {
						"encoding": "inplace",
						"label": "contract IERC20",
						"numberOfBytes": "20"
					},
					"t_uint256": {
						"encoding": "inplace",
						"label": "uint256",
						"numberOfBytes": "32"
					}
				}
			},
			"userdoc": {
				"kind": "user",
				"methods": {},
				"version": 1
			}
		}
	}
}