{
	"contracts/cromomarket.sol": {
		"CromoMarket": {
			"abi": [
				{
					"inputs": [
						{
							"internalType": "address",
							"name": "_yoppenTokenAddress",
							"type": "address"
						}
					],
					"stateMutability": "nonpayable",
					"type": "constructor"
				},
				{
					"anonymous": false,
					"inputs": [
						{
							"indexed": false,
							"internalType": "uint256",
							"name": "cromoId",
							"type": "uint256"
						},
						{
							"indexed": false,
							"internalType": "address",
							"name": "buyer",
							"type": "address"
						}
					],
					"name": "CromoPurchased",
					"type": "event"
				},
				{
					"inputs": [
						{
							"internalType": "uint256",
							"name": "_cromoId",
							"type": "uint256"
						}
					],
					"name": "buyCromo",
					"outputs": [],
					"stateMutability": "nonpayable",
					"type": "function"
				},
				{
					"inputs": [
						{
							"internalType": "string",
							"name": "_name",
							"type": "string"
						},
						{
							"internalType": "uint256",
							"name": "_price",
							"type": "uint256"
						}
					],
					"name": "createCromo",
					"outputs": [],
					"stateMutability": "nonpayable",
					"type": "function"
				},
				{
					"inputs": [
						{
							"internalType": "uint256",
							"name": "",
							"type": "uint256"
						}
					],
					"name": "cromos",
					"outputs": [
						{
							"internalType": "uint256",
							"name": "id",
							"type": "uint256"
						},
						{
							"internalType": "string",
							"name": "name",
							"type": "string"
						},
						{
							"internalType": "uint256",
							"name": "price",
							"type": "uint256"
						},
						{
							"internalType": "address",
							"name": "owner",
							"type": "address"
						}
					],
					"stateMutability": "view",
					"type": "function"
				},
				{
					"inputs": [
						{
							"internalType": "uint256",
							"name": "_cromoId",
							"type": "uint256"
						}
					],
					"name": "getCromo",
					"outputs": [
						{
							"components": [
								{
									"internalType": "uint256",
									"name": "id",
									"type": "uint256"
								},
								{
									"internalType": "string",
									"name": "name",
									"type": "string"
								},
								{
									"internalType": "uint256",
									"name": "price",
									"type": "uint256"
								},
								{
									"internalType": "address",
									"name": "owner",
									"type": "address"
								}
							],
							"internalType": "struct CromoMarket.Cromo",
							"name": "",
							"type": "tuple"
						}
					],
					"stateMutability": "view",
					"type": "function"
				},
				{
					"inputs": [],
					"name": "nextCromoId",
					"outputs": [
						{
							"internalType": "uint256",
							"name": "",
							"type": "uint256"
						}
					],
					"stateMutability": "view",
					"type": "function"
				},
				{
					"inputs": [],
					"name": "owner",
					"outputs": [
						{
							"internalType": "address",
							"name": "",
							"type": "address"
						}
					],
					"stateMutability": "view",
					"type": "function"
				},
				{
					"inputs": [],
					"name": "yoppenToken",
					"outputs": [
						{
							"internalType": "contract IERC20",
							"name": "",
							"type": "address"
						}
					],
					"stateMutability": "view",
					"type": "function"
				}
			],
			"devdoc": {
				"kind": "dev",
				"methods": {},
				"version": 1
			},
			"evm": {
				"assembly": "    /* \"contracts/cromomarket.sol\":116:1341  contract CromoMarket {... */\n  mstore(0x40, 0x80)\n    /* \"contracts/cromomarket.sol\":436:563  constructor(address _yoppenTokenAddress) {... */\n  callvalue\n  dup1\n  iszero\n  tag_1\n  jumpi\n  0x00\n  dup1\n  revert\ntag_1:\n  pop\n  mload(0x40)\n  sub(codesize, bytecodeSize)\n  dup1\n  bytecodeSize\n  dup4\n  codecopy\n  dup2\n  dup2\n  add\n  0x40\n  mstore\n  dup2\n  add\n  swap1\n  tag_2\n  swap2\n  swap1\n  tag_3\n  jump\t// in\ntag_2:\n    /* \"contracts/cromomarket.sol\":508:527  _yoppenTokenAddress */\n  dup1\n    /* \"contracts/cromomarket.sol\":487:498  yoppenToken */\n  0x00\n  dup1\n    /* \"contracts/cromomarket.sol\":487:528  yoppenToken = IERC20(_yoppenTokenAddress) */\n  0x0100\n  exp\n  dup2\n  sload\n  dup2\n  0xffffffffffffffffffffffffffffffffffffffff\n  mul\n  not\n  and\n  swap1\n  dup4\n  0xffffffffffffffffffffffffffffffffffffffff\n  and\n  mul\n  or\n  swap1\n  sstore\n  pop\n    /* \"contracts/cromomarket.sol\":546:556  msg.sender */\n  caller\n    /* \"contracts/cromomarket.sol\":538:543  owner */\n  0x01\n  0x00\n    /* \"contracts/cromomarket.sol\":538:556  owner = msg.sender */\n  0x0100\n  exp\n  dup2\n  sload\n  dup2\n  0xffffffffffffffffffffffffffffffffffffffff\n  mul\n  not\n  and\n  swap1\n  dup4\n  0xffffffffffffffffffffffffffffffffffffffff\n  and\n  mul\n  or\n  swap1\n  sstore\n  pop\n    /* \"contracts/cromomarket.sol\":436:563  constructor(address _yoppenTokenAddress) {... */\n  pop\n    /* \"contracts/cromomarket.sol\":116:1341  contract CromoMarket {... */\n  jump(tag_6)\n    /* \"#utility.yul\":88:205   */\ntag_8:\n    /* \"#utility.yul\":197:198   */\n  0x00\n    /* \"#utility.yul\":194:195   */\n  dup1\n    /* \"#utility.yul\":187:199   */\n  revert\n    /* \"#utility.yul\":334:460   */\ntag_10:\n    /* \"#utility.yul\":371:378   */\n  0x00\n    /* \"#utility.yul\":411:453   */\n  0xffffffffffffffffffffffffffffffffffffffff\n    /* \"#utility.yul\":404:409   */\n  dup3\n    /* \"#utility.yul\":400:454   */\n  and\n    /* \"#utility.yul\":389:454   */\n  swap1\n  pop\n    /* \"#utility.yul\":334:460   */\n  swap2\n  swap1\n  pop\n  jump\t// out\n    /* \"#utility.yul\":466:562   */\ntag_11:\n    /* \"#utility.yul\":503:510   */\n  0x00\n    /* \"#utility.yul\":532:556   */\n  tag_20\n    /* \"#utility.yul\":550:555   */\n  dup3\n    /* \"#utility.yul\":532:556   */\n  tag_10\n  jump\t// in\ntag_20:\n    /* \"#utility.yul\":521:556   */\n  swap1\n  pop\n    /* \"#utility.yul\":466:562   */\n  swap2\n  swap1\n  pop\n  jump\t// out\n    /* \"#utility.yul\":568:690   */\ntag_12:\n    /* \"#utility.yul\":641:665   */\n  tag_22\n    /* \"#utility.yul\":659:664   */\n  dup2\n    /* \"#utility.yul\":641:665   */\n  tag_11\n  jump\t// in\ntag_22:\n    /* \"#utility.yul\":634:639   */\n  dup2\n    /* \"#utility.yul\":631:666   */\n  eq\n    /* \"#utility.yul\":621:684   */\n  tag_23\n  jumpi\n    /* \"#utility.yul\":680:681   */\n  0x00\n    /* \"#utility.yul\":677:678   */\n  dup1\n    /* \"#utility.yul\":670:682   */\n  revert\n    /* \"#utility.yul\":621:684   */\ntag_23:\n    /* \"#utility.yul\":568:690   */\n  pop\n  jump\t// out\n    /* \"#utility.yul\":696:839   */\ntag_13:\n    /* \"#utility.yul\":753:758   */\n  0x00\n    /* \"#utility.yul\":784:790   */\n  dup2\n    /* \"#utility.yul\":778:791   */\n  mload\n    /* \"#utility.yul\":769:791   */\n  swap1\n  pop\n    /* \"#utility.yul\":800:833   */\n  tag_25\n    /* \"#utility.yul\":827:832   */\n  dup2\n    /* \"#utility.yul\":800:833   */\n  tag_12\n  jump\t// in\ntag_25:\n    /* \"#utility.yul\":696:839   */\n  swap3\n  swap2\n  pop\n  pop\n  jump\t// out\n    /* \"#utility.yul\":845:1196   */\ntag_3:\n    /* \"#utility.yul\":915:921   */\n  0x00\n    /* \"#utility.yul\":964:966   */\n  0x20\n    /* \"#utility.yul\":952:961   */\n  dup3\n    /* \"#utility.yul\":943:950   */\n  dup5\n    /* \"#utility.yul\":939:962   */\n  sub\n    /* \"#utility.yul\":935:967   */\n  slt\n    /* \"#utility.yul\":932:1051   */\n  iszero\n  tag_27\n  jumpi\n    /* \"#utility.yul\":970:1049   */\n  tag_28\n  tag_8\n  jump\t// in\ntag_28:\n    /* \"#utility.yul\":932:1051   */\ntag_27:\n    /* \"#utility.yul\":1090:1091   */\n  0x00\n    /* \"#utility.yul\":1115:1179   */\n  tag_29\n    /* \"#utility.yul\":1171:1178   */\n  dup5\n    /* \"#utility.yul\":1162:1168   */\n  dup3\n    /* \"#utility.yul\":1151:1160   */\n  dup6\n    /* \"#utility.yul\":1147:1169   */\n  add\n    /* \"#utility.yul\":1115:1179   */\n  tag_13\n  jump\t// in\ntag_29:\n    /* \"#utility.yul\":1105:1179   */\n  swap2\n  pop\n    /* \"#utility.yul\":1061:1189   */\n  pop\n    /* \"#utility.yul\":845:1196   */\n  swap3\n  swap2\n  pop\n  pop\n  jump\t// out\n    /* \"contracts/cromomarket.sol\":116:1341  contract CromoMarket {... */\ntag_6:\n  dataSize(sub_0)\n  dup1\n  dataOffset(sub_0)\n  0x00\n  codecopy\n  0x00\n  return\nstop\n\nsub_0: assembly {\n        /* \"contracts/cromomarket.sol\":116:1341  contract CromoMarket {... */\n      mstore(0x40, 0x80)\n      callvalue\n      dup1\n      iszero\n      tag_1\n      jumpi\n      0x00\n      dup1\n      revert\n    tag_1:\n      pop\n      jumpi(tag_2, lt(calldatasize, 0x04))\n      shr(0xe0, calldataload(0x00))\n      dup1\n      0x8da5cb5b\n      gt\n      tag_10\n      jumpi\n      dup1\n      0x8da5cb5b\n      eq\n      tag_6\n      jumpi\n      dup1\n      0xa1a3efc7\n      eq\n      tag_7\n      jumpi\n      dup1\n      0xe11c15e3\n      eq\n      tag_8\n      jumpi\n      dup1\n      0xf0ad4662\n      eq\n      tag_9\n      jumpi\n      jump(tag_2)\n    tag_10:\n      dup1\n      0x09a645f2\n      eq\n      tag_3\n      jumpi\n      dup1\n      0x3fa36d9f\n      eq\n      tag_4\n      jumpi\n      dup1\n      0x77540568\n      eq\n      tag_5\n      jumpi\n    tag_2:\n      0x00\n      dup1\n      revert\n        /* \"contracts/cromomarket.sol\":350:373  uint public nextCromoId */\n    tag_3:\n      tag_11\n      tag_12\n      jump\t// in\n    tag_11:\n      mload(0x40)\n      tag_13\n      swap2\n      swap1\n      tag_14\n      jump\t// in\n    tag_13:\n      mload(0x40)\n      dup1\n      swap2\n      sub\n      swap1\n      return\n        /* \"contracts/cromomarket.sol\":143:168  IERC20 public yoppenToken */\n    tag_4:\n      tag_15\n      tag_16\n      jump\t// in\n    tag_15:\n      mload(0x40)\n      tag_17\n      swap2\n      swap1\n      tag_18\n      jump\t// in\n    tag_17:\n      mload(0x40)\n      dup1\n      swap2\n      sub\n      swap1\n      return\n        /* \"contracts/cromomarket.sol\":1229:1339  function getCromo(uint _cromoId) external view returns (Cromo memory) {... */\n    tag_5:\n      tag_19\n      0x04\n      dup1\n      calldatasize\n      sub\n      dup2\n      add\n      swap1\n      tag_20\n      swap2\n      swap1\n      tag_21\n      jump\t// in\n    tag_20:\n      tag_22\n      jump\t// in\n    tag_19:\n      mload(0x40)\n      tag_23\n      swap2\n      swap1\n      tag_24\n      jump\t// in\n    tag_23:\n      mload(0x40)\n      dup1\n      swap2\n      sub\n      swap1\n      return\n        /* \"contracts/cromomarket.sol\":174:194  address public owner */\n    tag_6:\n      tag_25\n      tag_26\n      jump\t// in\n    tag_25:\n      mload(0x40)\n      tag_27\n      swap2\n      swap1\n      tag_28\n      jump\t// in\n    tag_27:\n      mload(0x40)\n      dup1\n      swap2\n      sub\n      swap1\n      return\n        /* \"contracts/cromomarket.sol\":569:810  function createCromo(string memory _name, uint _price) external {... */\n    tag_7:\n      tag_29\n      0x04\n      dup1\n      calldatasize\n      sub\n      dup2\n      add\n      swap1\n      tag_30\n      swap2\n      swap1\n      tag_31\n      jump\t// in\n    tag_30:\n      tag_32\n      jump\t// in\n    tag_29:\n      stop\n        /* \"contracts/cromomarket.sol\":308:344  mapping(uint => Cromo) public cromos */\n    tag_8:\n      tag_33\n      0x04\n      dup1\n      calldatasize\n      sub\n      dup2\n      add\n      swap1\n      tag_34\n      swap2\n      swap1\n      tag_21\n      jump\t// in\n    tag_34:\n      tag_35\n      jump\t// in\n    tag_33:\n      mload(0x40)\n      tag_36\n      swap5\n      swap4\n      swap3\n      swap2\n      swap1\n      tag_37\n      jump\t// in\n    tag_36:\n      mload(0x40)\n      dup1\n      swap2\n      sub\n      swap1\n      return\n        /* \"contracts/cromomarket.sol\":816:1223  function buyCromo(uint _cromoId) external {... */\n    tag_9:\n      tag_38\n      0x04\n      dup1\n      calldatasize\n      sub\n      dup2\n      add\n      swap1\n      tag_39\n      swap2\n      swap1\n      tag_21\n      jump\t// in\n    tag_39:\n      tag_40\n      jump\t// in\n    tag_38:\n      stop\n        /* \"contracts/cromomarket.sol\":350:373  uint public nextCromoId */\n    tag_12:\n      sload(0x03)\n      dup2\n      jump\t// out\n        /* \"contracts/cromomarket.sol\":143:168  IERC20 public yoppenToken */\n    tag_16:\n      0x00\n      dup1\n      sload\n      swap1\n      0x0100\n      exp\n      swap1\n      div\n      0xffffffffffffffffffffffffffffffffffffffff\n      and\n      dup2\n      jump\t// out\n        /* \"contracts/cromomarket.sol\":1229:1339  function getCromo(uint _cromoId) external view returns (Cromo memory) {... */\n    tag_22:\n        /* \"contracts/cromomarket.sol\":1285:1297  Cromo memory */\n      tag_41\n      tag_42\n      jump\t// in\n    tag_41:\n        /* \"contracts/cromomarket.sol\":1316:1322  cromos */\n      0x02\n        /* \"contracts/cromomarket.sol\":1316:1332  cromos[_cromoId] */\n      0x00\n        /* \"contracts/cromomarket.sol\":1323:1331  _cromoId */\n      dup4\n        /* \"contracts/cromomarket.sol\":1316:1332  cromos[_cromoId] */\n      dup2\n      mstore\n      0x20\n      add\n      swap1\n      dup2\n      mstore\n      0x20\n      add\n      0x00\n      keccak256\n        /* \"contracts/cromomarket.sol\":1309:1332  return cromos[_cromoId] */\n      mload(0x40)\n      dup1\n      0x80\n      add\n      0x40\n      mstore\n      swap1\n      dup2\n      0x00\n      dup3\n      add\n      sload\n      dup2\n      mstore\n      0x20\n      add\n      0x01\n      dup3\n      add\n      dup1\n      sload\n      tag_44\n      swap1\n      tag_45\n      jump\t// in\n    tag_44:\n      dup1\n      0x1f\n      add\n      0x20\n      dup1\n      swap2\n      div\n      mul\n      0x20\n      add\n      mload(0x40)\n      swap1\n      dup2\n      add\n      0x40\n      mstore\n      dup1\n      swap3\n      swap2\n      swap1\n      dup2\n      dup2\n      mstore\n      0x20\n      add\n      dup3\n      dup1\n      sload\n      tag_46\n      swap1\n      tag_45\n      jump\t// in\n    tag_46:\n      dup1\n      iszero\n      tag_47\n      jumpi\n      dup1\n      0x1f\n      lt\n      tag_48\n      jumpi\n      0x0100\n      dup1\n      dup4\n      sload\n      div\n      mul\n      dup4\n      mstore\n      swap2\n      0x20\n      add\n      swap2\n      jump(tag_47)\n    tag_48:\n      dup3\n      add\n      swap2\n      swap1\n      0x00\n      mstore\n      keccak256(0x00, 0x20)\n      swap1\n    tag_49:\n      dup2\n      sload\n      dup2\n      mstore\n      swap1\n      0x01\n      add\n      swap1\n      0x20\n      add\n      dup1\n      dup4\n      gt\n      tag_49\n      jumpi\n      dup3\n      swap1\n      sub\n      0x1f\n      and\n      dup3\n      add\n      swap2\n    tag_47:\n      pop\n      pop\n      pop\n      pop\n      pop\n      dup2\n      mstore\n      0x20\n      add\n      0x02\n      dup3\n      add\n      sload\n      dup2\n      mstore\n      0x20\n      add\n      0x03\n      dup3\n      add\n      0x00\n      swap1\n      sload\n      swap1\n      0x0100\n      exp\n      swap1\n      div\n      0xffffffffffffffffffffffffffffffffffffffff\n      and\n      0xffffffffffffffffffffffffffffffffffffffff\n      and\n      0xffffffffffffffffffffffffffffffffffffffff\n      and\n      dup2\n      mstore\n      pop\n      pop\n      swap1\n      pop\n        /* \"contracts/cromomarket.sol\":1229:1339  function getCromo(uint _cromoId) external view returns (Cromo memory) {... */\n      swap2\n      swap1\n      pop\n      jump\t// out\n        /* \"contracts/cromomarket.sol\":174:194  address public owner */\n    tag_26:\n      0x01\n      0x00\n      swap1\n      sload\n      swap1\n      0x0100\n      exp\n      swap1\n      div\n      0xffffffffffffffffffffffffffffffffffffffff\n      and\n      dup2\n      jump\t// out\n        /* \"contracts/cromomarket.sol\":569:810  function createCromo(string memory _name, uint _price) external {... */\n    tag_32:\n        /* \"contracts/cromomarket.sol\":665:670  owner */\n      0x01\n      0x00\n      swap1\n      sload\n      swap1\n      0x0100\n      exp\n      swap1\n      div\n      0xffffffffffffffffffffffffffffffffffffffff\n      and\n        /* \"contracts/cromomarket.sol\":651:670  msg.sender == owner */\n      0xffffffffffffffffffffffffffffffffffffffff\n      and\n        /* \"contracts/cromomarket.sol\":651:661  msg.sender */\n      caller\n        /* \"contracts/cromomarket.sol\":651:670  msg.sender == owner */\n      0xffffffffffffffffffffffffffffffffffffffff\n      and\n      eq\n        /* \"contracts/cromomarket.sol\":643:703  require(msg.sender == owner, \"Only owner can create cromos\") */\n      tag_51\n      jumpi\n      mload(0x40)\n      0x08c379a000000000000000000000000000000000000000000000000000000000\n      dup2\n      mstore\n      0x04\n      add\n      tag_52\n      swap1\n      tag_53\n      jump\t// in\n    tag_52:\n      mload(0x40)\n      dup1\n      swap2\n      sub\n      swap1\n      revert\n    tag_51:\n        /* \"contracts/cromomarket.sol\":735:780  Cromo(nextCromoId, _name, _price, address(0)) */\n      mload(0x40)\n      dup1\n      0x80\n      add\n      0x40\n      mstore\n      dup1\n        /* \"contracts/cromomarket.sol\":741:752  nextCromoId */\n      sload(0x03)\n        /* \"contracts/cromomarket.sol\":735:780  Cromo(nextCromoId, _name, _price, address(0)) */\n      dup2\n      mstore\n      0x20\n      add\n        /* \"contracts/cromomarket.sol\":754:759  _name */\n      dup4\n        /* \"contracts/cromomarket.sol\":735:780  Cromo(nextCromoId, _name, _price, address(0)) */\n      dup2\n      mstore\n      0x20\n      add\n        /* \"contracts/cromomarket.sol\":761:767  _price */\n      dup3\n        /* \"contracts/cromomarket.sol\":735:780  Cromo(nextCromoId, _name, _price, address(0)) */\n      dup2\n      mstore\n      0x20\n      add\n        /* \"contracts/cromomarket.sol\":777:778  0 */\n      0x00\n        /* \"contracts/cromomarket.sol\":735:780  Cromo(nextCromoId, _name, _price, address(0)) */\n      0xffffffffffffffffffffffffffffffffffffffff\n      and\n      dup2\n      mstore\n      pop\n        /* \"contracts/cromomarket.sol\":713:719  cromos */\n      0x02\n        /* \"contracts/cromomarket.sol\":713:732  cromos[nextCromoId] */\n      0x00\n        /* \"contracts/cromomarket.sol\":720:731  nextCromoId */\n      sload(0x03)\n        /* \"contracts/cromomarket.sol\":713:732  cromos[nextCromoId] */\n      dup2\n      mstore\n      0x20\n      add\n      swap1\n      dup2\n      mstore\n      0x20\n      add\n      0x00\n      keccak256\n        /* \"contracts/cromomarket.sol\":713:780  cromos[nextCromoId] = Cromo(nextCromoId, _name, _price, address(0)) */\n      0x00\n      dup3\n      add\n      mload\n      dup2\n      0x00\n      add\n      sstore\n      0x20\n      dup3\n      add\n      mload\n      dup2\n      0x01\n      add\n      swap1\n      dup2\n      tag_54\n      swap2\n      swap1\n      tag_55\n      jump\t// in\n    tag_54:\n      pop\n      0x40\n      dup3\n      add\n      mload\n      dup2\n      0x02\n      add\n      sstore\n      0x60\n      dup3\n      add\n      mload\n      dup2\n      0x03\n      add\n      exp(0x0100, 0x00)\n      dup2\n      sload\n      dup2\n      0xffffffffffffffffffffffffffffffffffffffff\n      mul\n      not\n      and\n      swap1\n      dup4\n      0xffffffffffffffffffffffffffffffffffffffff\n      and\n      mul\n      or\n      swap1\n      sstore\n      pop\n      swap1\n      pop\n      pop\n        /* \"contracts/cromomarket.sol\":790:801  nextCromoId */\n      0x03\n      0x00\n        /* \"contracts/cromomarket.sol\":790:803  nextCromoId++ */\n      dup2\n      sload\n      dup1\n      swap3\n      swap2\n      swap1\n      tag_56\n      swap1\n      tag_57\n      jump\t// in\n    tag_56:\n      swap2\n      swap1\n      pop\n      sstore\n      pop\n        /* \"contracts/cromomarket.sol\":569:810  function createCromo(string memory _name, uint _price) external {... */\n      pop\n      pop\n      jump\t// out\n        /* \"contracts/cromomarket.sol\":308:344  mapping(uint => Cromo) public cromos */\n    tag_35:\n      mstore(0x20, 0x02)\n      dup1\n      0x00\n      mstore\n      keccak256(0x00, 0x40)\n      0x00\n      swap2\n      pop\n      swap1\n      pop\n      dup1\n      0x00\n      add\n      sload\n      swap1\n      dup1\n      0x01\n      add\n      dup1\n      sload\n      tag_58\n      swap1\n      tag_45\n      jump\t// in\n    tag_58:\n      dup1\n      0x1f\n      add\n      0x20\n      dup1\n      swap2\n      div\n      mul\n      0x20\n      add\n      mload(0x40)\n      swap1\n      dup2\n      add\n      0x40\n      mstore\n      dup1\n      swap3\n      swap2\n      swap1\n      dup2\n      dup2\n      mstore\n      0x20\n      add\n      dup3\n      dup1\n      sload\n      tag_59\n      swap1\n      tag_45\n      jump\t// in\n    tag_59:\n      dup1\n      iszero\n      tag_60\n      jumpi\n      dup1\n      0x1f\n      lt\n      tag_61\n      jumpi\n      0x0100\n      dup1\n      dup4\n      sload\n      div\n      mul\n      dup4\n      mstore\n      swap2\n      0x20\n      add\n      swap2\n      jump(tag_60)\n    tag_61:\n      dup3\n      add\n      swap2\n      swap1\n      0x00\n      mstore\n      keccak256(0x00, 0x20)\n      swap1\n    tag_62:\n      dup2\n      sload\n      dup2\n      mstore\n      swap1\n      0x01\n      add\n      swap1\n      0x20\n      add\n      dup1\n      dup4\n      gt\n      tag_62\n      jumpi\n      dup3\n      swap1\n      sub\n      0x1f\n      and\n      dup3\n      add\n      swap2\n    tag_60:\n      pop\n      pop\n      pop\n      pop\n      pop\n      swap1\n      dup1\n      0x02\n      add\n      sload\n      swap1\n      dup1\n      0x03\n      add\n      0x00\n      swap1\n      sload\n      swap1\n      0x0100\n      exp\n      swap1\n      div\n      0xffffffffffffffffffffffffffffffffffffffff\n      and\n      swap1\n      pop\n      dup5\n      jump\t// out\n        /* \"contracts/cromomarket.sol\":816:1223  function buyCromo(uint _cromoId) external {... */\n    tag_40:\n        /* \"contracts/cromomarket.sol\":868:887  Cromo storage cromo */\n      0x00\n        /* \"contracts/cromomarket.sol\":890:896  cromos */\n      0x02\n        /* \"contracts/cromomarket.sol\":890:906  cromos[_cromoId] */\n      0x00\n        /* \"contracts/cromomarket.sol\":897:905  _cromoId */\n      dup4\n        /* \"contracts/cromomarket.sol\":890:906  cromos[_cromoId] */\n      dup2\n      mstore\n      0x20\n      add\n      swap1\n      dup2\n      mstore\n      0x20\n      add\n      0x00\n      keccak256\n        /* \"contracts/cromomarket.sol\":868:906  Cromo storage cromo = cromos[_cromoId] */\n      swap1\n      pop\n        /* \"contracts/cromomarket.sol\":938:939  0 */\n      0x00\n        /* \"contracts/cromomarket.sol\":924:929  cromo */\n      dup2\n        /* \"contracts/cromomarket.sol\":924:935  cromo.price */\n      0x02\n      add\n      sload\n        /* \"contracts/cromomarket.sol\":924:939  cromo.price > 0 */\n      gt\n        /* \"contracts/cromomarket.sol\":916:964  require(cromo.price > 0, \"Cromo does not exist\") */\n      tag_64\n      jumpi\n      mload(0x40)\n      0x08c379a000000000000000000000000000000000000000000000000000000000\n      dup2\n      mstore\n      0x04\n      add\n      tag_65\n      swap1\n      tag_66\n      jump\t// in\n    tag_65:\n      mload(0x40)\n      dup1\n      swap2\n      sub\n      swap1\n      revert\n    tag_64:\n        /* \"contracts/cromomarket.sol\":1005:1006  0 */\n      0x00\n        /* \"contracts/cromomarket.sol\":982:1007  cromo.owner == address(0) */\n      0xffffffffffffffffffffffffffffffffffffffff\n      and\n        /* \"contracts/cromomarket.sol\":982:987  cromo */\n      dup2\n        /* \"contracts/cromomarket.sol\":982:993  cromo.owner */\n      0x03\n      add\n      0x00\n      swap1\n      sload\n      swap1\n      0x0100\n      exp\n      swap1\n      div\n      0xffffffffffffffffffffffffffffffffffffffff\n      and\n        /* \"contracts/cromomarket.sol\":982:1007  cromo.owner == address(0) */\n      0xffffffffffffffffffffffffffffffffffffffff\n      and\n      eq\n        /* \"contracts/cromomarket.sol\":974:1030  require(cromo.owner == address(0), \"Cromo already sold\") */\n      tag_67\n      jumpi\n      mload(0x40)\n      0x08c379a000000000000000000000000000000000000000000000000000000000\n      dup2\n      mstore\n      0x04\n      add\n      tag_68\n      swap1\n      tag_69\n      jump\t// in\n    tag_68:\n      mload(0x40)\n      dup1\n      swap2\n      sub\n      swap1\n      revert\n    tag_67:\n        /* \"contracts/cromomarket.sol\":1048:1059  yoppenToken */\n      0x00\n      dup1\n      sload\n      swap1\n      0x0100\n      exp\n      swap1\n      div\n      0xffffffffffffffffffffffffffffffffffffffff\n      and\n        /* \"contracts/cromomarket.sol\":1048:1072  yoppenToken.transferFrom */\n      0xffffffffffffffffffffffffffffffffffffffff\n      and\n      0x23b872dd\n        /* \"contracts/cromomarket.sol\":1073:1083  msg.sender */\n      caller\n        /* \"contracts/cromomarket.sol\":1085:1090  owner */\n      0x01\n      0x00\n      swap1\n      sload\n      swap1\n      0x0100\n      exp\n      swap1\n      div\n      0xffffffffffffffffffffffffffffffffffffffff\n      and\n        /* \"contracts/cromomarket.sol\":1092:1097  cromo */\n      dup5\n        /* \"contracts/cromomarket.sol\":1092:1103  cromo.price */\n      0x02\n      add\n      sload\n        /* \"contracts/cromomarket.sol\":1048:1104  yoppenToken.transferFrom(msg.sender, owner, cromo.price) */\n      mload(0x40)\n      dup5\n      0xffffffff\n      and\n      0xe0\n      shl\n      dup2\n      mstore\n      0x04\n      add\n      tag_70\n      swap4\n      swap3\n      swap2\n      swap1\n      tag_71\n      jump\t// in\n    tag_70:\n      0x20\n      mload(0x40)\n      dup1\n      dup4\n      sub\n      dup2\n      0x00\n      dup8\n      gas\n      call\n      iszero\n      dup1\n      iszero\n      tag_73\n      jumpi\n      returndatasize\n      0x00\n      dup1\n      returndatacopy\n      revert(0x00, returndatasize)\n    tag_73:\n      pop\n      pop\n      pop\n      pop\n      mload(0x40)\n      returndatasize\n      not(0x1f)\n      0x1f\n      dup3\n      add\n      and\n      dup3\n      add\n      dup1\n      0x40\n      mstore\n      pop\n      dup2\n      add\n      swap1\n      tag_74\n      swap2\n      swap1\n      tag_75\n      jump\t// in\n    tag_74:\n        /* \"contracts/cromomarket.sol\":1040:1130  require(yoppenToken.transferFrom(msg.sender, owner, cromo.price), \"Token transfer failed\") */\n      tag_76\n      jumpi\n      mload(0x40)\n      0x08c379a000000000000000000000000000000000000000000000000000000000\n      dup2\n      mstore\n      0x04\n      add\n      tag_77\n      swap1\n      tag_78\n      jump\t// in\n    tag_77:\n      mload(0x40)\n      dup1\n      swap2\n      sub\n      swap1\n      revert\n    tag_76:\n        /* \"contracts/cromomarket.sol\":1155:1165  msg.sender */\n      caller\n        /* \"contracts/cromomarket.sol\":1141:1146  cromo */\n      dup2\n        /* \"contracts/cromomarket.sol\":1141:1152  cromo.owner */\n      0x03\n      add\n      0x00\n        /* \"contracts/cromomarket.sol\":1141:1165  cromo.owner = msg.sender */\n      0x0100\n      exp\n      dup2\n      sload\n      dup2\n      0xffffffffffffffffffffffffffffffffffffffff\n      mul\n      not\n      and\n      swap1\n      dup4\n      0xffffffffffffffffffffffffffffffffffffffff\n      and\n      mul\n      or\n      swap1\n      sstore\n      pop\n        /* \"contracts/cromomarket.sol\":1180:1216  CromoPurchased(_cromoId, msg.sender) */\n      0x64121c091d212cc0d09c5d2fdc983461417ce2de95c18222bbb006564e9d31c5\n        /* \"contracts/cromomarket.sol\":1195:1203  _cromoId */\n      dup3\n        /* \"contracts/cromomarket.sol\":1205:1215  msg.sender */\n      caller\n        /* \"contracts/cromomarket.sol\":1180:1216  CromoPurchased(_cromoId, msg.sender) */\n      mload(0x40)\n      tag_79\n      swap3\n      swap2\n      swap1\n      tag_80\n      jump\t// in\n    tag_79:\n      mload(0x40)\n      dup1\n      swap2\n      sub\n      swap1\n      log1\n        /* \"contracts/cromomarket.sol\":858:1223  {... */\n      pop\n        /* \"contracts/cromomarket.sol\":816:1223  function buyCromo(uint _cromoId) external {... */\n      pop\n      jump\t// out\n    tag_42:\n      mload(0x40)\n      dup1\n      0x80\n      add\n      0x40\n      mstore\n      dup1\n      0x00\n      dup2\n      mstore\n      0x20\n      add\n      0x60\n      dup2\n      mstore\n      0x20\n      add\n      0x00\n      dup2\n      mstore\n      0x20\n      add\n      and(0xffffffffffffffffffffffffffffffffffffffff, 0x00)\n      dup2\n      mstore\n      pop\n      swap1\n      jump\t// out\n        /* \"#utility.yul\":7:84   */\n    tag_81:\n        /* \"#utility.yul\":44:51   */\n      0x00\n        /* \"#utility.yul\":73:78   */\n      dup2\n        /* \"#utility.yul\":62:78   */\n      swap1\n      pop\n        /* \"#utility.yul\":7:84   */\n      swap2\n      swap1\n      pop\n      jump\t// out\n        /* \"#utility.yul\":90:208   */\n    tag_82:\n        /* \"#utility.yul\":177:201   */\n      tag_145\n        /* \"#utility.yul\":195:200   */\n      dup2\n        /* \"#utility.yul\":177:201   */\n      tag_81\n      jump\t// in\n    tag_145:\n        /* \"#utility.yul\":172:175   */\n      dup3\n        /* \"#utility.yul\":165:202   */\n      mstore\n        /* \"#utility.yul\":90:208   */\n      pop\n      pop\n      jump\t// out\n        /* \"#utility.yul\":214:436   */\n    tag_14:\n        /* \"#utility.yul\":307:311   */\n      0x00\n        /* \"#utility.yul\":345:347   */\n      0x20\n        /* \"#utility.yul\":334:343   */\n      dup3\n        /* \"#utility.yul\":330:348   */\n      add\n        /* \"#utility.yul\":322:348   */\n      swap1\n      pop\n        /* \"#utility.yul\":358:429   */\n      tag_147\n        /* \"#utility.yul\":426:427   */\n      0x00\n        /* \"#utility.yul\":415:424   */\n      dup4\n        /* \"#utility.yul\":411:428   */\n      add\n        /* \"#utility.yul\":402:408   */\n      dup5\n        /* \"#utility.yul\":358:429   */\n      tag_82\n      jump\t// in\n    tag_147:\n        /* \"#utility.yul\":214:436   */\n      swap3\n      swap2\n      pop\n      pop\n      jump\t// out\n        /* \"#utility.yul\":442:568   */\n    tag_83:\n        /* \"#utility.yul\":479:486   */\n      0x00\n        /* \"#utility.yul\":519:561   */\n      0xffffffffffffffffffffffffffffffffffffffff\n        /* \"#utility.yul\":512:517   */\n      dup3\n        /* \"#utility.yul\":508:562   */\n      and\n        /* \"#utility.yul\":497:562   */\n      swap1\n      pop\n        /* \"#utility.yul\":442:568   */\n      swap2\n      swap1\n      pop\n      jump\t// out\n        /* \"#utility.yul\":574:634   */\n    tag_84:\n        /* \"#utility.yul\":602:605   */\n      0x00\n        /* \"#utility.yul\":623:628   */\n      dup2\n        /* \"#utility.yul\":616:628   */\n      swap1\n      pop\n        /* \"#utility.yul\":574:634   */\n      swap2\n      swap1\n      pop\n      jump\t// out\n        /* \"#utility.yul\":640:782   */\n    tag_85:\n        /* \"#utility.yul\":690:699   */\n      0x00\n        /* \"#utility.yul\":723:776   */\n      tag_151\n        /* \"#utility.yul\":741:775   */\n      tag_152\n        /* \"#utility.yul\":750:774   */\n      tag_153\n        /* \"#utility.yul\":768:773   */\n      dup5\n        /* \"#utility.yul\":750:774   */\n      tag_83\n      jump\t// in\n    tag_153:\n        /* \"#utility.yul\":741:775   */\n      tag_84\n      jump\t// in\n    tag_152:\n        /* \"#utility.yul\":723:776   */\n      tag_83\n      jump\t// in\n    tag_151:\n        /* \"#utility.yul\":710:776   */\n      swap1\n      pop\n        /* \"#utility.yul\":640:782   */\n      swap2\n      swap1\n      pop\n      jump\t// out\n        /* \"#utility.yul\":788:914   */\n    tag_86:\n        /* \"#utility.yul\":838:847   */\n      0x00\n        /* \"#utility.yul\":871:908   */\n      tag_155\n        /* \"#utility.yul\":902:907   */\n      dup3\n        /* \"#utility.yul\":871:908   */\n      tag_85\n      jump\t// in\n    tag_155:\n        /* \"#utility.yul\":858:908   */\n      swap1\n      pop\n        /* \"#utility.yul\":788:914   */\n      swap2\n      swap1\n      pop\n      jump\t// out\n        /* \"#utility.yul\":920:1059   */\n    tag_87:\n        /* \"#utility.yul\":983:992   */\n      0x00\n        /* \"#utility.yul\":1016:1053   */\n      tag_157\n        /* \"#utility.yul\":1047:1052   */\n      dup3\n        /* \"#utility.yul\":1016:1053   */\n      tag_86\n      jump\t// in\n    tag_157:\n        /* \"#utility.yul\":1003:1053   */\n      swap1\n      pop\n        /* \"#utility.yul\":920:1059   */\n      swap2\n      swap1\n      pop\n      jump\t// out\n        /* \"#utility.yul\":1065:1222   */\n    tag_88:\n        /* \"#utility.yul\":1165:1215   */\n      tag_159\n        /* \"#utility.yul\":1209:1214   */\n      dup2\n        /* \"#utility.yul\":1165:1215   */\n      tag_87\n      jump\t// in\n    tag_159:\n        /* \"#utility.yul\":1160:1163   */\n      dup3\n        /* \"#utility.yul\":1153:1216   */\n      mstore\n        /* \"#utility.yul\":1065:1222   */\n      pop\n      pop\n      jump\t// out\n        /* \"#utility.yul\":1228:1476   */\n    tag_18:\n        /* \"#utility.yul\":1334:1338   */\n      0x00\n        /* \"#utility.yul\":1372:1374   */\n      0x20\n        /* \"#utility.yul\":1361:1370   */\n      dup3\n        /* \"#utility.yul\":1357:1375   */\n      add\n        /* \"#utility.yul\":1349:1375   */\n      swap1\n      pop\n        /* \"#utility.yul\":1385:1469   */\n      tag_161\n        /* \"#utility.yul\":1466:1467   */\n      0x00\n        /* \"#utility.yul\":1455:1464   */\n      dup4\n        /* \"#utility.yul\":1451:1468   */\n      add\n        /* \"#utility.yul\":1442:1448   */\n      dup5\n        /* \"#utility.yul\":1385:1469   */\n      tag_88\n      jump\t// in\n    tag_161:\n        /* \"#utility.yul\":1228:1476   */\n      swap3\n      swap2\n      pop\n      pop\n      jump\t// out\n        /* \"#utility.yul\":1482:1557   */\n    tag_89:\n        /* \"#utility.yul\":1515:1521   */\n      0x00\n        /* \"#utility.yul\":1548:1550   */\n      0x40\n        /* \"#utility.yul\":1542:1551   */\n      mload\n        /* \"#utility.yul\":1532:1551   */\n      swap1\n      pop\n        /* \"#utility.yul\":1482:1557   */\n      swap1\n      jump\t// out\n        /* \"#utility.yul\":1563:1680   */\n    tag_90:\n        /* \"#utility.yul\":1672:1673   */\n      0x00\n        /* \"#utility.yul\":1669:1670   */\n      dup1\n        /* \"#utility.yul\":1662:1674   */\n      revert\n        /* \"#utility.yul\":1686:1803   */\n    tag_91:\n        /* \"#utility.yul\":1795:1796   */\n      0x00\n        /* \"#utility.yul\":1792:1793   */\n      dup1\n        /* \"#utility.yul\":1785:1797   */\n      revert\n        /* \"#utility.yul\":1809:1931   */\n    tag_92:\n        /* \"#utility.yul\":1882:1906   */\n      tag_166\n        /* \"#utility.yul\":1900:1905   */\n      dup2\n        /* \"#utility.yul\":1882:1906   */\n      tag_81\n      jump\t// in\n    tag_166:\n        /* \"#utility.yul\":1875:1880   */\n      dup2\n        /* \"#utility.yul\":1872:1907   */\n      eq\n        /* \"#utility.yul\":1862:1925   */\n      tag_167\n      jumpi\n        /* \"#utility.yul\":1921:1922   */\n      0x00\n        /* \"#utility.yul\":1918:1919   */\n      dup1\n        /* \"#utility.yul\":1911:1923   */\n      revert\n        /* \"#utility.yul\":1862:1925   */\n    tag_167:\n        /* \"#utility.yul\":1809:1931   */\n      pop\n      jump\t// out\n        /* \"#utility.yul\":1937:2076   */\n    tag_93:\n        /* \"#utility.yul\":1983:1988   */\n      0x00\n        /* \"#utility.yul\":2021:2027   */\n      dup2\n        /* \"#utility.yul\":2008:2028   */\n      calldataload\n        /* \"#utility.yul\":1999:2028   */\n      swap1\n      pop\n        /* \"#utility.yul\":2037:2070   */\n      tag_169\n        /* \"#utility.yul\":2064:2069   */\n      dup2\n        /* \"#utility.yul\":2037:2070   */\n      tag_92\n      jump\t// in\n    tag_169:\n        /* \"#utility.yul\":1937:2076   */\n      swap3\n      swap2\n      pop\n      pop\n      jump\t// out\n        /* \"#utility.yul\":2082:2411   */\n    tag_21:\n        /* \"#utility.yul\":2141:2147   */\n      0x00\n        /* \"#utility.yul\":2190:2192   */\n      0x20\n        /* \"#utility.yul\":2178:2187   */\n      dup3\n        /* \"#utility.yul\":2169:2176   */\n      dup5\n        /* \"#utility.yul\":2165:2188   */\n      sub\n        /* \"#utility.yul\":2161:2193   */\n      slt\n        /* \"#utility.yul\":2158:2277   */\n      iszero\n      tag_171\n      jumpi\n        /* \"#utility.yul\":2196:2275   */\n      tag_172\n      tag_90\n      jump\t// in\n    tag_172:\n        /* \"#utility.yul\":2158:2277   */\n    tag_171:\n        /* \"#utility.yul\":2316:2317   */\n      0x00\n        /* \"#utility.yul\":2341:2394   */\n      tag_173\n        /* \"#utility.yul\":2386:2393   */\n      dup5\n        /* \"#utility.yul\":2377:2383   */\n      dup3\n        /* \"#utility.yul\":2366:2375   */\n      dup6\n        /* \"#utility.yul\":2362:2384   */\n      add\n        /* \"#utility.yul\":2341:2394   */\n      tag_93\n      jump\t// in\n    tag_173:\n        /* \"#utility.yul\":2331:2394   */\n      swap2\n      pop\n        /* \"#utility.yul\":2287:2404   */\n      pop\n        /* \"#utility.yul\":2082:2411   */\n      swap3\n      swap2\n      pop\n      pop\n      jump\t// out\n        /* \"#utility.yul\":2417:2525   */\n    tag_94:\n        /* \"#utility.yul\":2494:2518   */\n      tag_175\n        /* \"#utility.yul\":2512:2517   */\n      dup2\n        /* \"#utility.yul\":2494:2518   */\n      tag_81\n      jump\t// in\n    tag_175:\n        /* \"#utility.yul\":2489:2492   */\n      dup3\n        /* \"#utility.yul\":2482:2519   */\n      mstore\n        /* \"#utility.yul\":2417:2525   */\n      pop\n      pop\n      jump\t// out\n        /* \"#utility.yul\":2531:2630   */\n    tag_95:\n        /* \"#utility.yul\":2583:2589   */\n      0x00\n        /* \"#utility.yul\":2617:2622   */\n      dup2\n        /* \"#utility.yul\":2611:2623   */\n      mload\n        /* \"#utility.yul\":2601:2623   */\n      swap1\n      pop\n        /* \"#utility.yul\":2531:2630   */\n      swap2\n      swap1\n      pop\n      jump\t// out\n        /* \"#utility.yul\":2636:2795   */\n    tag_96:\n        /* \"#utility.yul\":2710:2721   */\n      0x00\n        /* \"#utility.yul\":2744:2750   */\n      dup3\n        /* \"#utility.yul\":2739:2742   */\n      dup3\n        /* \"#utility.yul\":2732:2751   */\n      mstore\n        /* \"#utility.yul\":2784:2788   */\n      0x20\n        /* \"#utility.yul\":2779:2782   */\n      dup3\n        /* \"#utility.yul\":2775:2789   */\n      add\n        /* \"#utility.yul\":2760:2789   */\n      swap1\n      pop\n        /* \"#utility.yul\":2636:2795   */\n      swap3\n      swap2\n      pop\n      pop\n      jump\t// out\n        /* \"#utility.yul\":2801:3047   */\n    tag_97:\n        /* \"#utility.yul\":2882:2883   */\n      0x00\n        /* \"#utility.yul\":2892:3005   */\n    tag_179:\n        /* \"#utility.yul\":2906:2912   */\n      dup4\n        /* \"#utility.yul\":2903:2904   */\n      dup2\n        /* \"#utility.yul\":2900:2913   */\n      lt\n        /* \"#utility.yul\":2892:3005   */\n      iszero\n      tag_181\n      jumpi\n        /* \"#utility.yul\":2991:2992   */\n      dup1\n        /* \"#utility.yul\":2986:2989   */\n      dup3\n        /* \"#utility.yul\":2982:2993   */\n      add\n        /* \"#utility.yul\":2976:2994   */\n      mload\n        /* \"#utility.yul\":2972:2973   */\n      dup2\n        /* \"#utility.yul\":2967:2970   */\n      dup5\n        /* \"#utility.yul\":2963:2974   */\n      add\n        /* \"#utility.yul\":2956:2995   */\n      mstore\n        /* \"#utility.yul\":2928:2930   */\n      0x20\n        /* \"#utility.yul\":2925:2926   */\n      dup2\n        /* \"#utility.yul\":2921:2931   */\n      add\n        /* \"#utility.yul\":2916:2931   */\n      swap1\n      pop\n        /* \"#utility.yul\":2892:3005   */\n      jump(tag_179)\n    tag_181:\n        /* \"#utility.yul\":3039:3040   */\n      0x00\n        /* \"#utility.yul\":3030:3036   */\n      dup5\n        /* \"#utility.yul\":3025:3028   */\n      dup5\n        /* \"#utility.yul\":3021:3037   */\n      add\n        /* \"#utility.yul\":3014:3041   */\n      mstore\n        /* \"#utility.yul\":2863:3047   */\n      pop\n        /* \"#utility.yul\":2801:3047   */\n      pop\n      pop\n      pop\n      jump\t// out\n        /* \"#utility.yul\":3053:3155   */\n    tag_98:\n        /* \"#utility.yul\":3094:3100   */\n      0x00\n        /* \"#utility.yul\":3145:3147   */\n      0x1f\n        /* \"#utility.yul\":3141:3148   */\n      not\n        /* \"#utility.yul\":3136:3138   */\n      0x1f\n        /* \"#utility.yul\":3129:3134   */\n      dup4\n        /* \"#utility.yul\":3125:3139   */\n      add\n        /* \"#utility.yul\":3121:3149   */\n      and\n        /* \"#utility.yul\":3111:3149   */\n      swap1\n      pop\n        /* \"#utility.yul\":3053:3155   */\n      swap2\n      swap1\n      pop\n      jump\t// out\n        /* \"#utility.yul\":3161:3518   */\n    tag_99:\n        /* \"#utility.yul\":3239:3242   */\n      0x00\n        /* \"#utility.yul\":3267:3306   */\n      tag_184\n        /* \"#utility.yul\":3300:3305   */\n      dup3\n        /* \"#utility.yul\":3267:3306   */\n      tag_95\n      jump\t// in\n    tag_184:\n        /* \"#utility.yul\":3322:3383   */\n      tag_185\n        /* \"#utility.yul\":3376:3382   */\n      dup2\n        /* \"#utility.yul\":3371:3374   */\n      dup6\n        /* \"#utility.yul\":3322:3383   */\n      tag_96\n      jump\t// in\n    tag_185:\n        /* \"#utility.yul\":3315:3383   */\n      swap4\n      pop\n        /* \"#utility.yul\":3392:3457   */\n      tag_186\n        /* \"#utility.yul\":3450:3456   */\n      dup2\n        /* \"#utility.yul\":3445:3448   */\n      dup6\n        /* \"#utility.yul\":3438:3442   */\n      0x20\n        /* \"#utility.yul\":3431:3436   */\n      dup7\n        /* \"#utility.yul\":3427:3443   */\n      add\n        /* \"#utility.yul\":3392:3457   */\n      tag_97\n      jump\t// in\n    tag_186:\n        /* \"#utility.yul\":3482:3511   */\n      tag_187\n        /* \"#utility.yul\":3504:3510   */\n      dup2\n        /* \"#utility.yul\":3482:3511   */\n      tag_98\n      jump\t// in\n    tag_187:\n        /* \"#utility.yul\":3477:3480   */\n      dup5\n        /* \"#utility.yul\":3473:3512   */\n      add\n        /* \"#utility.yul\":3466:3512   */\n      swap2\n      pop\n        /* \"#utility.yul\":3243:3518   */\n      pop\n        /* \"#utility.yul\":3161:3518   */\n      swap3\n      swap2\n      pop\n      pop\n      jump\t// out\n        /* \"#utility.yul\":3524:3620   */\n    tag_100:\n        /* \"#utility.yul\":3561:3568   */\n      0x00\n        /* \"#utility.yul\":3590:3614   */\n      tag_189\n        /* \"#utility.yul\":3608:3613   */\n      dup3\n        /* \"#utility.yul\":3590:3614   */\n      tag_83\n      jump\t// in\n    tag_189:\n        /* \"#utility.yul\":3579:3614   */\n      swap1\n      pop\n        /* \"#utility.yul\":3524:3620   */\n      swap2\n      swap1\n      pop\n      jump\t// out\n        /* \"#utility.yul\":3626:3734   */\n    tag_101:\n        /* \"#utility.yul\":3703:3727   */\n      tag_191\n        /* \"#utility.yul\":3721:3726   */\n      dup2\n        /* \"#utility.yul\":3703:3727   */\n      tag_100\n      jump\t// in\n    tag_191:\n        /* \"#utility.yul\":3698:3701   */\n      dup3\n        /* \"#utility.yul\":3691:3728   */\n      mstore\n        /* \"#utility.yul\":3626:3734   */\n      pop\n      pop\n      jump\t// out\n        /* \"#utility.yul\":3800:4746   */\n    tag_102:\n        /* \"#utility.yul\":3911:3914   */\n      0x00\n        /* \"#utility.yul\":3947:3951   */\n      0x80\n        /* \"#utility.yul\":3942:3945   */\n      dup4\n        /* \"#utility.yul\":3938:3952   */\n      add\n        /* \"#utility.yul\":4032:4036   */\n      0x00\n        /* \"#utility.yul\":4025:4030   */\n      dup4\n        /* \"#utility.yul\":4021:4037   */\n      add\n        /* \"#utility.yul\":4015:4038   */\n      mload\n        /* \"#utility.yul\":4051:4114   */\n      tag_193\n        /* \"#utility.yul\":4108:4112   */\n      0x00\n        /* \"#utility.yul\":4103:4106   */\n      dup7\n        /* \"#utility.yul\":4099:4113   */\n      add\n        /* \"#utility.yul\":4085:4097   */\n      dup3\n        /* \"#utility.yul\":4051:4114   */\n      tag_94\n      jump\t// in\n    tag_193:\n        /* \"#utility.yul\":3962:4124   */\n      pop\n        /* \"#utility.yul\":4206:4210   */\n      0x20\n        /* \"#utility.yul\":4199:4204   */\n      dup4\n        /* \"#utility.yul\":4195:4211   */\n      add\n        /* \"#utility.yul\":4189:4212   */\n      mload\n        /* \"#utility.yul\":4259:4262   */\n      dup5\n        /* \"#utility.yul\":4253:4257   */\n      dup3\n        /* \"#utility.yul\":4249:4263   */\n      sub\n        /* \"#utility.yul\":4242:4246   */\n      0x20\n        /* \"#utility.yul\":4237:4240   */\n      dup7\n        /* \"#utility.yul\":4233:4247   */\n      add\n        /* \"#utility.yul\":4226:4264   */\n      mstore\n        /* \"#utility.yul\":4285:4358   */\n      tag_194\n        /* \"#utility.yul\":4353:4357   */\n      dup3\n        /* \"#utility.yul\":4339:4351   */\n      dup3\n        /* \"#utility.yul\":4285:4358   */\n      tag_99\n      jump\t// in\n    tag_194:\n        /* \"#utility.yul\":4277:4358   */\n      swap2\n      pop\n        /* \"#utility.yul\":4134:4369   */\n      pop\n        /* \"#utility.yul\":4452:4456   */\n      0x40\n        /* \"#utility.yul\":4445:4450   */\n      dup4\n        /* \"#utility.yul\":4441:4457   */\n      add\n        /* \"#utility.yul\":4435:4458   */\n      mload\n        /* \"#utility.yul\":4471:4534   */\n      tag_195\n        /* \"#utility.yul\":4528:4532   */\n      0x40\n        /* \"#utility.yul\":4523:4526   */\n      dup7\n        /* \"#utility.yul\":4519:4533   */\n      add\n        /* \"#utility.yul\":4505:4517   */\n      dup3\n        /* \"#utility.yul\":4471:4534   */\n      tag_94\n      jump\t// in\n    tag_195:\n        /* \"#utility.yul\":4379:4544   */\n      pop\n        /* \"#utility.yul\":4627:4631   */\n      0x60\n        /* \"#utility.yul\":4620:4625   */\n      dup4\n        /* \"#utility.yul\":4616:4632   */\n      add\n        /* \"#utility.yul\":4610:4633   */\n      mload\n        /* \"#utility.yul\":4646:4709   */\n      tag_196\n        /* \"#utility.yul\":4703:4707   */\n      0x60\n        /* \"#utility.yul\":4698:4701   */\n      dup7\n        /* \"#utility.yul\":4694:4708   */\n      add\n        /* \"#utility.yul\":4680:4692   */\n      dup3\n        /* \"#utility.yul\":4646:4709   */\n      tag_101\n      jump\t// in\n    tag_196:\n        /* \"#utility.yul\":4554:4719   */\n      pop\n        /* \"#utility.yul\":4736:4740   */\n      dup1\n        /* \"#utility.yul\":4729:4740   */\n      swap2\n      pop\n        /* \"#utility.yul\":3916:4746   */\n      pop\n        /* \"#utility.yul\":3800:4746   */\n      swap3\n      swap2\n      pop\n      pop\n      jump\t// out\n        /* \"#utility.yul\":4752:5109   */\n    tag_24:\n        /* \"#utility.yul\":4887:4891   */\n      0x00\n        /* \"#utility.yul\":4925:4927   */\n      0x20\n        /* \"#utility.yul\":4914:4923   */\n      dup3\n        /* \"#utility.yul\":4910:4928   */\n      add\n        /* \"#utility.yul\":4902:4928   */\n      swap1\n      pop\n        /* \"#utility.yul\":4974:4983   */\n      dup2\n        /* \"#utility.yul\":4968:4972   */\n      dup2\n        /* \"#utility.yul\":4964:4984   */\n      sub\n        /* \"#utility.yul\":4960:4961   */\n      0x00\n        /* \"#utility.yul\":4949:4958   */\n      dup4\n        /* \"#utility.yul\":4945:4962   */\n      add\n        /* \"#utility.yul\":4938:4985   */\n      mstore\n        /* \"#utility.yul\":5002:5102   */\n      tag_198\n        /* \"#utility.yul\":5097:5101   */\n      dup2\n        /* \"#utility.yul\":5088:5094   */\n      dup5\n        /* \"#utility.yul\":5002:5102   */\n      tag_102\n      jump\t// in\n    tag_198:\n        /* \"#utility.yul\":4994:5102   */\n      swap1\n      pop\n        /* \"#utility.yul\":4752:5109   */\n      swap3\n      swap2\n      pop\n      pop\n      jump\t// out\n        /* \"#utility.yul\":5115:5233   */\n    tag_103:\n        /* \"#utility.yul\":5202:5226   */\n      tag_200\n        /* \"#utility.yul\":5220:5225   */\n      dup2\n        /* \"#utility.yul\":5202:5226   */\n      tag_100\n      jump\t// in\n    tag_200:\n        /* \"#utility.yul\":5197:5200   */\n      dup3\n        /* \"#utility.yul\":5190:5227   */\n      mstore\n        /* \"#utility.yul\":5115:5233   */\n      pop\n      pop\n      jump\t// out\n        /* \"#utility.yul\":5239:5461   */\n    tag_28:\n        /* \"#utility.yul\":5332:5336   */\n      0x00\n        /* \"#utility.yul\":5370:5372   */\n      0x20\n        /* \"#utility.yul\":5359:5368   */\n      dup3\n        /* \"#utility.yul\":5355:5373   */\n      add\n        /* \"#utility.yul\":5347:5373   */\n      swap1\n      pop\n        /* \"#utility.yul\":5383:5454   */\n      tag_202\n        /* \"#utility.yul\":5451:5452   */\n      0x00\n        /* \"#utility.yul\":5440:5449   */\n      dup4\n        /* \"#utility.yul\":5436:5453   */\n      add\n        /* \"#utility.yul\":5427:5433   */\n      dup5\n        /* \"#utility.yul\":5383:5454   */\n      tag_103\n      jump\t// in\n    tag_202:\n        /* \"#utility.yul\":5239:5461   */\n      swap3\n      swap2\n      pop\n      pop\n      jump\t// out\n        /* \"#utility.yul\":5467:5584   */\n    tag_104:\n        /* \"#utility.yul\":5576:5577   */\n      0x00\n        /* \"#utility.yul\":5573:5574   */\n      dup1\n        /* \"#utility.yul\":5566:5578   */\n      revert\n        /* \"#utility.yul\":5590:5707   */\n    tag_105:\n        /* \"#utility.yul\":5699:5700   */\n      0x00\n        /* \"#utility.yul\":5696:5697   */\n      dup1\n        /* \"#utility.yul\":5689:5701   */\n      revert\n        /* \"#utility.yul\":5713:5893   */\n    tag_106:\n        /* \"#utility.yul\":5761:5838   */\n      0x4e487b7100000000000000000000000000000000000000000000000000000000\n        /* \"#utility.yul\":5758:5759   */\n      0x00\n        /* \"#utility.yul\":5751:5839   */\n      mstore\n        /* \"#utility.yul\":5858:5862   */\n      0x41\n        /* \"#utility.yul\":5855:5856   */\n      0x04\n        /* \"#utility.yul\":5848:5863   */\n      mstore\n        /* \"#utility.yul\":5882:5886   */\n      0x24\n        /* \"#utility.yul\":5879:5880   */\n      0x00\n        /* \"#utility.yul\":5872:5887   */\n      revert\n        /* \"#utility.yul\":5899:6180   */\n    tag_107:\n        /* \"#utility.yul\":5982:6009   */\n      tag_207\n        /* \"#utility.yul\":6004:6008   */\n      dup3\n        /* \"#utility.yul\":5982:6009   */\n      tag_98\n      jump\t// in\n    tag_207:\n        /* \"#utility.yul\":5974:5980   */\n      dup2\n        /* \"#utility.yul\":5970:6010   */\n      add\n        /* \"#utility.yul\":6112:6118   */\n      dup2\n        /* \"#utility.yul\":6100:6110   */\n      dup2\n        /* \"#utility.yul\":6097:6119   */\n      lt\n        /* \"#utility.yul\":6076:6094   */\n      0xffffffffffffffff\n        /* \"#utility.yul\":6064:6074   */\n      dup3\n        /* \"#utility.yul\":6061:6095   */\n      gt\n        /* \"#utility.yul\":6058:6120   */\n      or\n        /* \"#utility.yul\":6055:6143   */\n      iszero\n      tag_208\n      jumpi\n        /* \"#utility.yul\":6123:6141   */\n      tag_209\n      tag_106\n      jump\t// in\n    tag_209:\n        /* \"#utility.yul\":6055:6143   */\n    tag_208:\n        /* \"#utility.yul\":6163:6173   */\n      dup1\n        /* \"#utility.yul\":6159:6161   */\n      0x40\n        /* \"#utility.yul\":6152:6174   */\n      mstore\n        /* \"#utility.yul\":5942:6180   */\n      pop\n        /* \"#utility.yul\":5899:6180   */\n      pop\n      pop\n      jump\t// out\n        /* \"#utility.yul\":6186:6315   */\n    tag_108:\n        /* \"#utility.yul\":6220:6226   */\n      0x00\n        /* \"#utility.yul\":6247:6267   */\n      tag_211\n      tag_89\n      jump\t// in\n    tag_211:\n        /* \"#utility.yul\":6237:6267   */\n      swap1\n      pop\n        /* \"#utility.yul\":6276:6309   */\n      tag_212\n        /* \"#utility.yul\":6304:6308   */\n      dup3\n        /* \"#utility.yul\":6296:6302   */\n      dup3\n        /* \"#utility.yul\":6276:6309   */\n      tag_107\n      jump\t// in\n    tag_212:\n        /* \"#utility.yul\":6186:6315   */\n      swap2\n      swap1\n      pop\n      jump\t// out\n        /* \"#utility.yul\":6321:6629   */\n    tag_109:\n        /* \"#utility.yul\":6383:6387   */\n      0x00\n        /* \"#utility.yul\":6473:6491   */\n      0xffffffffffffffff\n        /* \"#utility.yul\":6465:6471   */\n      dup3\n        /* \"#utility.yul\":6462:6492   */\n      gt\n        /* \"#utility.yul\":6459:6515   */\n      iszero\n      tag_214\n      jumpi\n        /* \"#utility.yul\":6495:6513   */\n      tag_215\n      tag_106\n      jump\t// in\n    tag_215:\n        /* \"#utility.yul\":6459:6515   */\n    tag_214:\n        /* \"#utility.yul\":6533:6562   */\n      tag_216\n        /* \"#utility.yul\":6555:6561   */\n      dup3\n        /* \"#utility.yul\":6533:6562   */\n      tag_98\n      jump\t// in\n    tag_216:\n        /* \"#utility.yul\":6525:6562   */\n      swap1\n      pop\n        /* \"#utility.yul\":6617:6621   */\n      0x20\n        /* \"#utility.yul\":6611:6615   */\n      dup2\n        /* \"#utility.yul\":6607:6622   */\n      add\n        /* \"#utility.yul\":6599:6622   */\n      swap1\n      pop\n        /* \"#utility.yul\":6321:6629   */\n      swap2\n      swap1\n      pop\n      jump\t// out\n        /* \"#utility.yul\":6635:6781   */\n    tag_110:\n        /* \"#utility.yul\":6732:6738   */\n      dup3\n        /* \"#utility.yul\":6727:6730   */\n      dup2\n        /* \"#utility.yul\":6722:6725   */\n      dup4\n        /* \"#utility.yul\":6709:6739   */\n      calldatacopy\n        /* \"#utility.yul\":6773:6774   */\n      0x00\n        /* \"#utility.yul\":6764:6770   */\n      dup4\n        /* \"#utility.yul\":6759:6762   */\n      dup4\n        /* \"#utility.yul\":6755:6771   */\n      add\n        /* \"#utility.yul\":6748:6775   */\n      mstore\n        /* \"#utility.yul\":6635:6781   */\n      pop\n      pop\n      pop\n      jump\t// out\n        /* \"#utility.yul\":6787:7212   */\n    tag_111:\n        /* \"#utility.yul\":6865:6870   */\n      0x00\n        /* \"#utility.yul\":6890:6956   */\n      tag_219\n        /* \"#utility.yul\":6906:6955   */\n      tag_220\n        /* \"#utility.yul\":6948:6954   */\n      dup5\n        /* \"#utility.yul\":6906:6955   */\n      tag_109\n      jump\t// in\n    tag_220:\n        /* \"#utility.yul\":6890:6956   */\n      tag_108\n      jump\t// in\n    tag_219:\n        /* \"#utility.yul\":6881:6956   */\n      swap1\n      pop\n        /* \"#utility.yul\":6979:6985   */\n      dup3\n        /* \"#utility.yul\":6972:6977   */\n      dup2\n        /* \"#utility.yul\":6965:6986   */\n      mstore\n        /* \"#utility.yul\":7017:7021   */\n      0x20\n        /* \"#utility.yul\":7010:7015   */\n      dup2\n        /* \"#utility.yul\":7006:7022   */\n      add\n        /* \"#utility.yul\":7055:7058   */\n      dup5\n        /* \"#utility.yul\":7046:7052   */\n      dup5\n        /* \"#utility.yul\":7041:7044   */\n      dup5\n        /* \"#utility.yul\":7037:7053   */\n      add\n        /* \"#utility.yul\":7034:7059   */\n      gt\n        /* \"#utility.yul\":7031:7143   */\n      iszero\n      tag_221\n      jumpi\n        /* \"#utility.yul\":7062:7141   */\n      tag_222\n      tag_105\n      jump\t// in\n    tag_222:\n        /* \"#utility.yul\":7031:7143   */\n    tag_221:\n        /* \"#utility.yul\":7152:7206   */\n      tag_223\n        /* \"#utility.yul\":7199:7205   */\n      dup5\n        /* \"#utility.yul\":7194:7197   */\n      dup3\n        /* \"#utility.yul\":7189:7192   */\n      dup6\n        /* \"#utility.yul\":7152:7206   */\n      tag_110\n      jump\t// in\n    tag_223:\n        /* \"#utility.yul\":6871:7212   */\n      pop\n        /* \"#utility.yul\":6787:7212   */\n      swap4\n      swap3\n      pop\n      pop\n      pop\n      jump\t// out\n        /* \"#utility.yul\":7232:7572   */\n    tag_112:\n        /* \"#utility.yul\":7288:7293   */\n      0x00\n        /* \"#utility.yul\":7337:7340   */\n      dup3\n        /* \"#utility.yul\":7330:7334   */\n      0x1f\n        /* \"#utility.yul\":7322:7328   */\n      dup4\n        /* \"#utility.yul\":7318:7335   */\n      add\n        /* \"#utility.yul\":7314:7341   */\n      slt\n        /* \"#utility.yul\":7304:7426   */\n      tag_225\n      jumpi\n        /* \"#utility.yul\":7345:7424   */\n      tag_226\n      tag_104\n      jump\t// in\n    tag_226:\n        /* \"#utility.yul\":7304:7426   */\n    tag_225:\n        /* \"#utility.yul\":7462:7468   */\n      dup2\n        /* \"#utility.yul\":7449:7469   */\n      calldataload\n        /* \"#utility.yul\":7487:7566   */\n      tag_227\n        /* \"#utility.yul\":7562:7565   */\n      dup5\n        /* \"#utility.yul\":7554:7560   */\n      dup3\n        /* \"#utility.yul\":7547:7551   */\n      0x20\n        /* \"#utility.yul\":7539:7545   */\n      dup7\n        /* \"#utility.yul\":7535:7552   */\n      add\n        /* \"#utility.yul\":7487:7566   */\n      tag_111\n      jump\t// in\n    tag_227:\n        /* \"#utility.yul\":7478:7566   */\n      swap2\n      pop\n        /* \"#utility.yul\":7294:7572   */\n      pop\n        /* \"#utility.yul\":7232:7572   */\n      swap3\n      swap2\n      pop\n      pop\n      jump\t// out\n        /* \"#utility.yul\":7578:8232   */\n    tag_31:\n        /* \"#utility.yul\":7656:7662   */\n      0x00\n        /* \"#utility.yul\":7664:7670   */\n      dup1\n        /* \"#utility.yul\":7713:7715   */\n      0x40\n        /* \"#utility.yul\":7701:7710   */\n      dup4\n        /* \"#utility.yul\":7692:7699   */\n      dup6\n        /* \"#utility.yul\":7688:7711   */\n      sub\n        /* \"#utility.yul\":7684:7716   */\n      slt\n        /* \"#utility.yul\":7681:7800   */\n      iszero\n      tag_229\n      jumpi\n        /* \"#utility.yul\":7719:7798   */\n      tag_230\n      tag_90\n      jump\t// in\n    tag_230:\n        /* \"#utility.yul\":7681:7800   */\n    tag_229:\n        /* \"#utility.yul\":7867:7868   */\n      0x00\n        /* \"#utility.yul\":7856:7865   */\n      dup4\n        /* \"#utility.yul\":7852:7869   */\n      add\n        /* \"#utility.yul\":7839:7870   */\n      calldataload\n        /* \"#utility.yul\":7897:7915   */\n      0xffffffffffffffff\n        /* \"#utility.yul\":7889:7895   */\n      dup2\n        /* \"#utility.yul\":7886:7916   */\n      gt\n        /* \"#utility.yul\":7883:8000   */\n      iszero\n      tag_231\n      jumpi\n        /* \"#utility.yul\":7919:7998   */\n      tag_232\n      tag_91\n      jump\t// in\n    tag_232:\n        /* \"#utility.yul\":7883:8000   */\n    tag_231:\n        /* \"#utility.yul\":8024:8087   */\n      tag_233\n        /* \"#utility.yul\":8079:8086   */\n      dup6\n        /* \"#utility.yul\":8070:8076   */\n      dup3\n        /* \"#utility.yul\":8059:8068   */\n      dup7\n        /* \"#utility.yul\":8055:8077   */\n      add\n        /* \"#utility.yul\":8024:8087   */\n      tag_112\n      jump\t// in\n    tag_233:\n        /* \"#utility.yul\":8014:8087   */\n      swap3\n      pop\n        /* \"#utility.yul\":7810:8097   */\n      pop\n        /* \"#utility.yul\":8136:8138   */\n      0x20\n        /* \"#utility.yul\":8162:8215   */\n      tag_234\n        /* \"#utility.yul\":8207:8214   */\n      dup6\n        /* \"#utility.yul\":8198:8204   */\n      dup3\n        /* \"#utility.yul\":8187:8196   */\n      dup7\n        /* \"#utility.yul\":8183:8205   */\n      add\n        /* \"#utility.yul\":8162:8215   */\n      tag_93\n      jump\t// in\n    tag_234:\n        /* \"#utility.yul\":8152:8215   */\n      swap2\n      pop\n        /* \"#utility.yul\":8107:8225   */\n      pop\n        /* \"#utility.yul\":7578:8232   */\n      swap3\n      pop\n      swap3\n      swap1\n      pop\n      jump\t// out\n        /* \"#utility.yul\":8238:8407   */\n    tag_113:\n        /* \"#utility.yul\":8322:8333   */\n      0x00\n        /* \"#utility.yul\":8356:8362   */\n      dup3\n        /* \"#utility.yul\":8351:8354   */\n      dup3\n        /* \"#utility.yul\":8344:8363   */\n      mstore\n        /* \"#utility.yul\":8396:8400   */\n      0x20\n        /* \"#utility.yul\":8391:8394   */\n      dup3\n        /* \"#utility.yul\":8387:8401   */\n      add\n        /* \"#utility.yul\":8372:8401   */\n      swap1\n      pop\n        /* \"#utility.yul\":8238:8407   */\n      swap3\n      swap2\n      pop\n      pop\n      jump\t// out\n        /* \"#utility.yul\":8413:8790   */\n    tag_114:\n        /* \"#utility.yul\":8501:8504   */\n      0x00\n        /* \"#utility.yul\":8529:8568   */\n      tag_237\n        /* \"#utility.yul\":8562:8567   */\n      dup3\n        /* \"#utility.yul\":8529:8568   */\n      tag_95\n      jump\t// in\n    tag_237:\n        /* \"#utility.yul\":8584:8655   */\n      tag_238\n        /* \"#utility.yul\":8648:8654   */\n      dup2\n        /* \"#utility.yul\":8643:8646   */\n      dup6\n        /* \"#utility.yul\":8584:8655   */\n      tag_113\n      jump\t// in\n    tag_238:\n        /* \"#utility.yul\":8577:8655   */\n      swap4\n      pop\n        /* \"#utility.yul\":8664:8729   */\n      tag_239\n        /* \"#utility.yul\":8722:8728   */\n      dup2\n        /* \"#utility.yul\":8717:8720   */\n      dup6\n        /* \"#utility.yul\":8710:8714   */\n      0x20\n        /* \"#utility.yul\":8703:8708   */\n      dup7\n        /* \"#utility.yul\":8699:8715   */\n      add\n        /* \"#utility.yul\":8664:8729   */\n      tag_97\n      jump\t// in\n    tag_239:\n        /* \"#utility.yul\":8754:8783   */\n      tag_240\n        /* \"#utility.yul\":8776:8782   */\n      dup2\n        /* \"#utility.yul\":8754:8783   */\n      tag_98\n      jump\t// in\n    tag_240:\n        /* \"#utility.yul\":8749:8752   */\n      dup5\n        /* \"#utility.yul\":8745:8784   */\n      add\n        /* \"#utility.yul\":8738:8784   */\n      swap2\n      pop\n        /* \"#utility.yul\":8505:8790   */\n      pop\n        /* \"#utility.yul\":8413:8790   */\n      swap3\n      swap2\n      pop\n      pop\n      jump\t// out\n        /* \"#utility.yul\":8796:9440   */\n    tag_37:\n        /* \"#utility.yul\":8993:8997   */\n      0x00\n        /* \"#utility.yul\":9031:9034   */\n      0x80\n        /* \"#utility.yul\":9020:9029   */\n      dup3\n        /* \"#utility.yul\":9016:9035   */\n      add\n        /* \"#utility.yul\":9008:9035   */\n      swap1\n      pop\n        /* \"#utility.yul\":9045:9116   */\n      tag_242\n        /* \"#utility.yul\":9113:9114   */\n      0x00\n        /* \"#utility.yul\":9102:9111   */\n      dup4\n        /* \"#utility.yul\":9098:9115   */\n      add\n        /* \"#utility.yul\":9089:9095   */\n      dup8\n        /* \"#utility.yul\":9045:9116   */\n      tag_82\n      jump\t// in\n    tag_242:\n        /* \"#utility.yul\":9163:9172   */\n      dup2\n        /* \"#utility.yul\":9157:9161   */\n      dup2\n        /* \"#utility.yul\":9153:9173   */\n      sub\n        /* \"#utility.yul\":9148:9150   */\n      0x20\n        /* \"#utility.yul\":9137:9146   */\n      dup4\n        /* \"#utility.yul\":9133:9151   */\n      add\n        /* \"#utility.yul\":9126:9174   */\n      mstore\n        /* \"#utility.yul\":9191:9269   */\n      tag_243\n        /* \"#utility.yul\":9264:9268   */\n      dup2\n        /* \"#utility.yul\":9255:9261   */\n      dup7\n        /* \"#utility.yul\":9191:9269   */\n      tag_114\n      jump\t// in\n    tag_243:\n        /* \"#utility.yul\":9183:9269   */\n      swap1\n      pop\n        /* \"#utility.yul\":9279:9351   */\n      tag_244\n        /* \"#utility.yul\":9347:9349   */\n      0x40\n        /* \"#utility.yul\":9336:9345   */\n      dup4\n        /* \"#utility.yul\":9332:9350   */\n      add\n        /* \"#utility.yul\":9323:9329   */\n      dup6\n        /* \"#utility.yul\":9279:9351   */\n      tag_82\n      jump\t// in\n    tag_244:\n        /* \"#utility.yul\":9361:9433   */\n      tag_245\n        /* \"#utility.yul\":9429:9431   */\n      0x60\n        /* \"#utility.yul\":9418:9427   */\n      dup4\n        /* \"#utility.yul\":9414:9432   */\n      add\n        /* \"#utility.yul\":9405:9411   */\n      dup5\n        /* \"#utility.yul\":9361:9433   */\n      tag_103\n      jump\t// in\n    tag_245:\n        /* \"#utility.yul\":8796:9440   */\n      swap6\n      swap5\n      pop\n      pop\n      pop\n      pop\n      pop\n      jump\t// out\n        /* \"#utility.yul\":9446:9626   */\n    tag_115:\n        /* \"#utility.yul\":9494:9571   */\n      0x4e487b7100000000000000000000000000000000000000000000000000000000\n        /* \"#utility.yul\":9491:9492   */\n      0x00\n        /* \"#utility.yul\":9484:9572   */\n      mstore\n        /* \"#utility.yul\":9591:9595   */\n      0x22\n        /* \"#utility.yul\":9588:9589   */\n      0x04\n        /* \"#utility.yul\":9581:9596   */\n      mstore\n        /* \"#utility.yul\":9615:9619   */\n      0x24\n        /* \"#utility.yul\":9612:9613   */\n      0x00\n        /* \"#utility.yul\":9605:9620   */\n      revert\n        /* \"#utility.yul\":9632:9952   */\n    tag_45:\n        /* \"#utility.yul\":9676:9682   */\n      0x00\n        /* \"#utility.yul\":9713:9714   */\n      0x02\n        /* \"#utility.yul\":9707:9711   */\n      dup3\n        /* \"#utility.yul\":9703:9715   */\n      div\n        /* \"#utility.yul\":9693:9715   */\n      swap1\n      pop\n        /* \"#utility.yul\":9760:9761   */\n      0x01\n        /* \"#utility.yul\":9754:9758   */\n      dup3\n        /* \"#utility.yul\":9750:9762   */\n      and\n        /* \"#utility.yul\":9781:9799   */\n      dup1\n        /* \"#utility.yul\":9771:9852   */\n      tag_248\n      jumpi\n        /* \"#utility.yul\":9837:9841   */\n      0x7f\n        /* \"#utility.yul\":9829:9835   */\n      dup3\n        /* \"#utility.yul\":9825:9842   */\n      and\n        /* \"#utility.yul\":9815:9842   */\n      swap2\n      pop\n        /* \"#utility.yul\":9771:9852   */\n    tag_248:\n        /* \"#utility.yul\":9899:9901   */\n      0x20\n        /* \"#utility.yul\":9891:9897   */\n      dup3\n        /* \"#utility.yul\":9888:9902   */\n      lt\n        /* \"#utility.yul\":9868:9886   */\n      dup2\n        /* \"#utility.yul\":9865:9903   */\n      sub\n        /* \"#utility.yul\":9862:9946   */\n      tag_249\n      jumpi\n        /* \"#utility.yul\":9918:9936   */\n      tag_250\n      tag_115\n      jump\t// in\n    tag_250:\n        /* \"#utility.yul\":9862:9946   */\n    tag_249:\n        /* \"#utility.yul\":9683:9952   */\n      pop\n        /* \"#utility.yul\":9632:9952   */\n      swap2\n      swap1\n      pop\n      jump\t// out\n        /* \"#utility.yul\":9958:10136   */\n    tag_116:\n        /* \"#utility.yul\":10098:10128   */\n      0x4f6e6c79206f776e65722063616e206372656174652063726f6d6f7300000000\n        /* \"#utility.yul\":10094:10095   */\n      0x00\n        /* \"#utility.yul\":10086:10092   */\n      dup3\n        /* \"#utility.yul\":10082:10096   */\n      add\n        /* \"#utility.yul\":10075:10129   */\n      mstore\n        /* \"#utility.yul\":9958:10136   */\n      pop\n      jump\t// out\n        /* \"#utility.yul\":10142:10508   */\n    tag_117:\n        /* \"#utility.yul\":10284:10287   */\n      0x00\n        /* \"#utility.yul\":10305:10372   */\n      tag_253\n        /* \"#utility.yul\":10369:10371   */\n      0x1c\n        /* \"#utility.yul\":10364:10367   */\n      dup4\n        /* \"#utility.yul\":10305:10372   */\n      tag_113\n      jump\t// in\n    tag_253:\n        /* \"#utility.yul\":10298:10372   */\n      swap2\n      pop\n        /* \"#utility.yul\":10381:10474   */\n      tag_254\n        /* \"#utility.yul\":10470:10473   */\n      dup3\n        /* \"#utility.yul\":10381:10474   */\n      tag_116\n      jump\t// in\n    tag_254:\n        /* \"#utility.yul\":10499:10501   */\n      0x20\n        /* \"#utility.yul\":10494:10497   */\n      dup3\n        /* \"#utility.yul\":10490:10502   */\n      add\n        /* \"#utility.yul\":10483:10502   */\n      swap1\n      pop\n        /* \"#utility.yul\":10142:10508   */\n      swap2\n      swap1\n      pop\n      jump\t// out\n        /* \"#utility.yul\":10514:10933   */\n    tag_53:\n        /* \"#utility.yul\":10680:10684   */\n      0x00\n        /* \"#utility.yul\":10718:10720   */\n      0x20\n        /* \"#utility.yul\":10707:10716   */\n      dup3\n        /* \"#utility.yul\":10703:10721   */\n      add\n        /* \"#utility.yul\":10695:10721   */\n      swap1\n      pop\n        /* \"#utility.yul\":10767:10776   */\n      dup2\n        /* \"#utility.yul\":10761:10765   */\n      dup2\n        /* \"#utility.yul\":10757:10777   */\n      sub\n        /* \"#utility.yul\":10753:10754   */\n      0x00\n        /* \"#utility.yul\":10742:10751   */\n      dup4\n        /* \"#utility.yul\":10738:10755   */\n      add\n        /* \"#utility.yul\":10731:10778   */\n      mstore\n        /* \"#utility.yul\":10795:10926   */\n      tag_256\n        /* \"#utility.yul\":10921:10925   */\n      dup2\n        /* \"#utility.yul\":10795:10926   */\n      tag_117\n      jump\t// in\n    tag_256:\n        /* \"#utility.yul\":10787:10926   */\n      swap1\n      pop\n        /* \"#utility.yul\":10514:10933   */\n      swap2\n      swap1\n      pop\n      jump\t// out\n        /* \"#utility.yul\":10939:11080   */\n    tag_118:\n        /* \"#utility.yul\":10988:10992   */\n      0x00\n        /* \"#utility.yul\":11011:11014   */\n      dup2\n        /* \"#utility.yul\":11003:11014   */\n      swap1\n      pop\n        /* \"#utility.yul\":11034:11037   */\n      dup2\n        /* \"#utility.yul\":11031:11032   */\n      0x00\n        /* \"#utility.yul\":11024:11038   */\n      mstore\n        /* \"#utility.yul\":11068:11072   */\n      0x20\n        /* \"#utility.yul\":11065:11066   */\n      0x00\n        /* \"#utility.yul\":11055:11073   */\n      keccak256\n        /* \"#utility.yul\":11047:11073   */\n      swap1\n      pop\n        /* \"#utility.yul\":10939:11080   */\n      swap2\n      swap1\n      pop\n      jump\t// out\n        /* \"#utility.yul\":11086:11179   */\n    tag_119:\n        /* \"#utility.yul\":11123:11129   */\n      0x00\n        /* \"#utility.yul\":11170:11172   */\n      0x20\n        /* \"#utility.yul\":11165:11167   */\n      0x1f\n        /* \"#utility.yul\":11158:11163   */\n      dup4\n        /* \"#utility.yul\":11154:11168   */\n      add\n        /* \"#utility.yul\":11150:11173   */\n      div\n        /* \"#utility.yul\":11140:11173   */\n      swap1\n      pop\n        /* \"#utility.yul\":11086:11179   */\n      swap2\n      swap1\n      pop\n      jump\t// out\n        /* \"#utility.yul\":11185:11292   */\n    tag_120:\n        /* \"#utility.yul\":11229:11237   */\n      0x00\n        /* \"#utility.yul\":11279:11284   */\n      dup3\n        /* \"#utility.yul\":11273:11277   */\n      dup3\n        /* \"#utility.yul\":11269:11285   */\n      shl\n        /* \"#utility.yul\":11248:11285   */\n      swap1\n      pop\n        /* \"#utility.yul\":11185:11292   */\n      swap3\n      swap2\n      pop\n      pop\n      jump\t// out\n        /* \"#utility.yul\":11298:11691   */\n    tag_121:\n        /* \"#utility.yul\":11367:11373   */\n      0x00\n        /* \"#utility.yul\":11417:11418   */\n      0x08\n        /* \"#utility.yul\":11405:11415   */\n      dup4\n        /* \"#utility.yul\":11401:11419   */\n      mul\n        /* \"#utility.yul\":11440:11537   */\n      tag_261\n        /* \"#utility.yul\":11470:11536   */\n      0xffffffffffffffffffffffffffffffffffffffffffffffffffffffffffffffff\n        /* \"#utility.yul\":11459:11468   */\n      dup3\n        /* \"#utility.yul\":11440:11537   */\n      tag_120\n      jump\t// in\n    tag_261:\n        /* \"#utility.yul\":11558:11597   */\n      tag_262\n        /* \"#utility.yul\":11588:11596   */\n      dup7\n        /* \"#utility.yul\":11577:11586   */\n      dup4\n        /* \"#utility.yul\":11558:11597   */\n      tag_120\n      jump\t// in\n    tag_262:\n        /* \"#utility.yul\":11546:11597   */\n      swap6\n      pop\n        /* \"#utility.yul\":11630:11634   */\n      dup1\n        /* \"#utility.yul\":11626:11635   */\n      not\n        /* \"#utility.yul\":11619:11624   */\n      dup5\n        /* \"#utility.yul\":11615:11636   */\n      and\n        /* \"#utility.yul\":11606:11636   */\n      swap4\n      pop\n        /* \"#utility.yul\":11679:11683   */\n      dup1\n        /* \"#utility.yul\":11669:11677   */\n      dup7\n        /* \"#utility.yul\":11665:11684   */\n      and\n        /* \"#utility.yul\":11658:11663   */\n      dup5\n        /* \"#utility.yul\":11655:11685   */\n      or\n        /* \"#utility.yul\":11645:11685   */\n      swap3\n      pop\n        /* \"#utility.yul\":11374:11691   */\n      pop\n      pop\n        /* \"#utility.yul\":11298:11691   */\n      swap4\n      swap3\n      pop\n      pop\n      pop\n      jump\t// out\n        /* \"#utility.yul\":11697:11839   */\n    tag_122:\n        /* \"#utility.yul\":11747:11756   */\n      0x00\n        /* \"#utility.yul\":11780:11833   */\n      tag_264\n        /* \"#utility.yul\":11798:11832   */\n      tag_265\n        /* \"#utility.yul\":11807:11831   */\n      tag_266\n        /* \"#utility.yul\":11825:11830   */\n      dup5\n        /* \"#utility.yul\":11807:11831   */\n      tag_81\n      jump\t// in\n    tag_266:\n        /* \"#utility.yul\":11798:11832   */\n      tag_84\n      jump\t// in\n    tag_265:\n        /* \"#utility.yul\":11780:11833   */\n      tag_81\n      jump\t// in\n    tag_264:\n        /* \"#utility.yul\":11767:11833   */\n      swap1\n      pop\n        /* \"#utility.yul\":11697:11839   */\n      swap2\n      swap1\n      pop\n      jump\t// out\n        /* \"#utility.yul\":11845:11920   */\n    tag_123:\n        /* \"#utility.yul\":11888:11891   */\n      0x00\n        /* \"#utility.yul\":11909:11914   */\n      dup2\n        /* \"#utility.yul\":11902:11914   */\n      swap1\n      pop\n        /* \"#utility.yul\":11845:11920   */\n      swap2\n      swap1\n      pop\n      jump\t// out\n        /* \"#utility.yul\":11926:12195   */\n    tag_124:\n        /* \"#utility.yul\":12036:12075   */\n      tag_269\n        /* \"#utility.yul\":12067:12074   */\n      dup4\n        /* \"#utility.yul\":12036:12075   */\n      tag_122\n      jump\t// in\n    tag_269:\n        /* \"#utility.yul\":12097:12188   */\n      tag_270\n        /* \"#utility.yul\":12146:12187   */\n      tag_271\n        /* \"#utility.yul\":12170:12186   */\n      dup3\n        /* \"#utility.yul\":12146:12187   */\n      tag_123\n      jump\t// in\n    tag_271:\n        /* \"#utility.yul\":12138:12144   */\n      dup5\n        /* \"#utility.yul\":12131:12135   */\n      dup5\n        /* \"#utility.yul\":12125:12136   */\n      sload\n        /* \"#utility.yul\":12097:12188   */\n      tag_121\n      jump\t// in\n    tag_270:\n        /* \"#utility.yul\":12091:12095   */\n      dup3\n        /* \"#utility.yul\":12084:12189   */\n      sstore\n        /* \"#utility.yul\":12002:12195   */\n      pop\n        /* \"#utility.yul\":11926:12195   */\n      pop\n      pop\n      pop\n      jump\t// out\n        /* \"#utility.yul\":12201:12274   */\n    tag_125:\n        /* \"#utility.yul\":12246:12249   */\n      0x00\n        /* \"#utility.yul\":12201:12274   */\n      swap1\n      jump\t// out\n        /* \"#utility.yul\":12280:12469   */\n    tag_126:\n        /* \"#utility.yul\":12357:12389   */\n      tag_274\n      tag_125\n      jump\t// in\n    tag_274:\n        /* \"#utility.yul\":12398:12463   */\n      tag_275\n        /* \"#utility.yul\":12456:12462   */\n      dup2\n        /* \"#utility.yul\":12448:12454   */\n      dup5\n        /* \"#utility.yul\":12442:12446   */\n      dup5\n        /* \"#utility.yul\":12398:12463   */\n      tag_124\n      jump\t// in\n    tag_275:\n        /* \"#utility.yul\":12333:12469   */\n      pop\n        /* \"#utility.yul\":12280:12469   */\n      pop\n      pop\n      jump\t// out\n        /* \"#utility.yul\":12475:12661   */\n    tag_127:\n        /* \"#utility.yul\":12535:12655   */\n    tag_277:\n        /* \"#utility.yul\":12552:12555   */\n      dup2\n        /* \"#utility.yul\":12545:12550   */\n      dup2\n        /* \"#utility.yul\":12542:12556   */\n      lt\n        /* \"#utility.yul\":12535:12655   */\n      iszero\n      tag_279\n      jumpi\n        /* \"#utility.yul\":12606:12645   */\n      tag_280\n        /* \"#utility.yul\":12643:12644   */\n      0x00\n        /* \"#utility.yul\":12636:12641   */\n      dup3\n        /* \"#utility.yul\":12606:12645   */\n      tag_126\n      jump\t// in\n    tag_280:\n        /* \"#utility.yul\":12579:12580   */\n      0x01\n        /* \"#utility.yul\":12572:12577   */\n      dup2\n        /* \"#utility.yul\":12568:12581   */\n      add\n        /* \"#utility.yul\":12559:12581   */\n      swap1\n      pop\n        /* \"#utility.yul\":12535:12655   */\n      jump(tag_277)\n    tag_279:\n        /* \"#utility.yul\":12475:12661   */\n      pop\n      pop\n      jump\t// out\n        /* \"#utility.yul\":12667:13210   */\n    tag_128:\n        /* \"#utility.yul\":12768:12770   */\n      0x1f\n        /* \"#utility.yul\":12763:12766   */\n      dup3\n        /* \"#utility.yul\":12760:12771   */\n      gt\n        /* \"#utility.yul\":12757:13203   */\n      iszero\n      tag_282\n      jumpi\n        /* \"#utility.yul\":12802:12840   */\n      tag_283\n        /* \"#utility.yul\":12834:12839   */\n      dup2\n        /* \"#utility.yul\":12802:12840   */\n      tag_118\n      jump\t// in\n    tag_283:\n        /* \"#utility.yul\":12886:12915   */\n      tag_284\n        /* \"#utility.yul\":12904:12914   */\n      dup5\n        /* \"#utility.yul\":12886:12915   */\n      tag_119\n      jump\t// in\n    tag_284:\n        /* \"#utility.yul\":12876:12884   */\n      dup2\n        /* \"#utility.yul\":12872:12916   */\n      add\n        /* \"#utility.yul\":13069:13071   */\n      0x20\n        /* \"#utility.yul\":13057:13067   */\n      dup6\n        /* \"#utility.yul\":13054:13072   */\n      lt\n        /* \"#utility.yul\":13051:13100   */\n      iszero\n      tag_285\n      jumpi\n        /* \"#utility.yul\":13090:13098   */\n      dup2\n        /* \"#utility.yul\":13075:13098   */\n      swap1\n      pop\n        /* \"#utility.yul\":13051:13100   */\n    tag_285:\n        /* \"#utility.yul\":13113:13193   */\n      tag_286\n        /* \"#utility.yul\":13169:13191   */\n      tag_287\n        /* \"#utility.yul\":13187:13190   */\n      dup6\n        /* \"#utility.yul\":13169:13191   */\n      tag_119\n      jump\t// in\n    tag_287:\n        /* \"#utility.yul\":13159:13167   */\n      dup4\n        /* \"#utility.yul\":13155:13192   */\n      add\n        /* \"#utility.yul\":13142:13153   */\n      dup3\n        /* \"#utility.yul\":13113:13193   */\n      tag_127\n      jump\t// in\n    tag_286:\n        /* \"#utility.yul\":12772:13203   */\n      pop\n      pop\n        /* \"#utility.yul\":12757:13203   */\n    tag_282:\n        /* \"#utility.yul\":12667:13210   */\n      pop\n      pop\n      pop\n      jump\t// out\n        /* \"#utility.yul\":13216:13333   */\n    tag_129:\n        /* \"#utility.yul\":13270:13278   */\n      0x00\n        /* \"#utility.yul\":13320:13325   */\n      dup3\n        /* \"#utility.yul\":13314:13318   */\n      dup3\n        /* \"#utility.yul\":13310:13326   */\n      shr\n        /* \"#utility.yul\":13289:13326   */\n      swap1\n      pop\n        /* \"#utility.yul\":13216:13333   */\n      swap3\n      swap2\n      pop\n      pop\n      jump\t// out\n        /* \"#utility.yul\":13339:13508   */\n    tag_130:\n        /* \"#utility.yul\":13383:13389   */\n      0x00\n        /* \"#utility.yul\":13416:13467   */\n      tag_290\n        /* \"#utility.yul\":13464:13465   */\n      0x00\n        /* \"#utility.yul\":13460:13466   */\n      not\n        /* \"#utility.yul\":13452:13457   */\n      dup5\n        /* \"#utility.yul\":13449:13450   */\n      0x08\n        /* \"#utility.yul\":13445:13458   */\n      mul\n        /* \"#utility.yul\":13416:13467   */\n      tag_129\n      jump\t// in\n    tag_290:\n        /* \"#utility.yul\":13412:13468   */\n      not\n        /* \"#utility.yul\":13497:13501   */\n      dup1\n        /* \"#utility.yul\":13491:13495   */\n      dup4\n        /* \"#utility.yul\":13487:13502   */\n      and\n        /* \"#utility.yul\":13477:13502   */\n      swap2\n      pop\n        /* \"#utility.yul\":13390:13508   */\n      pop\n        /* \"#utility.yul\":13339:13508   */\n      swap3\n      swap2\n      pop\n      pop\n      jump\t// out\n        /* \"#utility.yul\":13513:13808   */\n    tag_131:\n        /* \"#utility.yul\":13589:13593   */\n      0x00\n        /* \"#utility.yul\":13735:13764   */\n      tag_292\n        /* \"#utility.yul\":13760:13763   */\n      dup4\n        /* \"#utility.yul\":13754:13758   */\n      dup4\n        /* \"#utility.yul\":13735:13764   */\n      tag_130\n      jump\t// in\n    tag_292:\n        /* \"#utility.yul\":13727:13764   */\n      swap2\n      pop\n        /* \"#utility.yul\":13797:13800   */\n      dup3\n        /* \"#utility.yul\":13794:13795   */\n      0x02\n        /* \"#utility.yul\":13790:13801   */\n      mul\n        /* \"#utility.yul\":13784:13788   */\n      dup3\n        /* \"#utility.yul\":13781:13802   */\n      or\n        /* \"#utility.yul\":13773:13802   */\n      swap1\n      pop\n        /* \"#utility.yul\":13513:13808   */\n      swap3\n      swap2\n      pop\n      pop\n      jump\t// out\n        /* \"#utility.yul\":13813:15208   */\n    tag_55:\n        /* \"#utility.yul\":13930:13967   */\n      tag_294\n        /* \"#utility.yul\":13963:13966   */\n      dup3\n        /* \"#utility.yul\":13930:13967   */\n      tag_95\n      jump\t// in\n    tag_294:\n        /* \"#utility.yul\":14032:14050   */\n      0xffffffffffffffff\n        /* \"#utility.yul\":14024:14030   */\n      dup2\n        /* \"#utility.yul\":14021:14051   */\n      gt\n        /* \"#utility.yul\":14018:14074   */\n      iszero\n      tag_295\n      jumpi\n        /* \"#utility.yul\":14054:14072   */\n      tag_296\n      tag_106\n      jump\t// in\n    tag_296:\n        /* \"#utility.yul\":14018:14074   */\n    tag_295:\n        /* \"#utility.yul\":14098:14136   */\n      tag_297\n        /* \"#utility.yul\":14130:14134   */\n      dup3\n        /* \"#utility.yul\":14124:14135   */\n      sload\n        /* \"#utility.yul\":14098:14136   */\n      tag_45\n      jump\t// in\n    tag_297:\n        /* \"#utility.yul\":14183:14250   */\n      tag_298\n        /* \"#utility.yul\":14243:14249   */\n      dup3\n        /* \"#utility.yul\":14235:14241   */\n      dup3\n        /* \"#utility.yul\":14229:14233   */\n      dup6\n        /* \"#utility.yul\":14183:14250   */\n      tag_128\n      jump\t// in\n    tag_298:\n        /* \"#utility.yul\":14277:14278   */\n      0x00\n        /* \"#utility.yul\":14301:14305   */\n      0x20\n        /* \"#utility.yul\":14288:14305   */\n      swap1\n      pop\n        /* \"#utility.yul\":14333:14335   */\n      0x1f\n        /* \"#utility.yul\":14325:14331   */\n      dup4\n        /* \"#utility.yul\":14322:14336   */\n      gt\n        /* \"#utility.yul\":14350:14351   */\n      0x01\n        /* \"#utility.yul\":14345:14963   */\n      dup2\n      eq\n      tag_300\n      jumpi\n        /* \"#utility.yul\":15007:15008   */\n      0x00\n        /* \"#utility.yul\":15024:15030   */\n      dup5\n        /* \"#utility.yul\":15021:15098   */\n      iszero\n      tag_301\n      jumpi\n        /* \"#utility.yul\":15073:15082   */\n      dup3\n        /* \"#utility.yul\":15068:15071   */\n      dup8\n        /* \"#utility.yul\":15064:15083   */\n      add\n        /* \"#utility.yul\":15058:15084   */\n      mload\n        /* \"#utility.yul\":15049:15084   */\n      swap1\n      pop\n        /* \"#utility.yul\":15021:15098   */\n    tag_301:\n        /* \"#utility.yul\":15124:15191   */\n      tag_302\n        /* \"#utility.yul\":15184:15190   */\n      dup6\n        /* \"#utility.yul\":15177:15182   */\n      dup3\n        /* \"#utility.yul\":15124:15191   */\n      tag_131\n      jump\t// in\n    tag_302:\n        /* \"#utility.yul\":15118:15122   */\n      dup7\n        /* \"#utility.yul\":15111:15192   */\n      sstore\n        /* \"#utility.yul\":14980:15202   */\n      pop\n        /* \"#utility.yul\":14315:15202   */\n      jump(tag_299)\n        /* \"#utility.yul\":14345:14963   */\n    tag_300:\n        /* \"#utility.yul\":14397:14401   */\n      0x1f\n        /* \"#utility.yul\":14393:14402   */\n      not\n        /* \"#utility.yul\":14385:14391   */\n      dup5\n        /* \"#utility.yul\":14381:14403   */\n      and\n        /* \"#utility.yul\":14431:14468   */\n      tag_303\n        /* \"#utility.yul\":14463:14467   */\n      dup7\n        /* \"#utility.yul\":14431:14468   */\n      tag_118\n      jump\t// in\n    tag_303:\n        /* \"#utility.yul\":14490:14491   */\n      0x00\n        /* \"#utility.yul\":14504:14712   */\n    tag_304:\n        /* \"#utility.yul\":14518:14525   */\n      dup3\n        /* \"#utility.yul\":14515:14516   */\n      dup2\n        /* \"#utility.yul\":14512:14526   */\n      lt\n        /* \"#utility.yul\":14504:14712   */\n      iszero\n      tag_306\n      jumpi\n        /* \"#utility.yul\":14597:14606   */\n      dup5\n        /* \"#utility.yul\":14592:14595   */\n      dup10\n        /* \"#utility.yul\":14588:14607   */\n      add\n        /* \"#utility.yul\":14582:14608   */\n      mload\n        /* \"#utility.yul\":14574:14580   */\n      dup3\n        /* \"#utility.yul\":14567:14609   */\n      sstore\n        /* \"#utility.yul\":14648:14649   */\n      0x01\n        /* \"#utility.yul\":14640:14646   */\n      dup3\n        /* \"#utility.yul\":14636:14650   */\n      add\n        /* \"#utility.yul\":14626:14650   */\n      swap2\n      pop\n        /* \"#utility.yul\":14695:14697   */\n      0x20\n        /* \"#utility.yul\":14684:14693   */\n      dup6\n        /* \"#utility.yul\":14680:14698   */\n      add\n        /* \"#utility.yul\":14667:14698   */\n      swap5\n      pop\n        /* \"#utility.yul\":14541:14545   */\n      0x20\n        /* \"#utility.yul\":14538:14539   */\n      dup2\n        /* \"#utility.yul\":14534:14546   */\n      add\n        /* \"#utility.yul\":14529:14546   */\n      swap1\n      pop\n        /* \"#utility.yul\":14504:14712   */\n      jump(tag_304)\n    tag_306:\n        /* \"#utility.yul\":14740:14746   */\n      dup7\n        /* \"#utility.yul\":14731:14738   */\n      dup4\n        /* \"#utility.yul\":14728:14747   */\n      lt\n        /* \"#utility.yul\":14725:14904   */\n      iszero\n      tag_307\n      jumpi\n        /* \"#utility.yul\":14798:14807   */\n      dup5\n        /* \"#utility.yul\":14793:14796   */\n      dup10\n        /* \"#utility.yul\":14789:14808   */\n      add\n        /* \"#utility.yul\":14783:14809   */\n      mload\n        /* \"#utility.yul\":14841:14889   */\n      tag_308\n        /* \"#utility.yul\":14883:14887   */\n      0x1f\n        /* \"#utility.yul\":14875:14881   */\n      dup10\n        /* \"#utility.yul\":14871:14888   */\n      and\n        /* \"#utility.yul\":14860:14869   */\n      dup3\n        /* \"#utility.yul\":14841:14889   */\n      tag_130\n      jump\t// in\n    tag_308:\n        /* \"#utility.yul\":14833:14839   */\n      dup4\n        /* \"#utility.yul\":14826:14890   */\n      sstore\n        /* \"#utility.yul\":14748:14904   */\n      pop\n        /* \"#utility.yul\":14725:14904   */\n    tag_307:\n        /* \"#utility.yul\":14950:14951   */\n      0x01\n        /* \"#utility.yul\":14946:14947   */\n      0x02\n        /* \"#utility.yul\":14938:14944   */\n      dup9\n        /* \"#utility.yul\":14934:14948   */\n      mul\n        /* \"#utility.yul\":14930:14952   */\n      add\n        /* \"#utility.yul\":14924:14928   */\n      dup9\n        /* \"#utility.yul\":14917:14953   */\n      sstore\n        /* \"#utility.yul\":14352:14963   */\n      pop\n      pop\n      pop\n        /* \"#utility.yul\":14315:15202   */\n    tag_299:\n      pop\n        /* \"#utility.yul\":13905:15208   */\n      pop\n      pop\n      pop\n        /* \"#utility.yul\":13813:15208   */\n      pop\n      pop\n      jump\t// out\n        /* \"#utility.yul\":15214:15394   */\n    tag_132:\n        /* \"#utility.yul\":15262:15339   */\n      0x4e487b7100000000000000000000000000000000000000000000000000000000\n        /* \"#utility.yul\":15259:15260   */\n      0x00\n        /* \"#utility.yul\":15252:15340   */\n      mstore\n        /* \"#utility.yul\":15359:15363   */\n      0x11\n        /* \"#utility.yul\":15356:15357   */\n      0x04\n        /* \"#utility.yul\":15349:15364   */\n      mstore\n        /* \"#utility.yul\":15383:15387   */\n      0x24\n        /* \"#utility.yul\":15380:15381   */\n      0x00\n        /* \"#utility.yul\":15373:15388   */\n      revert\n        /* \"#utility.yul\":15400:15633   */\n    tag_57:\n        /* \"#utility.yul\":15439:15442   */\n      0x00\n        /* \"#utility.yul\":15462:15486   */\n      tag_311\n        /* \"#utility.yul\":15480:15485   */\n      dup3\n        /* \"#utility.yul\":15462:15486   */\n      tag_81\n      jump\t// in\n    tag_311:\n        /* \"#utility.yul\":15453:15486   */\n      swap2\n      pop\n        /* \"#utility.yul\":15508:15574   */\n      0xffffffffffffffffffffffffffffffffffffffffffffffffffffffffffffffff\n        /* \"#utility.yul\":15501:15506   */\n      dup3\n        /* \"#utility.yul\":15498:15575   */\n      sub\n        /* \"#utility.yul\":15495:15598   */\n      tag_312\n      jumpi\n        /* \"#utility.yul\":15578:15596   */\n      tag_313\n      tag_132\n      jump\t// in\n    tag_313:\n        /* \"#utility.yul\":15495:15598   */\n    tag_312:\n        /* \"#utility.yul\":15625:15626   */\n      0x01\n        /* \"#utility.yul\":15618:15623   */\n      dup3\n        /* \"#utility.yul\":15614:15627   */\n      add\n        /* \"#utility.yul\":15607:15627   */\n      swap1\n      pop\n        /* \"#utility.yul\":15400:15633   */\n      swap2\n      swap1\n      pop\n      jump\t// out\n        /* \"#utility.yul\":15639:15809   */\n    tag_133:\n        /* \"#utility.yul\":15779:15801   */\n      0x43726f6d6f20646f6573206e6f74206578697374000000000000000000000000\n        /* \"#utility.yul\":15775:15776   */\n      0x00\n        /* \"#utility.yul\":15767:15773   */\n      dup3\n        /* \"#utility.yul\":15763:15777   */\n      add\n        /* \"#utility.yul\":15756:15802   */\n      mstore\n        /* \"#utility.yul\":15639:15809   */\n      pop\n      jump\t// out\n        /* \"#utility.yul\":15815:16181   */\n    tag_134:\n        /* \"#utility.yul\":15957:15960   */\n      0x00\n        /* \"#utility.yul\":15978:16045   */\n      tag_316\n        /* \"#utility.yul\":16042:16044   */\n      0x14\n        /* \"#utility.yul\":16037:16040   */\n      dup4\n        /* \"#utility.yul\":15978:16045   */\n      tag_113\n      jump\t// in\n    tag_316:\n        /* \"#utility.yul\":15971:16045   */\n      swap2\n      pop\n        /* \"#utility.yul\":16054:16147   */\n      tag_317\n        /* \"#utility.yul\":16143:16146   */\n      dup3\n        /* \"#utility.yul\":16054:16147   */\n      tag_133\n      jump\t// in\n    tag_317:\n        /* \"#utility.yul\":16172:16174   */\n      0x20\n        /* \"#utility.yul\":16167:16170   */\n      dup3\n        /* \"#utility.yul\":16163:16175   */\n      add\n        /* \"#utility.yul\":16156:16175   */\n      swap1\n      pop\n        /* \"#utility.yul\":15815:16181   */\n      swap2\n      swap1\n      pop\n      jump\t// out\n        /* \"#utility.yul\":16187:16606   */\n    tag_66:\n        /* \"#utility.yul\":16353:16357   */\n      0x00\n        /* \"#utility.yul\":16391:16393   */\n      0x20\n        /* \"#utility.yul\":16380:16389   */\n      dup3\n        /* \"#utility.yul\":16376:16394   */\n      add\n        /* \"#utility.yul\":16368:16394   */\n      swap1\n      pop\n        /* \"#utility.yul\":16440:16449   */\n      dup2\n        /* \"#utility.yul\":16434:16438   */\n      dup2\n        /* \"#utility.yul\":16430:16450   */\n      sub\n        /* \"#utility.yul\":16426:16427   */\n      0x00\n        /* \"#utility.yul\":16415:16424   */\n      dup4\n        /* \"#utility.yul\":16411:16428   */\n      add\n        /* \"#utility.yul\":16404:16451   */\n      mstore\n        /* \"#utility.yul\":16468:16599   */\n      tag_319\n        /* \"#utility.yul\":16594:16598   */\n      dup2\n        /* \"#utility.yul\":16468:16599   */\n      tag_134\n      jump\t// in\n    tag_319:\n        /* \"#utility.yul\":16460:16599   */\n      swap1\n      pop\n        /* \"#utility.yul\":16187:16606   */\n      swap2\n      swap1\n      pop\n      jump\t// out\n        /* \"#utility.yul\":16612:16780   */\n    tag_135:\n        /* \"#utility.yul\":16752:16772   */\n      0x43726f6d6f20616c726561647920736f6c640000000000000000000000000000\n        /* \"#utility.yul\":16748:16749   */\n      0x00\n        /* \"#utility.yul\":16740:16746   */\n      dup3\n        /* \"#utility.yul\":16736:16750   */\n      add\n        /* \"#utility.yul\":16729:16773   */\n      mstore\n        /* \"#utility.yul\":16612:16780   */\n      pop\n      jump\t// out\n        /* \"#utility.yul\":16786:17152   */\n    tag_136:\n        /* \"#utility.yul\":16928:16931   */\n      0x00\n        /* \"#utility.yul\":16949:17016   */\n      tag_322\n        /* \"#utility.yul\":17013:17015   */\n      0x12\n        /* \"#utility.yul\":17008:17011   */\n      dup4\n        /* \"#utility.yul\":16949:17016   */\n      tag_113\n      jump\t// in\n    tag_322:\n        /* \"#utility.yul\":16942:17016   */\n      swap2\n      pop\n        /* \"#utility.yul\":17025:17118   */\n      tag_323\n        /* \"#utility.yul\":17114:17117   */\n      dup3\n        /* \"#utility.yul\":17025:17118   */\n      tag_135\n      jump\t// in\n    tag_323:\n        /* \"#utility.yul\":17143:17145   */\n      0x20\n        /* \"#utility.yul\":17138:17141   */\n      dup3\n        /* \"#utility.yul\":17134:17146   */\n      add\n        /* \"#utility.yul\":17127:17146   */\n      swap1\n      pop\n        /* \"#utility.yul\":16786:17152   */\n      swap2\n      swap1\n      pop\n      jump\t// out\n        /* \"#utility.yul\":17158:17577   */\n    tag_69:\n        /* \"#utility.yul\":17324:17328   */\n      0x00\n        /* \"#utility.yul\":17362:17364   */\n      0x20\n        /* \"#utility.yul\":17351:17360   */\n      dup3\n        /* \"#utility.yul\":17347:17365   */\n      add\n        /* \"#utility.yul\":17339:17365   */\n      swap1\n      pop\n        /* \"#utility.yul\":17411:17420   */\n      dup2\n        /* \"#utility.yul\":17405:17409   */\n      dup2\n        /* \"#utility.yul\":17401:17421   */\n      sub\n        /* \"#utility.yul\":17397:17398   */\n      0x00\n        /* \"#utility.yul\":17386:17395   */\n      dup4\n        /* \"#utility.yul\":17382:17399   */\n      add\n        /* \"#utility.yul\":17375:17422   */\n      mstore\n        /* \"#utility.yul\":17439:17570   */\n      tag_325\n        /* \"#utility.yul\":17565:17569   */\n      dup2\n        /* \"#utility.yul\":17439:17570   */\n      tag_136\n      jump\t// in\n    tag_325:\n        /* \"#utility.yul\":17431:17570   */\n      swap1\n      pop\n        /* \"#utility.yul\":17158:17577   */\n      swap2\n      swap1\n      pop\n      jump\t// out\n        /* \"#utility.yul\":17583:18025   */\n    tag_71:\n        /* \"#utility.yul\":17732:17736   */\n      0x00\n        /* \"#utility.yul\":17770:17772   */\n      0x60\n        /* \"#utility.yul\":17759:17768   */\n      dup3\n        /* \"#utility.yul\":17755:17773   */\n      add\n        /* \"#utility.yul\":17747:17773   */\n      swap1\n      pop\n        /* \"#utility.yul\":17783:17854   */\n      tag_327\n        /* \"#utility.yul\":17851:17852   */\n      0x00\n        /* \"#utility.yul\":17840:17849   */\n      dup4\n        /* \"#utility.yul\":17836:17853   */\n      add\n        /* \"#utility.yul\":17827:17833   */\n      dup7\n        /* \"#utility.yul\":17783:17854   */\n      tag_103\n      jump\t// in\n    tag_327:\n        /* \"#utility.yul\":17864:17936   */\n      tag_328\n        /* \"#utility.yul\":17932:17934   */\n      0x20\n        /* \"#utility.yul\":17921:17930   */\n      dup4\n        /* \"#utility.yul\":17917:17935   */\n      add\n        /* \"#utility.yul\":17908:17914   */\n      dup6\n        /* \"#utility.yul\":17864:17936   */\n      tag_103\n      jump\t// in\n    tag_328:\n        /* \"#utility.yul\":17946:18018   */\n      tag_329\n        /* \"#utility.yul\":18014:18016   */\n      0x40\n        /* \"#utility.yul\":18003:18012   */\n      dup4\n        /* \"#utility.yul\":17999:18017   */\n      add\n        /* \"#utility.yul\":17990:17996   */\n      dup5\n        /* \"#utility.yul\":17946:18018   */\n      tag_82\n      jump\t// in\n    tag_329:\n        /* \"#utility.yul\":17583:18025   */\n      swap5\n      swap4\n      pop\n      pop\n      pop\n      pop\n      jump\t// out\n        /* \"#utility.yul\":18031:18121   */\n    tag_137:\n        /* \"#utility.yul\":18065:18072   */\n      0x00\n        /* \"#utility.yul\":18108:18113   */\n      dup2\n        /* \"#utility.yul\":18101:18114   */\n      iszero\n        /* \"#utility.yul\":18094:18115   */\n      iszero\n        /* \"#utility.yul\":18083:18115   */\n      swap1\n      pop\n        /* \"#utility.yul\":18031:18121   */\n      swap2\n      swap1\n      pop\n      jump\t// out\n        /* \"#utility.yul\":18127:18243   */\n    tag_138:\n        /* \"#utility.yul\":18197:18218   */\n      tag_332\n        /* \"#utility.yul\":18212:18217   */\n      dup2\n        /* \"#utility.yul\":18197:18218   */\n      tag_137\n      jump\t// in\n    tag_332:\n        /* \"#utility.yul\":18190:18195   */\n      dup2\n        /* \"#utility.yul\":18187:18219   */\n      eq\n        /* \"#utility.yul\":18177:18237   */\n      tag_333\n      jumpi\n        /* \"#utility.yul\":18233:18234   */\n      0x00\n        /* \"#utility.yul\":18230:18231   */\n      dup1\n        /* \"#utility.yul\":18223:18235   */\n      revert\n        /* \"#utility.yul\":18177:18237   */\n    tag_333:\n        /* \"#utility.yul\":18127:18243   */\n      pop\n      jump\t// out\n        /* \"#utility.yul\":18249:18386   */\n    tag_139:\n        /* \"#utility.yul\":18303:18308   */\n      0x00\n        /* \"#utility.yul\":18334:18340   */\n      dup2\n        /* \"#utility.yul\":18328:18341   */\n      mload\n        /* \"#utility.yul\":18319:18341   */\n      swap1\n      pop\n        /* \"#utility.yul\":18350:18380   */\n      tag_335\n        /* \"#utility.yul\":18374:18379   */\n      dup2\n        /* \"#utility.yul\":18350:18380   */\n      tag_138\n      jump\t// in\n    tag_335:\n        /* \"#utility.yul\":18249:18386   */\n      swap3\n      swap2\n      pop\n      pop\n      jump\t// out\n        /* \"#utility.yul\":18392:18737   */\n    tag_75:\n        /* \"#utility.yul\":18459:18465   */\n      0x00\n        /* \"#utility.yul\":18508:18510   */\n      0x20\n        /* \"#utility.yul\":18496:18505   */\n      dup3\n        /* \"#utility.yul\":18487:18494   */\n      dup5\n        /* \"#utility.yul\":18483:18506   */\n      sub\n        /* \"#utility.yul\":18479:18511   */\n      slt\n        /* \"#utility.yul\":18476:18595   */\n      iszero\n      tag_337\n      jumpi\n        /* \"#utility.yul\":18514:18593   */\n      tag_338\n      tag_90\n      jump\t// in\n    tag_338:\n        /* \"#utility.yul\":18476:18595   */\n    tag_337:\n        /* \"#utility.yul\":18634:18635   */\n      0x00\n        /* \"#utility.yul\":18659:18720   */\n      tag_339\n        /* \"#utility.yul\":18712:18719   */\n      dup5\n        /* \"#utility.yul\":18703:18709   */\n      dup3\n        /* \"#utility.yul\":18692:18701   */\n      dup6\n        /* \"#utility.yul\":18688:18710   */\n      add\n        /* \"#utility.yul\":18659:18720   */\n      tag_139\n      jump\t// in\n    tag_339:\n        /* \"#utility.yul\":18649:18720   */\n      swap2\n      pop\n        /* \"#utility.yul\":18605:18730   */\n      pop\n        /* \"#utility.yul\":18392:18737   */\n      swap3\n      swap2\n      pop\n      pop\n      jump\t// out\n        /* \"#utility.yul\":18743:18914   */\n    tag_140:\n        /* \"#utility.yul\":18883:18906   */\n      0x546f6b656e207472616e73666572206661696c65640000000000000000000000\n        /* \"#utility.yul\":18879:18880   */\n      0x00\n        /* \"#utility.yul\":18871:18877   */\n      dup3\n        /* \"#utility.yul\":18867:18881   */\n      add\n        /* \"#utility.yul\":18860:18907   */\n      mstore\n        /* \"#utility.yul\":18743:18914   */\n      pop\n      jump\t// out\n        /* \"#utility.yul\":18920:19286   */\n    tag_141:\n        /* \"#utility.yul\":19062:19065   */\n      0x00\n        /* \"#utility.yul\":19083:19150   */\n      tag_342\n        /* \"#utility.yul\":19147:19149   */\n      0x15\n        /* \"#utility.yul\":19142:19145   */\n      dup4\n        /* \"#utility.yul\":19083:19150   */\n      tag_113\n      jump\t// in\n    tag_342:\n        /* \"#utility.yul\":19076:19150   */\n      swap2\n      pop\n        /* \"#utility.yul\":19159:19252   */\n      tag_343\n        /* \"#utility.yul\":19248:19251   */\n      dup3\n        /* \"#utility.yul\":19159:19252   */\n      tag_140\n      jump\t// in\n    tag_343:\n        /* \"#utility.yul\":19277:19279   */\n      0x20\n        /* \"#utility.yul\":19272:19275   */\n      dup3\n        /* \"#utility.yul\":19268:19280   */\n      add\n        /* \"#utility.yul\":19261:19280   */\n      swap1\n      pop\n        /* \"#utility.yul\":18920:19286   */\n      swap2\n      swap1\n      pop\n      jump\t// out\n        /* \"#utility.yul\":19292:19711   */\n    tag_78:\n        /* \"#utility.yul\":19458:19462   */\n      0x00\n        /* \"#utility.yul\":19496:19498   */\n      0x20\n        /* \"#utility.yul\":19485:19494   */\n      dup3\n        /* \"#utility.yul\":19481:19499   */\n      add\n        /* \"#utility.yul\":19473:19499   */\n      swap1\n      pop\n        /* \"#utility.yul\":19545:19554   */\n      dup2\n        /* \"#utility.yul\":19539:19543   */\n      dup2\n        /* \"#utility.yul\":19535:19555   */\n      sub\n        /* \"#utility.yul\":19531:19532   */\n      0x00\n        /* \"#utility.yul\":19520:19529   */\n      dup4\n        /* \"#utility.yul\":19516:19533   */\n      add\n        /* \"#utility.yul\":19509:19556   */\n      mstore\n        /* \"#utility.yul\":19573:19704   */\n      tag_345\n        /* \"#utility.yul\":19699:19703   */\n      dup2\n        /* \"#utility.yul\":19573:19704   */\n      tag_141\n      jump\t// in\n    tag_345:\n        /* \"#utility.yul\":19565:19704   */\n      swap1\n      pop\n        /* \"#utility.yul\":19292:19711   */\n      swap2\n      swap1\n      pop\n      jump\t// out\n        /* \"#utility.yul\":19717:20049   */\n    tag_80:\n        /* \"#utility.yul\":19838:19842   */\n      0x00\n        /* \"#utility.yul\":19876:19878   */\n      0x40\n        /* \"#utility.yul\":19865:19874   */\n      dup3\n        /* \"#utility.yul\":19861:19879   */\n      add\n        /* \"#utility.yul\":19853:19879   */\n      swap1\n      pop\n        /* \"#utility.yul\":19889:19960   */\n      tag_347\n        /* \"#utility.yul\":19957:19958   */\n      0x00\n        /* \"#utility.yul\":19946:19955   */\n      dup4\n        /* \"#utility.yul\":19942:19959   */\n      add\n        /* \"#utility.yul\":19933:19939   */\n      dup6\n        /* \"#utility.yul\":19889:19960   */\n      tag_82\n      jump\t// in\n    tag_347:\n        /* \"#utility.yul\":19970:20042   */\n      tag_348\n        /* \"#utility.yul\":20038:20040   */\n      0x20\n        /* \"#utility.yul\":20027:20036   */\n      dup4\n        /* \"#utility.yul\":20023:20041   */\n      add\n        /* \"#utility.yul\":20014:20020   */\n      dup5\n        /* \"#utility.yul\":19970:20042   */\n      tag_103\n      jump\t// in\n    tag_348:\n        /* \"#utility.yul\":19717:20049   */\n      swap4\n      swap3\n      pop\n      pop\n      pop\n      jump\t// out\n\n    auxdata: 0xa264697066735822122007d158d8bc70685b7349c3b4d232af1527e855be65d175d2083bd1e89e926d1064736f6c63430008140033\n}\n",
				"bytecode": {
					"linkReferences": {},
					"object": "608060405234801562000010575f80fd5b506040516200138a3803806200138a833981810160405281019062000036919062000121565b805f806101000a81548173ffffffffffffffffffffffffffffffffffffffff021916908373ffffffffffffffffffffffffffffffffffffffff1602179055503360015f6101000a81548173ffffffffffffffffffffffffffffffffffffffff021916908373ffffffffffffffffffffffffffffffffffffffff1602179055505062000151565b5f80fd5b5f73ffffffffffffffffffffffffffffffffffffffff82169050919050565b5f620000eb82620000c0565b9050919050565b620000fd81620000df565b811462000108575f80fd5b50565b5f815190506200011b81620000f2565b92915050565b5f60208284031215620001395762000138620000bc565b5b5f62000148848285016200010b565b91505092915050565b61122b806200015f5f395ff3fe608060405234801561000f575f80fd5b506004361061007b575f3560e01c80638da5cb5b116100595780638da5cb5b146100eb578063a1a3efc714610109578063e11c15e314610125578063f0ad4662146101585761007b565b806309a645f21461007f5780633fa36d9f1461009d57806377540568146100bb575b5f80fd5b610087610174565b60405161009491906107da565b60405180910390f35b6100a561017a565b6040516100b2919061086d565b60405180910390f35b6100d560048036038101906100d091906108c1565b61019d565b6040516100e29190610a05565b60405180910390f35b6100f36102c0565b6040516101009190610a34565b60405180910390f35b610123600480360381019061011e9190610b79565b6102e5565b005b61013f600480360381019061013a91906108c1565b61044c565b60405161014f9493929190610c1b565b60405180910390f35b610172600480360381019061016d91906108c1565b61051d565b005b60035481565b5f8054906101000a900473ffffffffffffffffffffffffffffffffffffffff1681565b6101a5610787565b60025f8381526020019081526020015f206040518060800160405290815f82015481526020016001820180546101da90610c92565b80601f016020809104026020016040519081016040528092919081815260200182805461020690610c92565b80156102515780601f1061022857610100808354040283529160200191610251565b820191905f5260205f20905b81548152906001019060200180831161023457829003601f168201915b5050505050815260200160028201548152602001600382015f9054906101000a900473ffffffffffffffffffffffffffffffffffffffff1673ffffffffffffffffffffffffffffffffffffffff1673ffffffffffffffffffffffffffffffffffffffff16815250509050919050565b60015f9054906101000a900473ffffffffffffffffffffffffffffffffffffffff1681565b60015f9054906101000a900473ffffffffffffffffffffffffffffffffffffffff1673ffffffffffffffffffffffffffffffffffffffff163373ffffffffffffffffffffffffffffffffffffffff1614610374576040517f08c379a000000000000000000000000000000000000000000000000000000000815260040161036b90610d0c565b60405180910390fd5b604051806080016040528060035481526020018381526020018281526020015f73ffffffffffffffffffffffffffffffffffffffff1681525060025f60035481526020019081526020015f205f820151815f015560208201518160010190816103dd9190610ebe565b50604082015181600201556060820151816003015f6101000a81548173ffffffffffffffffffffffffffffffffffffffff021916908373ffffffffffffffffffffffffffffffffffffffff16021790555090505060035f81548092919061044390610fba565b91905055505050565b6002602052805f5260405f205f91509050805f01549080600101805461047190610c92565b80601f016020809104026020016040519081016040528092919081815260200182805461049d90610c92565b80156104e85780601f106104bf576101008083540402835291602001916104e8565b820191905f5260205f20905b8154815290600101906020018083116104cb57829003601f168201915b505050505090806002015490806003015f9054906101000a900473ffffffffffffffffffffffffffffffffffffffff16905084565b5f60025f8381526020019081526020015f2090505f816002015411610577576040517f08c379a000000000000000000000000000000000000000000000000000000000815260040161056e9061104b565b60405180910390fd5b5f73ffffffffffffffffffffffffffffffffffffffff16816003015f9054906101000a900473ffffffffffffffffffffffffffffffffffffffff1673ffffffffffffffffffffffffffffffffffffffff1614610608576040517f08c379a00000000000000000000000000000000000000000000000000000000081526004016105ff906110b3565b60405180910390fd5b5f8054906101000a900473ffffffffffffffffffffffffffffffffffffffff1673ffffffffffffffffffffffffffffffffffffffff166323b872dd3360015f9054906101000a900473ffffffffffffffffffffffffffffffffffffffff1684600201546040518463ffffffff1660e01b8152600401610689939291906110d1565b6020604051808303815f875af11580156106a5573d5f803e3d5ffd5b505050506040513d601f19601f820116820180604052508101906106c9919061113b565b610708576040517f08c379a00000000000000000000000000000000000000000000000000000000081526004016106ff906111b0565b60405180910390fd5b33816003015f6101000a81548173ffffffffffffffffffffffffffffffffffffffff021916908373ffffffffffffffffffffffffffffffffffffffff1602179055507f64121c091d212cc0d09c5d2fdc983461417ce2de95c18222bbb006564e9d31c5823360405161077b9291906111ce565b60405180910390a15050565b60405180608001604052805f8152602001606081526020015f81526020015f73ffffffffffffffffffffffffffffffffffffffff1681525090565b5f819050919050565b6107d4816107c2565b82525050565b5f6020820190506107ed5f8301846107cb565b92915050565b5f73ffffffffffffffffffffffffffffffffffffffff82169050919050565b5f819050919050565b5f61083561083061082b846107f3565b610812565b6107f3565b9050919050565b5f6108468261081b565b9050919050565b5f6108578261083c565b9050919050565b6108678161084d565b82525050565b5f6020820190506108805f83018461085e565b92915050565b5f604051905090565b5f80fd5b5f80fd5b6108a0816107c2565b81146108aa575f80fd5b50565b5f813590506108bb81610897565b92915050565b5f602082840312156108d6576108d561088f565b5b5f6108e3848285016108ad565b91505092915050565b6108f5816107c2565b82525050565b5f81519050919050565b5f82825260208201905092915050565b5f5b83811015610932578082015181840152602081019050610917565b5f8484015250505050565b5f601f19601f8301169050919050565b5f610957826108fb565b6109618185610905565b9350610971818560208601610915565b61097a8161093d565b840191505092915050565b5f61098f826107f3565b9050919050565b61099f81610985565b82525050565b5f608083015f8301516109ba5f8601826108ec565b50602083015184820360208601526109d2828261094d565b91505060408301516109e760408601826108ec565b5060608301516109fa6060860182610996565b508091505092915050565b5f6020820190508181035f830152610a1d81846109a5565b905092915050565b610a2e81610985565b82525050565b5f602082019050610a475f830184610a25565b92915050565b5f80fd5b5f80fd5b7f4e487b71000000000000000000000000000000000000000000000000000000005f52604160045260245ffd5b610a8b8261093d565b810181811067ffffffffffffffff82111715610aaa57610aa9610a55565b5b80604052505050565b5f610abc610886565b9050610ac88282610a82565b919050565b5f67ffffffffffffffff821115610ae757610ae6610a55565b5b610af08261093d565b9050602081019050919050565b828183375f83830152505050565b5f610b1d610b1884610acd565b610ab3565b905082815260208101848484011115610b3957610b38610a51565b5b610b44848285610afd565b509392505050565b5f82601f830112610b6057610b5f610a4d565b5b8135610b70848260208601610b0b565b91505092915050565b5f8060408385031215610b8f57610b8e61088f565b5b5f83013567ffffffffffffffff811115610bac57610bab610893565b5b610bb885828601610b4c565b9250506020610bc9858286016108ad565b9150509250929050565b5f82825260208201905092915050565b5f610bed826108fb565b610bf78185610bd3565b9350610c07818560208601610915565b610c108161093d565b840191505092915050565b5f608082019050610c2e5f8301876107cb565b8181036020830152610c408186610be3565b9050610c4f60408301856107cb565b610c5c6060830184610a25565b95945050505050565b7f4e487b71000000000000000000000000000000000000000000000000000000005f52602260045260245ffd5b5f6002820490506001821680610ca957607f821691505b602082108103610cbc57610cbb610c65565b5b50919050565b7f4f6e6c79206f776e65722063616e206372656174652063726f6d6f73000000005f82015250565b5f610cf6601c83610bd3565b9150610d0182610cc2565b602082019050919050565b5f6020820190508181035f830152610d2381610cea565b9050919050565b5f819050815f5260205f209050919050565b5f6020601f8301049050919050565b5f82821b905092915050565b5f60088302610d867fffffffffffffffffffffffffffffffffffffffffffffffffffffffffffffffff82610d4b565b610d908683610d4b565b95508019841693508086168417925050509392505050565b5f610dc2610dbd610db8846107c2565b610812565b6107c2565b9050919050565b5f819050919050565b610ddb83610da8565b610def610de782610dc9565b848454610d57565b825550505050565b5f90565b610e03610df7565b610e0e818484610dd2565b505050565b5b81811015610e3157610e265f82610dfb565b600181019050610e14565b5050565b601f821115610e7657610e4781610d2a565b610e5084610d3c565b81016020851015610e5f578190505b610e73610e6b85610d3c565b830182610e13565b50505b505050565b5f82821c905092915050565b5f610e965f1984600802610e7b565b1980831691505092915050565b5f610eae8383610e87565b9150826002028217905092915050565b610ec7826108fb565b67ffffffffffffffff811115610ee057610edf610a55565b5b610eea8254610c92565b610ef5828285610e35565b5f60209050601f831160018114610f26575f8415610f14578287015190505b610f1e8582610ea3565b865550610f85565b601f198416610f3486610d2a565b5f5b82811015610f5b57848901518255600182019150602085019450602081019050610f36565b86831015610f785784890151610f74601f891682610e87565b8355505b6001600288020188555050505b505050505050565b7f4e487b71000000000000000000000000000000000000000000000000000000005f52601160045260245ffd5b5f610fc4826107c2565b91507fffffffffffffffffffffffffffffffffffffffffffffffffffffffffffffffff8203610ff657610ff5610f8d565b5b600182019050919050565b7f43726f6d6f20646f6573206e6f742065786973740000000000000000000000005f82015250565b5f611035601483610bd3565b915061104082611001565b602082019050919050565b5f6020820190508181035f83015261106281611029565b9050919050565b7f43726f6d6f20616c726561647920736f6c6400000000000000000000000000005f82015250565b5f61109d601283610bd3565b91506110a882611069565b602082019050919050565b5f6020820190508181035f8301526110ca81611091565b9050919050565b5f6060820190506110e45f830186610a25565b6110f16020830185610a25565b6110fe60408301846107cb565b949350505050565b5f8115159050919050565b61111a81611106565b8114611124575f80fd5b50565b5f8151905061113581611111565b92915050565b5f602082840312156111505761114f61088f565b5b5f61115d84828501611127565b91505092915050565b7f546f6b656e207472616e73666572206661696c656400000000000000000000005f82015250565b5f61119a601583610bd3565b91506111a582611166565b602082019050919050565b5f6020820190508181035f8301526111c78161118e565b9050919050565b5f6040820190506111e15f8301856107cb565b6111ee6020830184610a25565b939250505056fea264697066735822122007d158d8bc70685b7349c3b4d232af1527e855be65d175d2083bd1e89e926d1064736f6c63430008140033",
					"opcodes": "PUSH1 0x80 PUSH1 0x40 MSTORE CALLVALUE DUP1 ISZERO PUSH3 0x10 JUMPI PUSH0 DUP1 REVERT JUMPDEST POP PUSH1 0x40 MLOAD PUSH3 0x138A CODESIZE SUB DUP1 PUSH3 0x138A DUP4 CODECOPY DUP2 DUP2 ADD PUSH1 0x40 MSTORE DUP2 ADD SWAP1 PUSH3 0x36 SWAP2 SWAP1 PUSH3 0x121 JUMP JUMPDEST DUP1 PUSH0 DUP1 PUSH2 0x100 EXP DUP2 SLOAD DUP2 PUSH20 0xFFFFFFFFFFFFFFFFFFFFFFFFFFFFFFFFFFFFFFFF MUL NOT AND SWAP1 DUP4 PUSH20 0xFFFFFFFFFFFFFFFFFFFFFFFFFFFFFFFFFFFFFFFF AND MUL OR SWAP1 SSTORE POP CALLER PUSH1 0x1 PUSH0 PUSH2 0x100 EXP DUP2 SLOAD DUP2 PUSH20 0xFFFFFFFFFFFFFFFFFFFFFFFFFFFFFFFFFFFFFFFF MUL NOT AND SWAP1 DUP4 PUSH20 0xFFFFFFFFFFFFFFFFFFFFFFFFFFFFFFFFFFFFFFFF AND MUL OR SWAP1 SSTORE POP POP PUSH3 0x151 JUMP JUMPDEST PUSH0 DUP1 REVERT JUMPDEST PUSH0 PUSH20 0xFFFFFFFFFFFFFFFFFFFFFFFFFFFFFFFFFFFFFFFF DUP3 AND SWAP1 POP SWAP2 SWAP1 POP JUMP JUMPDEST PUSH0 PUSH3 0xEB DUP3 PUSH3 0xC0 JUMP JUMPDEST SWAP1 POP SWAP2 SWAP1 POP JUMP JUMPDEST PUSH3 0xFD DUP2 PUSH3 0xDF JUMP JUMPDEST DUP2 EQ PUSH3 0x108 JUMPI PUSH0 DUP1 REVERT JUMPDEST POP JUMP JUMPDEST PUSH0 DUP2 MLOAD SWAP1 POP PUSH3 0x11B DUP2 PUSH3 0xF2 JUMP JUMPDEST SWAP3 SWAP2 POP POP JUMP JUMPDEST PUSH0 PUSH1 0x20 DUP3 DUP5 SUB SLT ISZERO PUSH3 0x139 JUMPI PUSH3 0x138 PUSH3 0xBC JUMP JUMPDEST JUMPDEST PUSH0 PUSH3 0x148 DUP5 DUP3 DUP6 ADD PUSH3 0x10B JUMP JUMPDEST SWAP2 POP POP SWAP3 SWAP2 POP POP JUMP JUMPDEST PUSH2 0x122B DUP1 PUSH3 0x15F PUSH0 CODECOPY PUSH0 RETURN INVALID PUSH1 0x80 PUSH1 0x40 MSTORE CALLVALUE DUP1 ISZERO PUSH2 0xF JUMPI PUSH0 DUP1 REVERT JUMPDEST POP PUSH1 0x4 CALLDATASIZE LT PUSH2 0x7B JUMPI PUSH0 CALLDATALOAD PUSH1 0xE0 SHR DUP1 PUSH4 0x8DA5CB5B GT PUSH2 0x59 JUMPI DUP1 PUSH4 0x8DA5CB5B EQ PUSH2 0xEB JUMPI DUP1 PUSH4 0xA1A3EFC7 EQ PUSH2 0x109 JUMPI DUP1 PUSH4 0xE11C15E3 EQ PUSH2 0x125 JUMPI DUP1 PUSH4 0xF0AD4662 EQ PUSH2 0x158 JUMPI PUSH2 0x7B JUMP JUMPDEST DUP1 PUSH4 0x9A645F2 EQ PUSH2 0x7F JUMPI DUP1 PUSH4 0x3FA36D9F EQ PUSH2 0x9D JUMPI DUP1 PUSH4 0x77540568 EQ PUSH2 0xBB JUMPI JUMPDEST PUSH0 DUP1 REVERT JUMPDEST PUSH2 0x87 PUSH2 0x174 JUMP JUMPDEST PUSH1 0x40 MLOAD PUSH2 0x94 SWAP2 SWAP1 PUSH2 0x7DA JUMP JUMPDEST PUSH1 0x40 MLOAD DUP1 SWAP2 SUB SWAP1 RETURN JUMPDEST PUSH2 0xA5 PUSH2 0x17A JUMP JUMPDEST PUSH1 0x40 MLOAD PUSH2 0xB2 SWAP2 SWAP1 PUSH2 0x86D JUMP JUMPDEST PUSH1 0x40 MLOAD DUP1 SWAP2 SUB SWAP1 RETURN JUMPDEST PUSH2 0xD5 PUSH1 0x4 DUP1 CALLDATASIZE SUB DUP2 ADD SWAP1 PUSH2 0xD0 SWAP2 SWAP1 PUSH2 0x8C1 JUMP JUMPDEST PUSH2 0x19D JUMP JUMPDEST PUSH1 0x40 MLOAD PUSH2 0xE2 SWAP2 SWAP1 PUSH2 0xA05 JUMP JUMPDEST PUSH1 0x40 MLOAD DUP1 SWAP2 SUB SWAP1 RETURN JUMPDEST PUSH2 0xF3 PUSH2 0x2C0 JUMP JUMPDEST PUSH1 0x40 MLOAD PUSH2 0x100 SWAP2 SWAP1 PUSH2 0xA34 JUMP JUMPDEST PUSH1 0x40 MLOAD DUP1 SWAP2 SUB SWAP1 RETURN JUMPDEST PUSH2 0x123 PUSH1 0x4 DUP1 CALLDATASIZE SUB DUP2 ADD SWAP1 PUSH2 0x11E SWAP2 SWAP1 PUSH2 0xB79 JUMP JUMPDEST PUSH2 0x2E5 JUMP JUMPDEST STOP JUMPDEST PUSH2 0x13F PUSH1 0x4 DUP1 CALLDATASIZE SUB DUP2 ADD SWAP1 PUSH2 0x13A SWAP2 SWAP1 PUSH2 0x8C1 JUMP JUMPDEST PUSH2 0x44C JUMP JUMPDEST PUSH1 0x40 MLOAD PUSH2 0x14F SWAP5 SWAP4 SWAP3 SWAP2 SWAP1 PUSH2 0xC1B JUMP JUMPDEST PUSH1 0x40 MLOAD DUP1 SWAP2 SUB SWAP1 RETURN JUMPDEST PUSH2 0x172 PUSH1 0x4 DUP1 CALLDATASIZE SUB DUP2 ADD SWAP1 PUSH2 0x16D SWAP2 SWAP1 PUSH2 0x8C1 JUMP JUMPDEST PUSH2 0x51D JUMP JUMPDEST STOP JUMPDEST PUSH1 0x3 SLOAD DUP2 JUMP JUMPDEST PUSH0 DUP1 SLOAD SWAP1 PUSH2 0x100 EXP SWAP1 DIV PUSH20 0xFFFFFFFFFFFFFFFFFFFFFFFFFFFFFFFFFFFFFFFF AND DUP2 JUMP JUMPDEST PUSH2 0x1A5 PUSH2 0x787 JUMP JUMPDEST PUSH1 0x2 PUSH0 DUP4 DUP2 MSTORE PUSH1 0x20 ADD SWAP1 DUP2 MSTORE PUSH1 0x20 ADD PUSH0 KECCAK256 PUSH1 0x40 MLOAD DUP1 PUSH1 0x80 ADD PUSH1 0x40 MSTORE SWAP1 DUP2 PUSH0 DUP3 ADD SLOAD DUP2 MSTORE PUSH1 0x20 ADD PUSH1 0x1 DUP3 ADD DUP1 SLOAD PUSH2 0x1DA SWAP1 PUSH2 0xC92 JUMP JUMPDEST DUP1 PUSH1 0x1F ADD PUSH1 0x20 DUP1 SWAP2 DIV MUL PUSH1 0x20 ADD PUSH1 0x40 MLOAD SWAP1 DUP2 ADD PUSH1 0x40 MSTORE DUP1 SWAP3 SWAP2 SWAP1 DUP2 DUP2 MSTORE PUSH1 0x20 ADD DUP3 DUP1 SLOAD PUSH2 0x206 SWAP1 PUSH2 0xC92 JUMP JUMPDEST DUP1 ISZERO PUSH2 0x251 JUMPI DUP1 PUSH1 0x1F LT PUSH2 0x228 JUMPI PUSH2 0x100 DUP1 DUP4 SLOAD DIV MUL DUP4 MSTORE SWAP2 PUSH1 0x20 ADD SWAP2 PUSH2 0x251 JUMP JUMPDEST DUP3 ADD SWAP2 SWAP1 PUSH0 MSTORE PUSH1 0x20 PUSH0 KECCAK256 SWAP1 JUMPDEST DUP2 SLOAD DUP2 MSTORE SWAP1 PUSH1 0x1 ADD SWAP1 PUSH1 0x20 ADD DUP1 DUP4 GT PUSH2 0x234 JUMPI DUP3 SWAP1 SUB PUSH1 0x1F AND DUP3 ADD SWAP2 JUMPDEST POP POP POP POP POP DUP2 MSTORE PUSH1 0x20 ADD PUSH1 0x2 DUP3 ADD SLOAD DUP2 MSTORE PUSH1 0x20 ADD PUSH1 0x3 DUP3 ADD PUSH0 SWAP1 SLOAD SWAP1 PUSH2 0x100 EXP SWAP1 DIV PUSH20 0xFFFFFFFFFFFFFFFFFFFFFFFFFFFFFFFFFFFFFFFF AND PUSH20 0xFFFFFFFFFFFFFFFFFFFFFFFFFFFFFFFFFFFFFFFF AND PUSH20 0xFFFFFFFFFFFFFFFFFFFFFFFFFFFFFFFFFFFFFFFF AND DUP2 MSTORE POP POP SWAP1 POP SWAP2 SWAP1 POP JUMP JUMPDEST PUSH1 0x1 PUSH0 SWAP1 SLOAD SWAP1 PUSH2 0x100 EXP SWAP1 DIV PUSH20 0xFFFFFFFFFFFFFFFFFFFFFFFFFFFFFFFFFFFFFFFF AND DUP2 JUMP JUMPDEST PUSH1 0x1 PUSH0 SWAP1 SLOAD SWAP1 PUSH2 0x100 EXP SWAP1 DIV PUSH20 0xFFFFFFFFFFFFFFFFFFFFFFFFFFFFFFFFFFFFFFFF AND PUSH20 0xFFFFFFFFFFFFFFFFFFFFFFFFFFFFFFFFFFFFFFFF AND CALLER PUSH20 0xFFFFFFFFFFFFFFFFFFFFFFFFFFFFFFFFFFFFFFFF AND EQ PUSH2 0x374 JUMPI PUSH1 0x40 MLOAD PUSH32 0x8C379A000000000000000000000000000000000000000000000000000000000 DUP2 MSTORE PUSH1 0x4 ADD PUSH2 0x36B SWAP1 PUSH2 0xD0C JUMP JUMPDEST PUSH1 0x40 MLOAD DUP1 SWAP2 SUB SWAP1 REVERT JUMPDEST PUSH1 0x40 MLOAD DUP1 PUSH1 0x80 ADD PUSH1 0x40 MSTORE DUP1 PUSH1 0x3 SLOAD DUP2 MSTORE PUSH1 0x20 ADD DUP4 DUP2 MSTORE PUSH1 0x20 ADD DUP3 DUP2 MSTORE PUSH1 0x20 ADD PUSH0 PUSH20 0xFFFFFFFFFFFFFFFFFFFFFFFFFFFFFFFFFFFFFFFF AND DUP2 MSTORE POP PUSH1 0x2 PUSH0 PUSH1 0x3 SLOAD DUP2 MSTORE PUSH1 0x20 ADD SWAP1 DUP2 MSTORE PUSH1 0x20 ADD PUSH0 KECCAK256 PUSH0 DUP3 ADD MLOAD DUP2 PUSH0 ADD SSTORE PUSH1 0x20 DUP3 ADD MLOAD DUP2 PUSH1 0x1 ADD SWAP1 DUP2 PUSH2 0x3DD SWAP2 SWAP1 PUSH2 0xEBE JUMP JUMPDEST POP PUSH1 0x40 DUP3 ADD MLOAD DUP2 PUSH1 0x2 ADD SSTORE PUSH1 0x60 DUP3 ADD MLOAD DUP2 PUSH1 0x3 ADD PUSH0 PUSH2 0x100 EXP DUP2 SLOAD DUP2 PUSH20 0xFFFFFFFFFFFFFFFFFFFFFFFFFFFFFFFFFFFFFFFF MUL NOT AND SWAP1 DUP4 PUSH20 0xFFFFFFFFFFFFFFFFFFFFFFFFFFFFFFFFFFFFFFFF AND MUL OR SWAP1 SSTORE POP SWAP1 POP POP PUSH1 0x3 PUSH0 DUP2 SLOAD DUP1 SWAP3 SWAP2 SWAP1 PUSH2 0x443 SWAP1 PUSH2 0xFBA JUMP JUMPDEST SWAP2 SWAP1 POP SSTORE POP POP POP JUMP JUMPDEST PUSH1 0x2 PUSH1 0x20 MSTORE DUP1 PUSH0 MSTORE PUSH1 0x40 PUSH0 KECCAK256 PUSH0 SWAP2 POP SWAP1 POP DUP1 PUSH0 ADD SLOAD SWAP1 DUP1 PUSH1 0x1 ADD DUP1 SLOAD PUSH2 0x471 SWAP1 PUSH2 0xC92 JUMP JUMPDEST DUP1 PUSH1 0x1F ADD PUSH1 0x20 DUP1 SWAP2 DIV MUL PUSH1 0x20 ADD PUSH1 0x40 MLOAD SWAP1 DUP2 ADD PUSH1 0x40 MSTORE DUP1 SWAP3 SWAP2 SWAP1 DUP2 DUP2 MSTORE PUSH1 0x20 ADD DUP3 DUP1 SLOAD PUSH2 0x49D SWAP1 PUSH2 0xC92 JUMP JUMPDEST DUP1 ISZERO PUSH2 0x4E8 JUMPI DUP1 PUSH1 0x1F LT PUSH2 0x4BF JUMPI PUSH2 0x100 DUP1 DUP4 SLOAD DIV MUL DUP4 MSTORE SWAP2 PUSH1 0x20 ADD SWAP2 PUSH2 0x4E8 JUMP JUMPDEST DUP3 ADD SWAP2 SWAP1 PUSH0 MSTORE PUSH1 0x20 PUSH0 KECCAK256 SWAP1 JUMPDEST DUP2 SLOAD DUP2 MSTORE SWAP1 PUSH1 0x1 ADD SWAP1 PUSH1 0x20 ADD DUP1 DUP4 GT PUSH2 0x4CB JUMPI DUP3 SWAP1 SUB PUSH1 0x1F AND DUP3 ADD SWAP2 JUMPDEST POP POP POP POP POP SWAP1 DUP1 PUSH1 0x2 ADD SLOAD SWAP1 DUP1 PUSH1 0x3 ADD PUSH0 SWAP1 SLOAD SWAP1 PUSH2 0x100 EXP SWAP1 DIV PUSH20 0xFFFFFFFFFFFFFFFFFFFFFFFFFFFFFFFFFFFFFFFF AND SWAP1 POP DUP5 JUMP JUMPDEST PUSH0 PUSH1 0x2 PUSH0 DUP4 DUP2 MSTORE PUSH1 0x20 ADD SWAP1 DUP2 MSTORE PUSH1 0x20 ADD PUSH0 KECCAK256 SWAP1 POP PUSH0 DUP2 PUSH1 0x2 ADD SLOAD GT PUSH2 0x577 JUMPI PUSH1 0x40 MLOAD PUSH32 0x8C379A000000000000000000000000000000000000000000000000000000000 DUP2 MSTORE PUSH1 0x4 ADD PUSH2 0x56E SWAP1 PUSH2 0x104B JUMP JUMPDEST PUSH1 0x40 MLOAD DUP1 SWAP2 SUB SWAP1 REVERT JUMPDEST PUSH0 PUSH20 0xFFFFFFFFFFFFFFFFFFFFFFFFFFFFFFFFFFFFFFFF AND DUP2 PUSH1 0x3 ADD PUSH0 SWAP1 SLOAD SWAP1 PUSH2 0x100 EXP SWAP1 DIV PUSH20 0xFFFFFFFFFFFFFFFFFFFFFFFFFFFFFFFFFFFFFFFF AND PUSH20 0xFFFFFFFFFFFFFFFFFFFFFFFFFFFFFFFFFFFFFFFF AND EQ PUSH2 0x608 JUMPI PUSH1 0x40 MLOAD PUSH32 0x8C379A000000000000000000000000000000000000000000000000000000000 DUP2 MSTORE PUSH1 0x4 ADD PUSH2 0x5FF SWAP1 PUSH2 0x10B3 JUMP JUMPDEST PUSH1 0x40 MLOAD DUP1 SWAP2 SUB SWAP1 REVERT JUMPDEST PUSH0 DUP1 SLOAD SWAP1 PUSH2 0x100 EXP SWAP1 DIV PUSH20 0xFFFFFFFFFFFFFFFFFFFFFFFFFFFFFFFFFFFFFFFF AND PUSH20 0xFFFFFFFFFFFFFFFFFFFFFFFFFFFFFFFFFFFFFFFF AND PUSH4 0x23B872DD CALLER PUSH1 0x1 PUSH0 SWAP1 SLOAD SWAP1 PUSH2 0x100 EXP SWAP1 DIV PUSH20 0xFFFFFFFFFFFFFFFFFFFFFFFFFFFFFFFFFFFFFFFF AND DUP5 PUSH1 0x2 ADD SLOAD PUSH1 0x40 MLOAD DUP5 PUSH4 0xFFFFFFFF AND PUSH1 0xE0 SHL DUP2 MSTORE PUSH1 0x4 ADD PUSH2 0x689 SWAP4 SWAP3 SWAP2 SWAP1 PUSH2 0x10D1 JUMP JUMPDEST PUSH1 0x20 PUSH1 0x40 MLOAD DUP1 DUP4 SUB DUP2 PUSH0 DUP8 GAS CALL ISZERO DUP1 ISZERO PUSH2 0x6A5 JUMPI RETURNDATASIZE PUSH0 DUP1 RETURNDATACOPY RETURNDATASIZE PUSH0 REVERT JUMPDEST POP POP POP POP PUSH1 0x40 MLOAD RETURNDATASIZE PUSH1 0x1F NOT PUSH1 0x1F DUP3 ADD AND DUP3 ADD DUP1 PUSH1 0x40 MSTORE POP DUP2 ADD SWAP1 PUSH2 0x6C9 SWAP2 SWAP1 PUSH2 0x113B JUMP JUMPDEST PUSH2 0x708 JUMPI PUSH1 0x40 MLOAD PUSH32 0x8C379A000000000000000000000000000000000000000000000000000000000 DUP2 MSTORE PUSH1 0x4 ADD PUSH2 0x6FF SWAP1 PUSH2 0x11B0 JUMP JUMPDEST PUSH1 0x40 MLOAD DUP1 SWAP2 SUB SWAP1 REVERT JUMPDEST CALLER DUP2 PUSH1 0x3 ADD PUSH0 PUSH2 0x100 EXP DUP2 SLOAD DUP2 PUSH20 0xFFFFFFFFFFFFFFFFFFFFFFFFFFFFFFFFFFFFFFFF MUL NOT AND SWAP1 DUP4 PUSH20 0xFFFFFFFFFFFFFFFFFFFFFFFFFFFFFFFFFFFFFFFF AND MUL OR SWAP1 SSTORE POP PUSH32 0x64121C091D212CC0D09C5D2FDC983461417CE2DE95C18222BBB006564E9D31C5 DUP3 CALLER PUSH1 0x40 MLOAD PUSH2 0x77B SWAP3 SWAP2 SWAP1 PUSH2 0x11CE JUMP JUMPDEST PUSH1 0x40 MLOAD DUP1 SWAP2 SUB SWAP1 LOG1 POP POP JUMP JUMPDEST PUSH1 0x40 MLOAD DUP1 PUSH1 0x80 ADD PUSH1 0x40 MSTORE DUP1 PUSH0 DUP2 MSTORE PUSH1 0x20 ADD PUSH1 0x60 DUP2 MSTORE PUSH1 0x20 ADD PUSH0 DUP2 MSTORE PUSH1 0x20 ADD PUSH0 PUSH20 0xFFFFFFFFFFFFFFFFFFFFFFFFFFFFFFFFFFFFFFFF AND DUP2 MSTORE POP SWAP1 JUMP JUMPDEST PUSH0 DUP2 SWAP1 POP SWAP2 SWAP1 POP JUMP JUMPDEST PUSH2 0x7D4 DUP2 PUSH2 0x7C2 JUMP JUMPDEST DUP3 MSTORE POP POP JUMP JUMPDEST PUSH0 PUSH1 0x20 DUP3 ADD SWAP1 POP PUSH2 0x7ED PUSH0 DUP4 ADD DUP5 PUSH2 0x7CB JUMP JUMPDEST SWAP3 SWAP2 POP POP JUMP JUMPDEST PUSH0 PUSH20 0xFFFFFFFFFFFFFFFFFFFFFFFFFFFFFFFFFFFFFFFF DUP3 AND SWAP1 POP SWAP2 SWAP1 POP JUMP JUMPDEST PUSH0 DUP2 SWAP1 POP SWAP2 SWAP1 POP JUMP JUMPDEST PUSH0 PUSH2 0x835 PUSH2 0x830 PUSH2 0x82B DUP5 PUSH2 0x7F3 JUMP JUMPDEST PUSH2 0x812 JUMP JUMPDEST PUSH2 0x7F3 JUMP JUMPDEST SWAP1 POP SWAP2 SWAP1 POP JUMP JUMPDEST PUSH0 PUSH2 0x846 DUP3 PUSH2 0x81B JUMP JUMPDEST SWAP1 POP SWAP2 SWAP1 POP JUMP JUMPDEST PUSH0 PUSH2 0x857 DUP3 PUSH2 0x83C JUMP JUMPDEST SWAP1 POP SWAP2 SWAP1 POP JUMP JUMPDEST PUSH2 0x867 DUP2 PUSH2 0x84D JUMP JUMPDEST DUP3 MSTORE POP POP JUMP JUMPDEST PUSH0 PUSH1 0x20 DUP3 ADD SWAP1 POP PUSH2 0x880 PUSH0 DUP4 ADD DUP5 PUSH2 0x85E JUMP JUMPDEST SWAP3 SWAP2 POP POP JUMP JUMPDEST PUSH0 PUSH1 0x40 MLOAD SWAP1 POP SWAP1 JUMP JUMPDEST PUSH0 DUP1 REVERT JUMPDEST PUSH0 DUP1 REVERT JUMPDEST PUSH2 0x8A0 DUP2 PUSH2 0x7C2 JUMP JUMPDEST DUP2 EQ PUSH2 0x8AA JUMPI PUSH0 DUP1 REVERT JUMPDEST POP JUMP JUMPDEST PUSH0 DUP2 CALLDATALOAD SWAP1 POP PUSH2 0x8BB DUP2 PUSH2 0x897 JUMP JUMPDEST SWAP3 SWAP2 POP POP JUMP JUMPDEST PUSH0 PUSH1 0x20 DUP3 DUP5 SUB SLT ISZERO PUSH2 0x8D6 JUMPI PUSH2 0x8D5 PUSH2 0x88F JUMP JUMPDEST JUMPDEST PUSH0 PUSH2 0x8E3 DUP5 DUP3 DUP6 ADD PUSH2 0x8AD JUMP JUMPDEST SWAP2 POP POP SWAP3 SWAP2 POP POP JUMP JUMPDEST PUSH2 0x8F5 DUP2 PUSH2 0x7C2 JUMP JUMPDEST DUP3 MSTORE POP POP JUMP JUMPDEST PUSH0 DUP2 MLOAD SWAP1 POP SWAP2 SWAP1 POP JUMP JUMPDEST PUSH0 DUP3 DUP3 MSTORE PUSH1 0x20 DUP3 ADD SWAP1 POP SWAP3 SWAP2 POP POP JUMP JUMPDEST PUSH0 JUMPDEST DUP4 DUP2 LT ISZERO PUSH2 0x932 JUMPI DUP1 DUP3 ADD MLOAD DUP2 DUP5 ADD MSTORE PUSH1 0x20 DUP2 ADD SWAP1 POP PUSH2 0x917 JUMP JUMPDEST PUSH0 DUP5 DUP5 ADD MSTORE POP POP POP POP JUMP JUMPDEST PUSH0 PUSH1 0x1F NOT PUSH1 0x1F DUP4 ADD AND SWAP1 POP SWAP2 SWAP1 POP JUMP JUMPDEST PUSH0 PUSH2 0x957 DUP3 PUSH2 0x8FB JUMP JUMPDEST PUSH2 0x961 DUP2 DUP6 PUSH2 0x905 JUMP JUMPDEST SWAP4 POP PUSH2 0x971 DUP2 DUP6 PUSH1 0x20 DUP7 ADD PUSH2 0x915 JUMP JUMPDEST PUSH2 0x97A DUP2 PUSH2 0x93D JUMP JUMPDEST DUP5 ADD SWAP2 POP POP SWAP3 SWAP2 POP POP JUMP JUMPDEST PUSH0 PUSH2 0x98F DUP3 PUSH2 0x7F3 JUMP JUMPDEST SWAP1 POP SWAP2 SWAP1 POP JUMP JUMPDEST PUSH2 0x99F DUP2 PUSH2 0x985 JUMP JUMPDEST DUP3 MSTORE POP POP JUMP JUMPDEST PUSH0 PUSH1 0x80 DUP4 ADD PUSH0 DUP4 ADD MLOAD PUSH2 0x9BA PUSH0 DUP7 ADD DUP3 PUSH2 0x8EC JUMP JUMPDEST POP PUSH1 0x20 DUP4 ADD MLOAD DUP5 DUP3 SUB PUSH1 0x20 DUP7 ADD MSTORE PUSH2 0x9D2 DUP3 DUP3 PUSH2 0x94D JUMP JUMPDEST SWAP2 POP POP PUSH1 0x40 DUP4 ADD MLOAD PUSH2 0x9E7 PUSH1 0x40 DUP7 ADD DUP3 PUSH2 0x8EC JUMP JUMPDEST POP PUSH1 0x60 DUP4 ADD MLOAD PUSH2 0x9FA PUSH1 0x60 DUP7 ADD DUP3 PUSH2 0x996 JUMP JUMPDEST POP DUP1 SWAP2 POP POP SWAP3 SWAP2 POP POP JUMP JUMPDEST PUSH0 PUSH1 0x20 DUP3 ADD SWAP1 POP DUP2 DUP2 SUB PUSH0 DUP4 ADD MSTORE PUSH2 0xA1D DUP2 DUP5 PUSH2 0x9A5 JUMP JUMPDEST SWAP1 POP SWAP3 SWAP2 POP POP JUMP JUMPDEST PUSH2 0xA2E DUP2 PUSH2 0x985 JUMP JUMPDEST DUP3 MSTORE POP POP JUMP JUMPDEST PUSH0 PUSH1 0x20 DUP3 ADD SWAP1 POP PUSH2 0xA47 PUSH0 DUP4 ADD DUP5 PUSH2 0xA25 JUMP JUMPDEST SWAP3 SWAP2 POP POP JUMP JUMPDEST PUSH0 DUP1 REVERT JUMPDEST PUSH0 DUP1 REVERT JUMPDEST PUSH32 0x4E487B7100000000000000000000000000000000000000000000000000000000 PUSH0 MSTORE PUSH1 0x41 PUSH1 0x4 MSTORE PUSH1 0x24 PUSH0 REVERT JUMPDEST PUSH2 0xA8B DUP3 PUSH2 0x93D JUMP JUMPDEST DUP2 ADD DUP2 DUP2 LT PUSH8 0xFFFFFFFFFFFFFFFF DUP3 GT OR ISZERO PUSH2 0xAAA JUMPI PUSH2 0xAA9 PUSH2 0xA55 JUMP JUMPDEST JUMPDEST DUP1 PUSH1 0x40 MSTORE POP POP POP JUMP JUMPDEST PUSH0 PUSH2 0xABC PUSH2 0x886 JUMP JUMPDEST SWAP1 POP PUSH2 0xAC8 DUP3 DUP3 PUSH2 0xA82 JUMP JUMPDEST SWAP2 SWAP1 POP JUMP JUMPDEST PUSH0 PUSH8 0xFFFFFFFFFFFFFFFF DUP3 GT ISZERO PUSH2 0xAE7 JUMPI PUSH2 0xAE6 PUSH2 0xA55 JUMP JUMPDEST JUMPDEST PUSH2 0xAF0 DUP3 PUSH2 0x93D JUMP JUMPDEST SWAP1 POP PUSH1 0x20 DUP2 ADD SWAP1 POP SWAP2 SWAP1 POP JUMP JUMPDEST DUP3 DUP2 DUP4 CALLDATACOPY PUSH0 DUP4 DUP4 ADD MSTORE POP POP POP JUMP JUMPDEST PUSH0 PUSH2 0xB1D PUSH2 0xB18 DUP5 PUSH2 0xACD JUMP JUMPDEST PUSH2 0xAB3 JUMP JUMPDEST SWAP1 POP DUP3 DUP2 MSTORE PUSH1 0x20 DUP2 ADD DUP5 DUP5 DUP5 ADD GT ISZERO PUSH2 0xB39 JUMPI PUSH2 0xB38 PUSH2 0xA51 JUMP JUMPDEST JUMPDEST PUSH2 0xB44 DUP5 DUP3 DUP6 PUSH2 0xAFD JUMP JUMPDEST POP SWAP4 SWAP3 POP POP POP JUMP JUMPDEST PUSH0 DUP3 PUSH1 0x1F DUP4 ADD SLT PUSH2 0xB60 JUMPI PUSH2 0xB5F PUSH2 0xA4D JUMP JUMPDEST JUMPDEST DUP2 CALLDATALOAD PUSH2 0xB70 DUP5 DUP3 PUSH1 0x20 DUP7 ADD PUSH2 0xB0B JUMP JUMPDEST SWAP2 POP POP SWAP3 SWAP2 POP POP JUMP JUMPDEST PUSH0 DUP1 PUSH1 0x40 DUP4 DUP6 SUB SLT ISZERO PUSH2 0xB8F JUMPI PUSH2 0xB8E PUSH2 0x88F JUMP JUMPDEST JUMPDEST PUSH0 DUP4 ADD CALLDATALOAD PUSH8 0xFFFFFFFFFFFFFFFF DUP2 GT ISZERO PUSH2 0xBAC JUMPI PUSH2 0xBAB PUSH2 0x893 JUMP JUMPDEST JUMPDEST PUSH2 0xBB8 DUP6 DUP3 DUP7 ADD PUSH2 0xB4C JUMP JUMPDEST SWAP3 POP POP PUSH1 0x20 PUSH2 0xBC9 DUP6 DUP3 DUP7 ADD PUSH2 0x8AD JUMP JUMPDEST SWAP2 POP POP SWAP3 POP SWAP3 SWAP1 POP JUMP JUMPDEST PUSH0 DUP3 DUP3 MSTORE PUSH1 0x20 DUP3 ADD SWAP1 POP SWAP3 SWAP2 POP POP JUMP JUMPDEST PUSH0 PUSH2 0xBED DUP3 PUSH2 0x8FB JUMP JUMPDEST PUSH2 0xBF7 DUP2 DUP6 PUSH2 0xBD3 JUMP JUMPDEST SWAP4 POP PUSH2 0xC07 DUP2 DUP6 PUSH1 0x20 DUP7 ADD PUSH2 0x915 JUMP JUMPDEST PUSH2 0xC10 DUP2 PUSH2 0x93D JUMP JUMPDEST DUP5 ADD SWAP2 POP POP SWAP3 SWAP2 POP POP JUMP JUMPDEST PUSH0 PUSH1 0x80 DUP3 ADD SWAP1 POP PUSH2 0xC2E PUSH0 DUP4 ADD DUP8 PUSH2 0x7CB JUMP JUMPDEST DUP2 DUP2 SUB PUSH1 0x20 DUP4 ADD MSTORE PUSH2 0xC40 DUP2 DUP7 PUSH2 0xBE3 JUMP JUMPDEST SWAP1 POP PUSH2 0xC4F PUSH1 0x40 DUP4 ADD DUP6 PUSH2 0x7CB JUMP JUMPDEST PUSH2 0xC5C PUSH1 0x60 DUP4 ADD DUP5 PUSH2 0xA25 JUMP JUMPDEST SWAP6 SWAP5 POP POP POP POP POP JUMP JUMPDEST PUSH32 0x4E487B7100000000000000000000000000000000000000000000000000000000 PUSH0 MSTORE PUSH1 0x22 PUSH1 0x4 MSTORE PUSH1 0x24 PUSH0 REVERT JUMPDEST PUSH0 PUSH1 0x2 DUP3 DIV SWAP1 POP PUSH1 0x1 DUP3 AND DUP1 PUSH2 0xCA9 JUMPI PUSH1 0x7F DUP3 AND SWAP2 POP JUMPDEST PUSH1 0x20 DUP3 LT DUP2 SUB PUSH2 0xCBC JUMPI PUSH2 0xCBB PUSH2 0xC65 JUMP JUMPDEST JUMPDEST POP SWAP2 SWAP1 POP JUMP JUMPDEST PUSH32 0x4F6E6C79206F776E65722063616E206372656174652063726F6D6F7300000000 PUSH0 DUP3 ADD MSTORE POP JUMP JUMPDEST PUSH0 PUSH2 0xCF6 PUSH1 0x1C DUP4 PUSH2 0xBD3 JUMP JUMPDEST SWAP2 POP PUSH2 0xD01 DUP3 PUSH2 0xCC2 JUMP JUMPDEST PUSH1 0x20 DUP3 ADD SWAP1 POP SWAP2 SWAP1 POP JUMP JUMPDEST PUSH0 PUSH1 0x20 DUP3 ADD SWAP1 POP DUP2 DUP2 SUB PUSH0 DUP4 ADD MSTORE PUSH2 0xD23 DUP2 PUSH2 0xCEA JUMP JUMPDEST SWAP1 POP SWAP2 SWAP1 POP JUMP JUMPDEST PUSH0 DUP2 SWAP1 POP DUP2 PUSH0 MSTORE PUSH1 0x20 PUSH0 KECCAK256 SWAP1 POP SWAP2 SWAP1 POP JUMP JUMPDEST PUSH0 PUSH1 0x20 PUSH1 0x1F DUP4 ADD DIV SWAP1 POP SWAP2 SWAP1 POP JUMP JUMPDEST PUSH0 DUP3 DUP3 SHL SWAP1 POP SWAP3 SWAP2 POP POP JUMP JUMPDEST PUSH0 PUSH1 0x8 DUP4 MUL PUSH2 0xD86 PUSH32 0xFFFFFFFFFFFFFFFFFFFFFFFFFFFFFFFFFFFFFFFFFFFFFFFFFFFFFFFFFFFFFFFF DUP3 PUSH2 0xD4B JUMP JUMPDEST PUSH2 0xD90 DUP7 DUP4 PUSH2 0xD4B JUMP JUMPDEST SWAP6 POP DUP1 NOT DUP5 AND SWAP4 POP DUP1 DUP7 AND DUP5 OR SWAP3 POP POP POP SWAP4 SWAP3 POP POP POP JUMP JUMPDEST PUSH0 PUSH2 0xDC2 PUSH2 0xDBD PUSH2 0xDB8 DUP5 PUSH2 0x7C2 JUMP JUMPDEST PUSH2 0x812 JUMP JUMPDEST PUSH2 0x7C2 JUMP JUMPDEST SWAP1 POP SWAP2 SWAP1 POP JUMP JUMPDEST PUSH0 DUP2 SWAP1 POP SWAP2 SWAP1 POP JUMP JUMPDEST PUSH2 0xDDB DUP4 PUSH2 0xDA8 JUMP JUMPDEST PUSH2 0xDEF PUSH2 0xDE7 DUP3 PUSH2 0xDC9 JUMP JUMPDEST DUP5 DUP5 SLOAD PUSH2 0xD57 JUMP JUMPDEST DUP3 SSTORE POP POP POP POP JUMP JUMPDEST PUSH0 SWAP1 JUMP JUMPDEST PUSH2 0xE03 PUSH2 0xDF7 JUMP JUMPDEST PUSH2 0xE0E DUP2 DUP5 DUP5 PUSH2 0xDD2 JUMP JUMPDEST POP POP POP JUMP JUMPDEST JUMPDEST DUP2 DUP2 LT ISZERO PUSH2 0xE31 JUMPI PUSH2 0xE26 PUSH0 DUP3 PUSH2 0xDFB JUMP JUMPDEST PUSH1 0x1 DUP2 ADD SWAP1 POP PUSH2 0xE14 JUMP JUMPDEST POP POP JUMP JUMPDEST PUSH1 0x1F DUP3 GT ISZERO PUSH2 0xE76 JUMPI PUSH2 0xE47 DUP2 PUSH2 0xD2A JUMP JUMPDEST PUSH2 0xE50 DUP5 PUSH2 0xD3C JUMP JUMPDEST DUP2 ADD PUSH1 0x20 DUP6 LT ISZERO PUSH2 0xE5F JUMPI DUP2 SWAP1 POP JUMPDEST PUSH2 0xE73 PUSH2 0xE6B DUP6 PUSH2 0xD3C JUMP JUMPDEST DUP4 ADD DUP3 PUSH2 0xE13 JUMP JUMPDEST POP POP JUMPDEST POP POP POP JUMP JUMPDEST PUSH0 DUP3 DUP3 SHR SWAP1 POP SWAP3 SWAP2 POP POP JUMP JUMPDEST PUSH0 PUSH2 0xE96 PUSH0 NOT DUP5 PUSH1 0x8 MUL PUSH2 0xE7B JUMP JUMPDEST NOT DUP1 DUP4 AND SWAP2 POP POP SWAP3 SWAP2 POP POP JUMP JUMPDEST PUSH0 PUSH2 0xEAE DUP4 DUP4 PUSH2 0xE87 JUMP JUMPDEST SWAP2 POP DUP3 PUSH1 0x2 MUL DUP3 OR SWAP1 POP SWAP3 SWAP2 POP POP JUMP JUMPDEST PUSH2 0xEC7 DUP3 PUSH2 0x8FB JUMP JUMPDEST PUSH8 0xFFFFFFFFFFFFFFFF DUP2 GT ISZERO PUSH2 0xEE0 JUMPI PUSH2 0xEDF PUSH2 0xA55 JUMP JUMPDEST JUMPDEST PUSH2 0xEEA DUP3 SLOAD PUSH2 0xC92 JUMP JUMPDEST PUSH2 0xEF5 DUP3 DUP3 DUP6 PUSH2 0xE35 JUMP JUMPDEST PUSH0 PUSH1 0x20 SWAP1 POP PUSH1 0x1F DUP4 GT PUSH1 0x1 DUP2 EQ PUSH2 0xF26 JUMPI PUSH0 DUP5 ISZERO PUSH2 0xF14 JUMPI DUP3 DUP8 ADD MLOAD SWAP1 POP JUMPDEST PUSH2 0xF1E DUP6 DUP3 PUSH2 0xEA3 JUMP JUMPDEST DUP7 SSTORE POP PUSH2 0xF85 JUMP JUMPDEST PUSH1 0x1F NOT DUP5 AND PUSH2 0xF34 DUP7 PUSH2 0xD2A JUMP JUMPDEST PUSH0 JUMPDEST DUP3 DUP2 LT ISZERO PUSH2 0xF5B JUMPI DUP5 DUP10 ADD MLOAD DUP3 SSTORE PUSH1 0x1 DUP3 ADD SWAP2 POP PUSH1 0x20 DUP6 ADD SWAP5 POP PUSH1 0x20 DUP2 ADD SWAP1 POP PUSH2 0xF36 JUMP JUMPDEST DUP7 DUP4 LT ISZERO PUSH2 0xF78 JUMPI DUP5 DUP10 ADD MLOAD PUSH2 0xF74 PUSH1 0x1F DUP10 AND DUP3 PUSH2 0xE87 JUMP JUMPDEST DUP4 SSTORE POP JUMPDEST PUSH1 0x1 PUSH1 0x2 DUP9 MUL ADD DUP9 SSTORE POP POP POP JUMPDEST POP POP POP POP POP POP JUMP JUMPDEST PUSH32 0x4E487B7100000000000000000000000000000000000000000000000000000000 PUSH0 MSTORE PUSH1 0x11 PUSH1 0x4 MSTORE PUSH1 0x24 PUSH0 REVERT JUMPDEST PUSH0 PUSH2 0xFC4 DUP3 PUSH2 0x7C2 JUMP JUMPDEST SWAP2 POP PUSH32 0xFFFFFFFFFFFFFFFFFFFFFFFFFFFFFFFFFFFFFFFFFFFFFFFFFFFFFFFFFFFFFFFF DUP3 SUB PUSH2 0xFF6 JUMPI PUSH2 0xFF5 PUSH2 0xF8D JUMP JUMPDEST JUMPDEST PUSH1 0x1 DUP3 ADD SWAP1 POP SWAP2 SWAP1 POP JUMP JUMPDEST PUSH32 0x43726F6D6F20646F6573206E6F74206578697374000000000000000000000000 PUSH0 DUP3 ADD MSTORE POP JUMP JUMPDEST PUSH0 PUSH2 0x1035 PUSH1 0x14 DUP4 PUSH2 0xBD3 JUMP JUMPDEST SWAP2 POP PUSH2 0x1040 DUP3 PUSH2 0x1001 JUMP JUMPDEST PUSH1 0x20 DUP3 ADD SWAP1 POP SWAP2 SWAP1 POP JUMP JUMPDEST PUSH0 PUSH1 0x20 DUP3 ADD SWAP1 POP DUP2 DUP2 SUB PUSH0 DUP4 ADD MSTORE PUSH2 0x1062 DUP2 PUSH2 0x1029 JUMP JUMPDEST SWAP1 POP SWAP2 SWAP1 POP JUMP JUMPDEST PUSH32 0x43726F6D6F20616C726561647920736F6C640000000000000000000000000000 PUSH0 DUP3 ADD MSTORE POP JUMP JUMPDEST PUSH0 PUSH2 0x109D PUSH1 0x12 DUP4 PUSH2 0xBD3 JUMP JUMPDEST SWAP2 POP PUSH2 0x10A8 DUP3 PUSH2 0x1069 JUMP JUMPDEST PUSH1 0x20 DUP3 ADD SWAP1 POP SWAP2 SWAP1 POP JUMP JUMPDEST PUSH0 PUSH1 0x20 DUP3 ADD SWAP1 POP DUP2 DUP2 SUB PUSH0 DUP4 ADD MSTORE PUSH2 0x10CA DUP2 PUSH2 0x1091 JUMP JUMPDEST SWAP1 POP SWAP2 SWAP1 POP JUMP JUMPDEST PUSH0 PUSH1 0x60 DUP3 ADD SWAP1 POP PUSH2 0x10E4 PUSH0 DUP4 ADD DUP7 PUSH2 0xA25 JUMP JUMPDEST PUSH2 0x10F1 PUSH1 0x20 DUP4 ADD DUP6 PUSH2 0xA25 JUMP JUMPDEST PUSH2 0x10FE PUSH1 0x40 DUP4 ADD DUP5 PUSH2 0x7CB JUMP JUMPDEST SWAP5 SWAP4 POP POP POP POP JUMP JUMPDEST PUSH0 DUP2 ISZERO ISZERO SWAP1 POP SWAP2 SWAP1 POP JUMP JUMPDEST PUSH2 0x111A DUP2 PUSH2 0x1106 JUMP JUMPDEST DUP2 EQ PUSH2 0x1124 JUMPI PUSH0 DUP1 REVERT JUMPDEST POP JUMP JUMPDEST PUSH0 DUP2 MLOAD SWAP1 POP PUSH2 0x1135 DUP2 PUSH2 0x1111 JUMP JUMPDEST SWAP3 SWAP2 POP POP JUMP JUMPDEST PUSH0 PUSH1 0x20 DUP3 DUP5 SUB SLT ISZERO PUSH2 0x1150 JUMPI PUSH2 0x114F PUSH2 0x88F JUMP JUMPDEST JUMPDEST PUSH0 PUSH2 0x115D DUP5 DUP3 DUP6 ADD PUSH2 0x1127 JUMP JUMPDEST SWAP2 POP POP SWAP3 SWAP2 POP POP JUMP JUMPDEST PUSH32 0x546F6B656E207472616E73666572206661696C65640000000000000000000000 PUSH0 DUP3 ADD MSTORE POP JUMP JUMPDEST PUSH0 PUSH2 0x119A PUSH1 0x15 DUP4 PUSH2 0xBD3 JUMP JUMPDEST SWAP2 POP PUSH2 0x11A5 DUP3 PUSH2 0x1166 JUMP JUMPDEST PUSH1 0x20 DUP3 ADD SWAP1 POP SWAP2 SWAP1 POP JUMP JUMPDEST PUSH0 PUSH1 0x20 DUP3 ADD SWAP1 POP DUP2 DUP2 SUB PUSH0 DUP4 ADD MSTORE PUSH2 0x11C7 DUP2 PUSH2 0x118E JUMP JUMPDEST SWAP1 POP SWAP2 SWAP1 POP JUMP JUMPDEST PUSH0 PUSH1 0x40 DUP3 ADD SWAP1 POP PUSH2 0x11E1 PUSH0 DUP4 ADD DUP6 PUSH2 0x7CB JUMP JUMPDEST PUSH2 0x11EE PUSH1 0x20 DUP4 ADD DUP5 PUSH2 0xA25 JUMP JUMPDEST SWAP4 SWAP3 POP POP POP JUMP INVALID LOG2 PUSH5 0x6970667358 0x22 SLT KECCAK256 SMOD 0xD1 PC 0xD8 0xBC PUSH17 0x685B7349C3B4D232AF1527E855BE65D175 0xD2 ADDMOD EXTCODESIZE 0xD1 0xE8 SWAP15 SWAP3 PUSH14 0x1064736F6C634300081400330000 "
				},
				"gasEstimates": {
					"creation": {
						"codeDepositCost": "930200",
						"executionCost": "infinite",
						"totalCost": "infinite"
					},
					"external": {
						"buyCromo(uint256)": "infinite",
						"createCromo(string,uint256)": "infinite",
						"cromos(uint256)": "infinite",
						"getCromo(uint256)": "infinite",
						"nextCromoId()": "2426",
						"owner()": "2508",
						"yoppenToken()": "infinite"
					}
				},
				"methodIdentifiers": {
					"buyCromo(uint256)": "f0ad4662",
					"createCromo(string,uint256)": "a1a3efc7",
					"cromos(uint256)": "e11c15e3",
					"getCromo(uint256)": "77540568",
					"nextCromoId()": "09a645f2",
					"owner()": "8da5cb5b",
					"yoppenToken()": "3fa36d9f"
				}
			},
			"storageLayout": {
				"storage": [
					{
						"astId": 83,
						"contract": "contracts/cromomarket.sol:CromoMarket",
						"label": "yoppenToken",
						"offset": 0,
						"slot": "0",
						"type": "t_contract(IERC20)77"
					},
					{
						"astId": 85,
						"contract": "contracts/cromomarket.sol:CromoMarket",
						"label": "owner",
						"offset": 0,
						"slot": "1",
						"type": "t_address"
					},
					{
						"astId": 99,
						"contract": "contracts/cromomarket.sol:CromoMarket",
						"label": "cromos",
						"offset": 0,
						"slot": "2",
						"type": "t_mapping(t_uint256,t_struct(Cromo)94_storage)"
					},
					{
						"astId": 101,
						"contract": "contracts/cromomarket.sol:CromoMarket",
						"label": "nextCromoId",
						"offset": 0,
						"slot": "3",
						"type": "t_uint256"
					}
				],
				"types": {
					"t_address": {
						"encoding": "inplace",
						"label": "address",
						"numberOfBytes": "20"
					},
					"t_contract(IERC20)77": {
						"encoding": "inplace",
						"label": "contract IERC20",
						"numberOfBytes": "20"
					},
					"t_mapping(t_uint256,t_struct(Cromo)94_storage)": {
						"encoding": "mapping",
						"key": "t_uint256",
						"label": "mapping(uint256 => struct CromoMarket.Cromo)",
						"numberOfBytes": "32",
						"value": "t_struct(Cromo)94_storage"
					},
					"t_string_storage": {
						"encoding": "bytes",
						"label": "string",
						"numberOfBytes": "32"
					},
					"t_struct(Cromo)94_storage": {
						"encoding": "inplace",
						"label": "struct CromoMarket.Cromo",
						"members": [
							{
								"astId": 87,
								"contract": "contracts/cromomarket.sol:CromoMarket",
								"label": "id",
								"offset": 0,
								"slot": "0",
								"type": "t_uint256"
							},
							{
								"astId": 89,
								"contract": "contracts/cromomarket.sol:CromoMarket",
								"label": "name",
								"offset": 0,
								"slot": "1",
								"type": "t_string_storage"
							},
							{
								"astId": 91,
								"contract": "contracts/cromomarket.sol:CromoMarket",
								"label": "price",
								"offset": 0,
								"slot": "2",
								"type": "t_uint256"
							},
							{
								"astId": 93,
								"contract": "contracts/cromomarket.sol:CromoMarket",
								"label": "owner",
								"offset": 0,
								"slot": "3",
								"type": "t_address"
							}
						],
						"numberOfBytes": "128"
					},
					"t_uint256": {
						"encoding": "inplace",
						"label": "uint256",
						"numberOfBytes": "32"
					}
				}
			},
			"userdoc": {
				"kind": "user",
				"methods": {},
				"version": 1
			}
		}
	}
}